:100000000C94B4020C94D1020C94D1020C94D10241
:100010000C94D1020C94D1020C94D1020C94D10214
:100020000C94D1020C94D1020C94D9200C94AD21E3
:100030000C945C1A0C94D1020C94D1020C94D10251
:100040000C94D1020C94D1020C94D1020C94D102E4
:100050000C94D1020C94E31A0C94D1020C94D102AA
:100060000C94D1020C94D1020C94D1020C94D102C4
:100070000C94D1020C94D1020C94D1020C94D102B4
:100080000C94D1020C94D1020C94D1020C94D102A4
:100090000C94D1020C94D1020C94D1020C94D10294
:1000A0000C94D1020C94D1020C94D10229001E436D
:1000B0001F432043214322431D011C0123432443AA
:1000C00025432643274361524C0014001A0008437D
:1000D0001543170050004F001C0018000C001200C0
:1000E000130031002B0004001600074309430A00E7
:1000F000000000000B000D000E000F0033423428FA
:10010000E1001D211B000643194305002D002E00B0
:1001100011001000360037003800E5003541E34299
:10012000E10450004F0000000000000000005200F9
:1001300051002F003000C15200004D00E1002C00A2
:100140004A00E000E2002B0021524B0028002A0068
:100150004E00000004523A003B003C003D003E00CF
:10016000010001003F004000410042004300010047
:1001700001001E021F022F023002310201000100A5
:10018000520024002500260025024500010020021F
:100190002102260227023500000000005100210044
:1001A000220023002E0201000100220223022F0060
:1001B000300035020100010024021E001F00200053
:1001C00038000100037C0100010001000100000073
:1001D0000000000000000100370027002E00010091
:1001E00000000100E100160A01000100E200010028
:1001F0000100010001000100010000000100DD001C
:10020000DE00DF000100010001000100010001002B
:1002100001003C023C000100010001000100CD0092
:100220000100D90001004C020100010001000100A1
:100230000100010001000100CF00CE00D000DA0073
:100240000000000001000100010001000100AE00FB
:10025000E10001000100010001000100010038136C
:1002600001000100AC00AB00010001000100010031
:100270000100D100D2000000000000000000A90031
:10028000AA00A8000100010000000100D200D10076
:10029000010001000100010001000100B600B700EB
:1002A0000100000000001E021F02200221022202A3
:1002B000000000002302240225022602270200007B
:1002C0000000000000002F023000000000000000CD
:1002D000000000000000000000000000000000001E
:1002E00000002602270200000000000000000000BD
:1002F00000000000000000000000000000002F00CF
:1003000030000000000000000000000000000000BD
:1003100000000000000000000000000000000000DD
:1003200000000000000000000000000000000000CD
:1003300000000000000000000000000000000000BD
:1003400000000000000000000000000029001E0066
:100350001F002000210022002300000023002400B1
:1003600025002600270000522B00170014001A0059
:1003700008001500370000001C0018000C001200D7
:1003800013003100E1000A00040016000700090014
:10039000000000000B000D000E000F0033000000F5
:1003A000E1001D001B0006001900050036004C008E
:1003B000110010005200370038000000E00000007B
:1003C000E20050004F00000000000000000050005C
:1003D00051004F000000000000000000E1002C0070
:1003E00000000000000000000000000028002A00BB
:1003F000E300000012034500720067006F00640014
:100400006F006E006500000012034B002E005400C8
:100410002E0045002E0043002E00000004030904B6
:1004200009023B00020100A0FA09040000010301D7
:100430000100092111010001224400070581030880
:10044000000109040100010300000009211101005D
:100450000122B600070582032000011201000200FC
:10046000000008091228230100010200010501090A
:1004700002A10185020901A1000509190129081538
:100480000025019508750181020501093009311522
:1004900081257F95027508810609381581257F958C
:1004A0000175088106050C0A38021581257F950122
:1004B00075088106C0C005010980A10185031901E5
:1004C0002AB700150126B700950175108100C005F7
:1004D0000C0901A101850419012AA002150126A019
:1004E00002950175108100C005010906A10185066C
:1004F000050719E029E71500250195087501810216
:100500000507190029EF1500250195F075018102F5
:1005100005081901290595057501910295017503D5
:100520009101C005010906A101050719E029E71598
:100530000025019508750181029501750881010565
:1005400007190029FF150026FF0095067508810090
:100550000508190129051500250195057501910268
:10056000950175039101C00011241FBECFEFDAE0A1
:10057000DEBFCDBF11E0A0E0B1E0E4ECF8E402C0E2
:1005800005900D92AC38B107D9F722E0ACE8B1E0A4
:1005900001C01D92A33CB207E1F70E94B1130C9475
:1005A00021240C94000080918E0181110EC00E94C4
:1005B000751B2FEF83ED90E3215080409040E1F7D1
:1005C00000C0000081E080938E010895A1E0B0E0BA
:1005D000ECEEF2E00C948E234983F82EFF0C81E0C0
:1005E0009DE0E92E611103C080E02CE0E22E04E6DC
:1005F00010E021E030E0AE014F5F5F4F682F8F2D9C
:100600000E94EF1B892B61F421E030E0AE014F5FC7
:100610005F4F6E2D8F2D0E94EF1B21E0892B09F07B
:1006200020E0822F2196E6E00C94AA230F931F93DB
:10063000880F61110FC062E104E610E021E030E0B4
:100640000E94391C21E0892B09F020E0822F1F91A4
:100650000F91089563E1F0CF8091910181110CC059
:100660004FEF61E080E20E94E60291E089279091DD
:100670009101980F909391010895CF934FEF60E00F
:1006800080E20E94E602C1E08C2790919101980FD0
:10069000909391014FEF61E080E20E94E6028C2787
:1006A000C0919101C80FC0939101CF91089580E24C
:1006B0000E94D3022198299822982A9884988C988D
:1006C00085988D9886988E9887988F9829982A98DB
:1006D0008C988D988E988F980E942C036E98769A9D
:1006E00052985A9A53985B9A54985C9A57985F9A82
:1006F0003E98469A24982C9A0E943D030895A1E0C2
:10070000B0E0E5E8F3E00C9482238C018091910144
:10071000882371F080918F0190919001019681154D
:1007200020E2920708F0A6C09093900180938F0179
:100730004801512C412C00E0142DF40121903190FE
:100740004F01129212925F01133009F4ACC008F00D
:100750009CC0113009F4A1C0123009F4A1C0849AE0
:100760008C988091910192012F5F3F4F290188233E
:1007700009F49FC08FE891E00197F1F700C00000F5
:1007800080919101712C612C81111FC09FEF998381
:10079000AE014F5F5F4F60E080E20E94160391E080
:1007A000892790919101980F90939101898180956B
:1007B0000E942C06982F96959C778370892B782E13
:1007C0007594682E6794662467944B9985C080E47D
:1007D000C82ED12C4A9983C0A0E2B0E04C9982C0C7
:1007E000E0E1F0E0369981C068E070E04F9980C0A8
:1007F00044E050E066997FC022E030E083B182950A
:100800008F7091E0892780FBEE24E0F8F12CC7017E
:10081000862997298C299D298A2B9B2B8E2B9F2BF0
:10082000682B792B462B572B242B352BF501318345
:100830002083133009F473C008F060C0113009F44C
:1008400066C0123009F467C084988C988C9881E057
:10085000F501208131812215330509F480E0082B50
:10086000F6E04F16510409F067CF802F2196E2E1A0
:100870000C949E231092900110928F01109291017E
:100880000E942C030E943D0353CF143079F01530A1
:1008900009F065CF229A2A9864CF859A8D9861CF06
:1008A000869A8E985ECF879A8F985BCF219A2998E7
:1008B00058CF41E050E001C0440F2A95EAF7409537
:1008C00061E080E20E94E60291E089279091910127
:1008D000980F9093910154CFD12CC12C7BCFB0E0D5
:1008E000A0E07CCFF0E0E0E07DCF70E060E07ECF84
:1008F00050E040E07FCF30E020E080CF143099F02E
:10090000153009F0A1CF22982A982A98A0CF85986F
:100910008D988D989CCF86988E988E9898CF879832
:100920008F988F9894CF21982998299890CF259ABD
:100930002D980895269A2E980895239A2B98089515
:10094000559A5D9A08950E9497040E949A040E9405
:100950009D040E94A004559A5D982FEF80E792E0D5
:10096000215080409040E1F700C00000259A2D9A68
:100970002FEF80E792E0215080409040E1F700C0E7
:100980000000269A2E9A2FEF80E792E021508040B7
:100990009040E1F700C00000239A2B9A2FEF80E7E8
:1009A00092E0215080409040E1F700C000000E949A
:1009B00097042FEF80E792E0215080409040E1F7CC
:1009C00000C000000E949A042FEF80E792E02150BF
:1009D00080409040E1F700C000000E949D042FEF8E
:1009E00080E792E0215080409040E1F700C0000095
:1009F0000E94A0040E9497040E949A040E949D04F1
:100A00000E94A0040E944D1008958530B8F466300D
:100A1000A8F44E3098F450E09EE0699F400D511DBF
:100A20001124FA0194E5899FE00DF11D1124EE0FC8
:100A3000FF1FE455FF4F85919491089581E090E068
:100A400008950E940505089581E008950E942405F7
:100A5000089581E008950E94240508950E942B05C1
:100A6000089508950E9431050895A6E0B0E0EBE3F3
:100A7000F5E00C94912349835A839E83309197012A
:100A800089819A8131111AC03E81332399F0222342
:100A900089F00E94130B182F682F89819A810E9478
:100AA000EF0A69817A81812F0E9423122696E3E062
:100AB0000C94AD230E94010B182FF3CF0E94130B4F
:100AC00069817A81F1CFFC01262F408151816281B9
:100AD0007381848195810E9435050895CF93DF93BA
:100AE000EC0161E00E946305BE010E942605DF91D2
:100AF000CF910895CF93DF93EC0160E00E946305EE
:100B0000BE010E943205DF91CF91089521E030E0CF
:100B1000A90102C0440F551F8A95E2F7CA010E943D
:100B2000110A0895CF93C82F81E090E00C2E02C0E7
:100B3000880F991F0A94E2F70E947F0F8C2F0E9462
:100B40008605CF91089581E008950E94A305089538
:100B5000CF93C82F0E94C4098C2F0E94A5052FEFA8
:100B600084E39CE0215080409040E1F700C0000009
:100B7000CF91089581E00E94A8050E94071B089567
:100B800080E00E94A8050E94181B08950F931F93F0
:100B9000CF93DF938C0161E00E946305EC01B80103
:100BA0000E942E05811106C080E0DF91CF911F9138
:100BB0000F910895B801CE010E94DA178823A1F39E
:100BC000B801CE010E941614882371F3B801CE013A
:100BD0000E94EC13882341F3B801CE010E94271331
:100BE000882311F3F8018581882361F0C330FCE785
:100BF000DF07E9F058F4C115ECE7DE07A9F0C130D2
:100C0000DC47B9F0C8010E942905CFCFCB358CE76E
:100C1000D807A9F0CC35ECE7DE0771F0CA35DC4720
:100C200089F70E945A0FEECF0E94BA05BDCF0E94ED
:100C3000620F0E94C005B8CF0E94500FE3CF0E9400
:100C40005E0FE0CF0E94381A0E946F0608950E943E
:100C500073060E943D1A0895829590E09C01220F30
:100C6000331F220F331F2C7C95958795959587957B
:100C70008373282B30E0C901880F991F8A7A359534
:100C800027952575822B089581E0089580FF08C07F
:100C90002D9A81FF07C02E9A82FF06C02B9A0895D5
:100CA0002D98F7CF2E98F8CF2B980895CF93DF93F8
:100CB000D82F0E944406C82F882319F08D2F0E9438
:100CC00046068C2FDF91CF910895259A2D98269A6C
:100CD0002E98239A2B9808950E945606089580E036
:100CE0000E946C0608950E9423180E946C060895C5
:100CF000CF930E942318C82F809192018C1779F00E
:100D0000C09392010E94C81A60939301709394015A
:100D100080939501909396018C2F0E946C06CF9141
:100D20000895ADE0B0E0E7E9F6E00C94922348873F
:100D300059876A877B878C879D8791110E94600EF7
:100D40001F8286E0FE013896DE01119601900D9219
:100D50008A95E1F78D8181110DC029813A814B81FE
:100D60005C816D817E818F810E94AA0D2D96E2E0CB
:100D70000C94AE23CE0101960E946E058111EDCF39
:100D8000F5CFFC012481213021F4808191810E94E2
:100D9000450B0895662329F00E9477150E944A1694
:100DA00008950E94D115FACFCF93C82F882399F0C8
:100DB0008CEF8C0F813A88F48C2F0E94C318882303
:100DC00029F08C2F0E9469190E94F40E8C2F0E942A
:100DD0004F190E94F40ECF91089580E28C0F883055
:100DE00048F4C77081E001C0880FCA95EAF70E94F5
:100DF000430EEFCFEBE5EC0FE33040F4F0E0E05BC7
:100E0000FE4F808190E00E945718E5CFE8E5EC0F97
:100E1000EB3150F4F0E0EE0FFF1FE65EFE4F8081F5
:100E200091810E947C18D7CF83E38C0F833198F691
:100E300061E08C2F0E94CA06CECF882381F19CEFFF
:100E4000980F913A28F40E9469190E94F40E0895AF
:100E500090E2980F983050F4877091E001C0990F9C
:100E60008A95EAF7892F0E94490EEFCF9BE5980FEC
:100E7000933028F490E080E00E945718089598E598
:100E8000980F9B3128F490E080E00E947C18089530
:100E900093E3980F933118F460E00E94CA06089516
:100EA0001F93CF93DF93182FEB010E94D406209756
:100EB00039F4812F0E941D07DF91CF911F91089572
:100EC0008FE99FE00197F1F700C000002197EFCF75
:100ED00070E060E0893311F460E570E00E94500733
:100EE0000895882321F00E94430E0E94F40E089575
:100EF000882321F00E94490E0E94F40E0895B0E06C
:100F0000A0E0E5E8F7E00C948B236C01D62FC72F07
:100F1000FC011581068102950F700E94390EE82EA2
:100F20008823F9F0E12E1123E1F08C2F807F8034AB
:100F300061F080E28D0F883008F18C2F807E803246
:100F400021F4D230D8F00023C9F08091990282FFB9
:100F500015C082E00E94240F0E94390E91E0E82E15
:100F6000E926BC2EB2949FE0B922FBE0FB15B8F154
:100F7000EB2DF0E0ED5DFB4D0C947C23E12CF1CFEB
:100F80000C2F0F70C07F11F00295007F112399F094
:100F9000002359F080E28D0F883010F0D11107C086
:100FA000802F0E94430E0E94F40E8D2F5AC0802F76
:100FB0000E94530EF8CF8D2F0E941D07002379F059
:100FC00080E28D0F883010F0D11104C0802F0E9474
:100FD000490E03C0802F0E94590E0E94F40EEB2D83
:100FE000E850FF0B349720F40E9423180E946C06EF
:100FF000EE2089F00E94350E80FD0DC0F6011582AD
:101000000E942F0E0E944D0AC6010E948B090E9469
:101010002F0E0E945D0ACDB7DEB7E9E00C94A7233E
:101020002C2F2F70F22EC07FC03219F0F29480EF77
:10103000F822DD2341F0D130D1F1112309F444C06D
:101040000023F1F0B2CF8091990282FD15C01123E7
:1010500059F0FF2029F08F2D0E94430E0E94F40EBC
:1010600080E00E94D406BBCF80E00E941D07FF20D5
:1010700009F4B5CF8F2DABCF112369F0011104C056
:101080008F2D0E947107ABCF013009F0A8CF8F2DB3
:101090000E94770EA4CF0111A2CF8F2D0E94780756
:1010A0008F2D0E94830E8F2D0E94670E98CF1123E3
:1010B00021F0063008F093CFE3CF053008F08FCF52
:1010C0008F2D0E9478078BCF0023D1F3D93349F4B9
:1010D0003FEF87EE93E0315080409040E1F700C051
:1010E00000008D2F0E941D077ACF8C2F8695869544
:1010F000837069F0813009F072CF8D2F9C2F93702F
:10110000111102C080E090E00E947C1868CF8D2F02
:101110009C2F9370111102C080E090E00E9457183C
:101120005ECF612F8D2F0E94CA0659CF8C2F8370FE
:10113000A1F5111154CF4D2F429546954770440F9C
:10114000440F2D2F2F7030E0042E02C0220F331FCA
:101150000A94E2F790E080E0D4FF09C08FE090E0CD
:1011600002C0880F991F4A95E2F780959095C69521
:10117000C695C370822B932BC23049F058F4C1300E
:1011800019F00E941D0A2BCF0E94140A28CF0E943A
:10119000260A25CF0E94110A22CF8695112311F02D
:1011A0008C2F8170882309F41ACF4D2F42954695D4
:1011B0004770440F440F2D2F2F7030E0042E02C0D3
:1011C000220F331F0A94E2F790E080E0D4FF09C0B9
:1011D0008FE090E002C0880F991F4A95E2F7809552
:1011E0009095C695C695C370822B932BC23049F05B
:1011F00058F4C13019F00E94880AF1CE0E947F0A8B
:10120000EECE0E94910AEBCE0E94350AE8CECF7056
:10121000112329F08C2F0E944D0A8D2F32CF8D2F54
:101220000E9478078C2F0E945D0AD9CED23F41F1EF
:1012300060F4D03FB9F0D13F81F0112309F443C0ED
:101240000111B3CE8C2F8F711FC0D33F01F1D43F5A
:10125000A1F78091990282FD24C08C2F8F711123F8
:1012600011F312C0112341F0053008F0B8CE8C2FD5
:101270008F710E946F0AB3CE063008F0B0CEF7CF60
:101280008C2F8F711111CFCF0E944D0AA8CE112340
:1012900029F08C2F8F710E94410AA1CE0E943C0A36
:1012A0009ECE112331F063E08C2F8F710E94060FC8
:1012B00096CE81E00E94240F023008F490CE82E0A6
:1012C0000E94240F8CCE002359F0D93309F009CFA6
:1012D000EFEFF7EE23E0E150F0402040E1F7FFCEE2
:1012E0008C2F8F71A0CF0F931F93CF93DF93EC01BF
:1012F000688179818D810E94500B8C010E949A0A2D
:101300000E94100AB801CE010E947F07DF91CF91A1
:101310001F910F910895CF93DF93EC018C81882367
:1013200099F0CE010E94C605811111C00E94390EAC
:10133000882351F08D81882339F08091990282FFB2
:1013400003C082E00E94240FDF91CF910895CE0167
:101350000E947309CE010E947A05F6CF90E080E0EA
:101360000E94571890E080E00E947C180E94600E56
:101370000E94F40E0E9466160E944A1608950E946A
:1013800083190E94AE0908950E94500E0E94BF0961
:10139000089592959F70963091F058F4925F9F70E7
:1013A000923058F4803F19F030F4883E30F481E0F8
:1013B00008959A5FF4CF843FD1F380E00895883E8A
:1013C000B0F3813FD1F7F3CFFC012481222339F020
:1013D000808191810E94450B0E94C909089580E097
:1013E0000895A6E0B0E0E7EFF9E00C94922326968A
:1013F000E2E00C94AE23A7E0B0E0E1E0FAE00C9468
:1014000092232796E2E00C94AE2308950E94050AE9
:1014100008950E94060A9093C7018093C60108951B
:1014200008950E94090A08952091C6013091C701CC
:10143000822B932B0E94090A08952091C6013091B6
:10144000C701822393230E94090A08952091C601AF
:101450003091C701822793270E94090A08950E94AC
:10146000050A08950E942F0A08950E94320A909357
:10147000C5018093C401089590E080E00E94350A80
:10148000089521E030E0A90102C0440F551F8A955C
:10149000E2F7CA010E94350A089521E030E002C057
:1014A000220F331F8A95E2F78091C4019091C50104
:1014B000822B932B0E94350A089521E030E002C070
:1014C000220F331F8A95E2F7209530958091C40151
:1014D0009091C501822393230E94350A089521E04B
:1014E00030E002C0220F331F8A95E2F78091C401D9
:1014F0009091C501822793270E94350A0895209173
:10150000C4013091C501822B932B0E94350A0895A6
:101510002091C4013091C501822393230E94350A92
:1015200008952091C4013091C501822793270E941C
:10153000350A08950895262F277091E001C0990F6C
:101540002A95EAF723E0769567952A95E1F7660FE5
:10155000771F660F771FFA01E60FF71F50E040E094
:10156000682F70E08191DF0111979B01042E02C06A
:10157000369527950A94E2F721702195282729238B
:1015800028272C934F5F5F4F4430510559F708953A
:10159000A82FA77023E0969587952A95E1F7880FE5
:1015A000991F880F991FFB01E80FF91F50E040E0D9
:1015B00080E0219130E00A2E02C0369527950A94EA
:1015C000E2F721703327042E01C0220F0A94EAF7B4
:1015D000822B4F5F5F4F4430510559F70895262FF6
:1015E000963070F48E3060F4682F70E08EE0989F33
:1015F000600D711D112448E951E0822F0E949B0A61
:101600000895292F963068F48E3058F490E068E9F8
:1016100071E03EE0239F800D911D11240E94C80AB5
:10162000089580E00895B0E0A0E0E9E1FBE00C94CB
:101630008B237C010091C4011091C5018091C601EA
:101640009091C701082B192BCFE0D0E0CC24C39494
:10165000D12CBC2EC6010C2E02C0880F991F0A94F3
:10166000E2F780239123892B49F4219790F7B12C3D
:101670008B2DCDB7DEB7E9E00C94A723B7018C2FF3
:101680000E942F12019789F3F3CFCF93DF93EC01E0
:101690000E94130BBE010E942F12DF91CF9108957B
:1016A0001F93CF93DF93EB0190919701992339F02A
:1016B000CB010E94450BDF91CF911F9108958823A4
:1016C00069F0CB010E94130B182F682FCE010E94E6
:1016D000EF0ABE01812F0E942F12EDCFCB010E9495
:1016E000010B182FF6CF1F93CF93DF93C091C80142
:1016F00017E08091C9018C1304C0DF91CF911F9135
:101700000895D0E01C9FF0011D9FF00D1124E653B9
:10171000FE4F2081318142815381648175818681B0
:101720000E94FB092196C770E4CF209102023091FC
:1017300003024091040250910502609106027091EB
:101740000702809108020E94FB090895CF93DF935E
:1017500080910802807F09F04DC0809107028823A4
:1017600009F448C0E091C8015091C901C091030239
:10177000D0910202609104027091050247E05E1769
:10178000C9F18E2F90E0E49FF0011124E653FE4F43
:101790002481222391F1489FF001499FF00D1124EB
:1017A000DF01A653BE4F11962C9111972C1325C023
:1017B0002C912D1322C015962C91159721111DC027
:1017C00012962D913C91261B370B283C3105A8F42D
:1017D000809108028F70806180930802E053FE4F71
:1017E00080818F708061808382E092E00E948B090B
:1017F0000E94730BDF91CF910895FC013196E77041
:10180000BECF482F2091C8019091C90157E02913FC
:1018100002C080E0089530E0529FF001539FF00D28
:101820001124E653FE4F8181681306C0808148135E
:1018300003C085818111EECF2F5F3F4F2770E7CF27
:10184000A4E1B0E0E6E2FCE00C9488238C0186E0A1
:10185000F801DE011F9601900D928A95E1F7F801DB
:101860008481E58092E0A92E92E0B92E9091060243
:1018700091111FC08823D1F0EE20A9F0C8010E9469
:10188000E409F82E882379F087E0F801D50101906A
:101890000D928A95E1F7C5010E94C1060E94A60B30
:1018A0000E94950B5FC0C8010E948B09FF24F3942E
:1018B00059C0C080D18082809380F090070220912F
:1018C000040230910502A401421B530BFF2009F4CE
:1018D000F9C0483C510508F0A7C0882309F442C06C
:1018E0009091030280910802282F207F09F05CC0AC
:1018F0009D1116C090910202C91212C0E1104EC093
:101900008F708061809308020E94950B82E092E0C4
:101910000E948B0980910802F8018683F12C22C075
:10192000E1103CC06D2D8C2D0E94010C6D2D8C2D75
:101930000E94010CE82E8111F1CFCF86D88A8F85C5
:1019400098890E94450B292F22952F70243078F416
:101950009F702230A8F09923B9F0F8019681907F0A
:1019600099F4FE2C8F2D6496ECE00C94A4232A5F4E
:101970002F70223068F0C8010E948B09EF2CF1CF44
:10198000992311F0882369F3805E883050F3F3CFF8
:10199000803F38F3815F833070F7E3CF8091080296
:1019A000816080930802BACF9D1113C0909102020A
:1019B000C9120FC0E1100DC08683C8010E948B09B7
:1019C00087E0F801A2E0B2E001900D928A95E1F77C
:1019D00067CFC8010E94E409882309F464CFEE2090
:1019E00009F461CF80910802803288F020910202D0
:1019F00030910302398728879B868A869091060258
:101A00009C871D868E87CE0108960E948B0987E0F1
:101A1000F801A2E0B2E001900D928A95E1F70E94F0
:101A2000A60B0E94950B42CF90910802292F207F90
:101A3000A1F4682D9A8A898AA6017A899E2D0E942E
:101A4000F10982E092E00E948B0987E0F501119292
:101A50008A95E9F70E94950B61CF882309F482CF1C
:101A6000809103028D1110C080910202C8120CC037
:101A7000E1100AC09683C8010E948B0987E0F50136
:101A800011928A95E9F76ECFC8010E94E409882374
:101A900009F409CFEE2009F406CF809108028032C4
:101AA00008F4B5CF20910202309103023A832983D2
:101AB0009C828B82909106029D831E828F83CE0131
:101AC0000196A3CF483C5105B8F5882309F4EECE22
:101AD000FE2CEE2009F4E7CE809103028D111EC08A
:101AE00080910202C8121AC08091080280FD0DC0C8
:101AF000982F907F51F08683903F09F45ECF982F06
:101B0000907F905F8F70892B57CF87E0F801A2E01C
:101B1000B2E001900D928A95E1F724CFC8010E94AE
:101B2000E409811174CF80910802816080930802DA
:101B3000C8010E948B0916CF682D9A8A898AA6014E
:101B40007A899E2D0E94F10987E0F50111928A950C
:101B5000E9F7A6CEAEE0B0E0E0EBFDE00C94912317
:101B6000288739874A875B876C877D878E87CE0178
:101B700008960E94200C8823B1F06C85662341F002
:101B8000288539854A855B857D858E850E94FB0980
:101B900017E08091C8019091C90189133DC02E962C
:101BA000E3E00C94AD2387E0FE013896DE01119648
:101BB00001900D928A95E1F78C85882349F3209155
:101BC000C90130E0C9010196877099274091C80189
:101BD0004817190699F097E0929FD001939FB00D96
:101BE0001124A653BE4FFE01319601900D929A9595
:101BF000E1F78093C9010E94730BCACF0E94C40908
:101C00001092C9011092C80187E0E2E0F2E0DF0122
:101C10001D928A95E9F7BCCF819FC001112486539C
:101C20009E4F0E94200C882309F4B9CFE091C8018F
:101C30001E9FF0011124E653FE4F20813181428125
:101C400053816481758186810E94FB098091C8015E
:101C500090E00196877099278093C8019ACF809170
:101C60003102869586958695089580913102877018
:101C7000089590913102977081E009F480E0089511
:101C800080915D02089590915D02892B80935D02A1
:101C90000895809590915D02982390935D02089538
:101CA00010925D02089590915C02892B80935C02F2
:101CB0000895809590915C02982390935C0208951A
:101CC00010925C02089508950E94630E0895909109
:101CD0003202292F282331F0809589238093320204
:101CE0000E94640E089508950E94730E08959091C5
:101CF0003302292F2823281729F0982B9093330299
:101D00000E94740E089590913302292F282331F0F8
:101D100080958923809333020E94740E08958091E8
:101D20003302882329F01092330280E00E94740E5F
:101D30000895CF93C0915D0280915C02C82B809181
:101D40003302882331F0C82B0E94A11881110E9410
:101D50008F0E8C2FCF910895CF93DF93C091020106
:101D6000D09103010E94990E8883C0910201D09105
:101D7000030148E050E069E272E0CE010E94B9231D
:101D8000892B59F088E0FE01A9E2B2E001900D92A2
:101D90008A95E1F7CE010E943018DF91CF91089526
:101DA000CF93DF93C0910001D09101010E94990E61
:101DB0008983C0910001D091010140E250E069E0C7
:101DC00072E0CE010E94B923892B59F080E2FE0116
:101DD000A9E0B2E001900D928A95E1F7CE010E9450
:101DE0003B18DF91CF9108950E94131A813039F486
:101DF0008091980287FF03C00E94D00E08950E9430
:101E0000AC0E089508950E94020F089590919902D2
:101E100092FF11C098E0899F90011124622B60937A
:101E200031020E944D0A80913102869586958695F1
:101E30000E94030F08950E944D0A089510923102E6
:101E400080E00E94030F08959091310280958923CC
:101E500080933102282F277069F4891759F09091E7
:101E6000990292FF07C08695869586950E945D0A25
:101E70000E941E0F08959091990292FB222720F94B
:101E8000281769F080FB92F990939902809198024B
:101E9000909199020E948A0F82E00E94240F089577
:101EA0008091990282FB882780F991E089270E941E
:101EB0003B0F089581E00E943B0F089580E00E944F
:101EC0003B0F08956FEF7FEF90E080E00E940B24BE
:101ED000089590E080E00E94D72321E0853E9E4F48
:101EE00009F020E0822F089582E090E00E94CF2345
:101EF000089583E090E00E94CF2390E00895682F3A
:101F000083E090E00E94ED23089584E090E00E9439
:101F1000D7230895BC0184E090E00E940B2408952B
:101F2000AB01BC018FE090E00E94FF230895AB015C
:101F3000BC0183E190E00E94FF23089560E070E01F
:101F4000CB010E94970F089560E070E0CB010E94E2
:101F5000900F0E949E0F0895A8E0B0E0E2EBFFE032
:101F60000C94922365EE7EEF90E080E00E940B24BB
:101F700060E082E090E00E94ED2381E090E09093A9
:101F8000C7018093C6010E947F0F60E074E184E086
:101F900090E00E940B2460E086E090E00E94ED2338
:101FA00060E087E090E00E94ED2340E050E0BA015D
:101FB00088E090E00E94FF2360E083E290E00E94CE
:101FC000ED2360E08CE090E00E94ED2360E08DE086
:101FD00090E00E94ED2319821A821B821C821D82CE
:101FE0001E821F82188648E050E067E170E0CE0153
:101FF00001960E94DD2340E050E0BA018FE190E0BD
:102000000E94FF230E94A40F2896E2E00C94AE23C6
:102010000E94AC0F0895682F8EE090E00E94ED239F
:102020000895A6E0B0E0E7E1F0E10C9490230E946F
:10203000BC1A8C0180915E0290915F02801791071B
:1020400081F019821A820E94BC1A682F49815A8134
:10205000792F80E090E00E94910610935F02009338
:102060005E022696E4E00C94AC230E94C81A6093AA
:102070007002709371028093720290937302609366
:102080006C0270936D0280936E0290936F020895BC
:10209000089508950E9448100895089585E293E1F7
:1020A0000E94C6130E9449100E944A10089581E0C0
:1020B00008950E94571008950E945710089508959A
:1020C00008950E945F100E94601008950E94690F99
:1020D000811102C00E9408100E94740F8093740244
:1020E0000E94850F90939902809398020E94E913B1
:1020F0000E94790F0E94110A8091C4019091C5013C
:102100000E94320A08950E94B31A0E944B130E9443
:1021100066100E9465060E94A3040895A6E0B0E040
:10212000E4E9F0E10C9486230E94591081110AC061
:102130000E9411100E9488160E9478062696EEE0F2
:102140000C94A2230E945F1320E6822E22E0922E9E
:10215000640110E0F601E190F1906F01812F0E947F
:1021600041131F5F163009F44BC0E816F90691F3CE
:102170008091740281FD0E944A130E945C10782EA7
:1021800010E066246394812F0E9441137C01F401C6
:10219000A190B1904F018A159B0561F100E0CC241C
:1021A000C394D12CAE24BF24C5018C219D21892B41
:1021B000C1F07720B1F009831A830E94BC1A9C8376
:1021C0008B836D8221E0C7018C219D21892B09F42D
:1021D00020E049815A816B817C818D81922F0E9400
:1021E00091060F5FCC0CDD1C0E30F1F6F401329736
:1021F000F182E0821F5F163031F60E9435109ACFCF
:10220000E816F90609F0B4CF93CF1F93CF93DF936D
:102210000E943412EC01C11580E5D807F0F5C11514
:1022200080E4D80708F09CC0C03ED10520F5CD3C25
:10223000D10508F082C0C83AD10578F4C53AD10575
:1022400008F073C0C130D10519F1209709F1C430ED
:10225000D105F0F4D0E0C0E01BC0C33CD105D0F7FD
:10226000C85AD0E0CC0FDD1FCD5ADE4F0990D8817F
:10227000C02DD4640DC0C11580E2D80708F0D1C0CC
:10228000C11581E0D80708F05AC0C83ED10510F743
:10229000CE01DF91CF911F910895C03682E5D80716
:1022A00018F5C03482E5D80708F06BC0C03282E56B
:1022B000D80708F05FC0C11582E5D80708F497C0B9
:1022C0002C2F2695269580E2289F900111248C2F93
:1022D0008370C1E0D0E002C0CC0FDD1F8A95E2F729
:1022E000C22BD32BDD68D4CFC03A82E5D80760F487
:1022F000C03882E5D80708F459C0CF71D0E0DC2F90
:10230000CC27C46FD06AC4CFC03C82E5D80708F49C
:1023100062C0C03E82E5D80708F09CCFDC2FCC27F6
:10232000CC27DF71C06FD06AB3CFC55AD0E0C75792
:10233000DE4FC881D0E0D064ABCFD065A9CF8D2F60
:102340000E94D612182FCE0199270E943412C12F55
:10235000D0E0DC2FCC27CC27DF71C82BD92B98CF2E
:10236000CE0199270E943412CC27DF70C82BD92BBD
:10237000D06A8ECFCF71D0E0DC2FCC27C16FD06A6E
:1023800087CF2C2F26952695277080E2289F9001D5
:1023900011248C2F8370C1E0D0E002C0CC0FDD1F70
:1023A0008A95E2F7C22BD32BDC6872CF2C2F2695AF
:1023B0002695277080E2289F900111248C2F83702E
:1023C000C1E0D0E002C0CC0FDD1F8A95E2F7C22B3E
:1023D000D32BDA685DCF8C2F8F710E94D612C82F55
:1023E000D0E0DC2FCC27CC27DF71D06251CF8C2FEF
:1023F0008F710E94D61255E0D695C7955A95E1F790
:10240000CF70D0E0DC2FCC27282F30E084FF05C030
:1024100044E0220F331F4A95E1F7C22BD32BD0693A
:1024200037CF8D2F8F710E94D612182FCE0199278A
:102430000E943412C12FD0E0DC2FCC27CC27DF71D3
:10244000C82BD92BD2CF462F763030F46E3020F403
:10245000672F0E942105089590E080E008950E9472
:1024600023120E940511089582389105B9F1B0F444
:102470008133910509F47DC048F48932910509F44E
:102480006DC08A32910509F47BC0089585339105AA
:1024900009F45FC08933910509F10895833E9105E0
:1024A000D9F138F4803E910529F1823E910579F108
:1024B0000895863E9105D9F1873E910509F43EC005
:1024C000843E910541F52091990221FF24C080911D
:1024D000980284FD19C087EE90E00895209198023B
:1024E000237009F05AC02091990223FF14C089E299
:1024F00090E008952091980220FD38C03091990213
:1025000030FF09C024FF43C090E080E0089520918F
:10251000980222FDF7CF08952091980222FD3AC03B
:102520003091990230FD39C024FFF5CFEDCF2091D5
:10253000980223FFF0CF24FDE7CFCDCF2091980262
:1025400023FD2EC03091990231FFEECF84EE90E052
:1025500008952091980225FFDECFC9CF20919802DF
:1025600025FD21C02091990223FFD5CF89E390E07A
:10257000D2CF2091980226FFCECF8AE290E0089534
:102580002091980226FFC7CF81E390E0089583EE63
:1025900090E0089582EE90E0089580EE90E0089536
:1025A00086EE90E0089585E390E00895909198027A
:1025B00092FF10C041E0282F2471243009F040E040
:1025C00031E0282F2871283009F030E0431711F04E
:1025D0002CE0822793FF10C041E0282F2471243182
:1025E00009F040E031E0282F2871283109F030E06F
:1025F000431711F02CE082273091990230FF10C070
:1026000051E0282F2171213009F050E041E0282FBE
:102610002871283009F040E0541711F029E0822792
:1026200031FF10C041E0282F2171213109F040E035
:1026300031E0282F2871283109F030E0431711F0DC
:1026400029E0822794FD877E089580E00895CF9346
:102650009C01205E3245C1E02032310538F4FB0197
:10266000C581C11103C08F710E9492058C2FCF913B
:10267000089508950E943913089508950E943D1306
:102680000895E82FF0E0EE0FFF1FEA55FD4F80811F
:102690009181089508950E945703EAE9F2E0A6EABD
:1026A000B2E0119211921D921D9282E0E63AF80773
:1026B000C1F786E00E9472130E943A130895CF93E7
:1026C0008AE992E00E947F03282F46E066EA72E0E2
:1026D0008AE992E00E947313C82F0E943E138C2F48
:1026E000CF9108950895B0E0A0E0E9E7F3E10C94FC
:1026F0008C236C017B01042FC22F222379F081E00F
:10270000809377020E94BC1A9093760280937502A0
:1027100080E0CDB7DEB7E8E00C94A823D091770233
:10272000DD23B1F380917502909176020E94D41A54
:10273000059770F310E0000F111FA801B601C70143
:102740000E94B923892B31F0A801B601C7010E946C
:10275000C623CD2F109277028C2FDBCF0E948E10D4
:1027600008950E94551A0E94101E0E944E100E9449
:102770002A1E0E9483100E94371E0E943C1E0E9447
:10278000AE130E94561E0E946110F7CF90938D01E8
:1027900080938C0108950E94620F089580E00E944A
:1027A0004113817008950E945F132FEF86E791E037
:1027B000215080409040E1F700C000000E945F136C
:1027C0000E94CE13882321F00E94CB130E94071B86
:1027D00008950E94D3130895CF93DF93EB018631C0
:1027E0009C4711F50E94400E9D81992399F08A7AA9
:1027F00091E009F490E090937802811109C089E298
:102800000E944F190E94F40E80E0DF91CF9108954D
:1028100085E3F6CF80917802811104C089E20E949D
:102820006919F0CF85E3FBCF81E0EFCFCF93DF9342
:10283000EC01FB018581882309F4D2C09E01305749
:102840002332310508F0B2C00E94850F909399029F
:1028500080939802FE01E150F047E232F10520F446
:10286000E15DFB4D0C947C23809198028160809304
:10287000980293C0809199028860809399028DC0DC
:10288000809198028260F3CF809198028460EFCFAC
:10289000809198028860EBCF809199028160EDCFA2
:1028A000809199028260E9CF809198028061DFCFA8
:1028B000809198028062DBCF809198028064D7CFAC
:1028C0000E94C409809198028068D1CF80919802BB
:1028D0008C60CDCF809199028360CFCF8091980298
:1028E0008E7FC5CF80919902877FC7CF8091980254
:1028F0008D7FBDCF809198028B7FB9CF8091980258
:10290000877FB5CF809199028E7FB7CF8091990252
:102910008D7FB3CF809198028F7EA9CF809198024E
:102920008F7DA5CF809198028F7BA1CF0E94C40993
:10293000809198028F779BCF80919802837F97CF69
:10294000809199028C7F99CF8091980282FB992780
:1029500090F921E0922790FB82F990FB83F987CFD1
:1029600080919902982F909591708E7F892B90FB82
:1029700081F983CF90919802892F8F7B96FF806495
:1029800076CF0E94C40990919802892F97FB87F90E
:1029900080586DCF81E00E940B1080919802909139
:1029A00099020E948A0F0E94C40980E0DF91CF91B2
:1029B000089580E0F0CF90919802892F8F7E94FF48
:1029C000806155CF90919802892F8E7F90FF816012
:1029D0004ECF90919902892F877F93FF88604DCFCA
:1029E00081E0E4CF282F35EB2303C001112497FFAA
:1029F00004C080589109892F089580589F4FFBCFBC
:102A000080917F0280FF0DC06091090170E0660F28
:102A1000771F6038710570F56115710569F1862FB2
:102A2000089581FF07C06091090184E0689FB001AB
:102A30001124EFCF6091090182FD0AC080917E02CE
:102A40008823A9F02091080160910901821710F0F4
:102A500088E0ECCF869FC001112433E0880F991FD6
:102A60003A95E1F7622F70E00E946823D2CF68E0C8
:102A700070E0D5CF8FE7089581E0089580917F02BF
:102A800080FF0CC06091050170E0759567957595A4
:102A900067956115710549F1862F089581FF06C07C
:102AA0006091050170E075956795F3CF6091050120
:102AB00082FD0BC090917D029923A1F060910401E9
:102AC00080910501961738F0682F70E06038710525
:102AD00000F38FE70895899FC001112470E00E94E0
:102AE0006823F4CF61E070E0D7CF81E008958D3C9A
:102AF00031F40E94001581958093830208958E3CE5
:102B000019F40E940015F8CF8F3C31F40E94001593
:102B10008195809382020895803D19F40E940015EA
:102B2000F8CF893D29F40E943E15809384020895D0
:102B30008A3D21F40E943E158195F7CF8B3D31F4FB
:102B40000E943E1581958093850208958C3D19F46D
:102B50000E943E15F8CF9FE2980F983070F4815D87
:102B6000990B21E030E001C0220F8A95EAF78091AD
:102B70008102822B8093810208958D3D31F48091F2
:102B80007F02816080937F0208958E3D21F48091C1
:102B90007F028260F7CF8F3DB9F780917F0284601A
:102BA000F1CF409182028D3C59F48091830287FFDE
:102BB0000DC01092830241110BC010927E0208C01A
:102BC0008E3C81F48091830218169CF3442381F09B
:102BD0008091840290918502892B09F05AC010924D
:102BE0007D0208958F3C49F447FFF0CF1092820296
:102BF000809183028111ECCFE0CF803D19F414164F
:102C0000ACF3E4CF90918402893D29F41916F4F6CF
:102C100010928402DBCF8A3D19F497FFD7CFF8CF0B
:102C2000909185028B3D29F497FFD0CF10928502B9
:102C3000CDCF8C3D19F41916CCF3C8CF9FE2980F75
:102C4000983090F4815D990B21E030E0B90102C029
:102C5000660F771F8A95E2F7CB01809590918102EC
:102C6000892380938102B2CF8D3D31F480917F0220
:102C70008E7F80937F02AACF8E3D21F480917F02C8
:102C80008D7FF7CF8F3D09F0A1CF80917F028B7FA1
:102C9000F0CF08950E94BC1A9C019091820280910D
:102CA0008302982B21F030937C0220937B02909139
:102CB000840280918502982B21F030937A02209330
:102CC000790280E892E00E944918089586E0E0E8E1
:102CD000F2E0DF011D928A95E9F710927E021092D0
:102CE0007D0210927F020895FC01828181110EC045
:102CF000838181110BC08481811108C091E085819D
:102D0000811101C090E0892F8170089581E0FCCF8E
:102D1000A6E0B0E0EEE8F6E10C94912386E0E0E86E
:102D2000F2E0DE01119601900D928A95E1F7109282
:102D300082021092830210928402109285028B818B
:102D40009C81892B89F080917B0290917C020E946A
:102D5000D41AAC0190917E029923C9F180910A01A5
:102D60008417150608F440C08D819E81892B91F04F
:102D70008091790290917A020E94D41AAC019091CC
:102D80007D02992309F46AC0809106018417150613
:102D900008F472C0BE016F5F7F4F80E892E00E942E
:102DA0009D19811105C080E892E00E94741681117E
:102DB0000E944A1686E0FE013196A0E8B2E001903A
:102DC0000D928A95E1F72696E3E00C94AD232091CD
:102DD0000B018AE0289F900111242417350720F663
:102DE0009F5F90937E0202C09F3FD1F71B8111230A
:102DF00059F00E9400159FEF11160CF491E0899F85
:102E0000802D1124809382021C81112359F00E948D
:102E100000159FEF11160CF491E0899F802D11246D
:102E20008093830280918202882309F49DCF1091C0
:102E30008302112309F498CF0E94F214882351F0E1
:102E400080938202812F0E94F214882329F08093BC
:102E500083028ACF81E0F4CF81E0F9CF209107018E
:102E60008AE0289F900111242417350708F092CF9B
:102E70009F5F90937D0202C09F3FD1F71D81112378
:102E800059F00E943E159FEF11160CF491E0899FB6
:102E9000802D1124809384021E81112359F00E94F9
:102EA0003E159FEF11160CF491E0899F802D11249F
:102EB0008093850280918402882309F46BCF10915E
:102EC0008502112309F466CF0E94F214882351F081
:102ED00080938402812F0E94F214882329F080932A
:102EE000850258CF81E0F4CF81E0F9CF0F931F9393
:102EF000CF93DF93C42FD22FFC0185818823C9F0A3
:102F0000409388020E94BC1A9093870280938602A5
:102F100080E28C0F883040F4C77081E001C0880FD8
:102F2000CA95EAF70E947107DF91CF911F910F9127
:102F3000089510918802141332C0809186029091F6
:102F400087020E94D41A883C910548F5C0E2CD0F53
:102F50001D17B9F080E2810F883040F4177081E0CE
:102F600001C0880F1A95EAF70E947807C83048F424
:102F700081E09D2F977001C0880F9A95EAF70E9413
:102F80007107802F0E946807C83070F6D77081E003
:102F900001C0880FDA95EAF70E947807C5CF80E272
:102FA0008C0F883008F6C77081E001C0880FCA9581
:102FB000EAF7F2CF0F93DB0188519C4787309105E8
:102FC000A0F5FC01EF5AFB4D0C947C2306E221EEA8
:102FD00041EE6AE17CE7CD010E94761780E00F9117
:102FE000089507E225EE45EE6BE17CE7F4CF06E2BB
:102FF00021EE40EE68E17CE7EECF07E225EE44EEFD
:1030000069E17CE7E8CF06E221EE42EE6CE17CE785
:10301000E2CF07E225EE46EE6DE17CE7DCCF08E289
:1030200021E045EE6EE17CE7D6CF15968C918823A2
:1030300019F010928802D3CF81E0D1CF90938E0205
:1030400080938D020895E0918D02F0918E02309769
:1030500029F00190F081E02D0995089580E0089510
:10306000E0918D02F0918E02309721F00280F38181
:10307000E02D09950895E0918D02F0918E02309730
:1030800039F026E0DC012C930480F581E02D0995D0
:103090000895E0918D02F0918E02309739F022E090
:1030A000DC012C930680F781E02D09950895A3E0BB
:1030B000B0E0EDE5F8E10C94922320918B02309181
:1030C0008C0228173907A1F090938C0280938B0211
:1030D000E0918D02F0918E02309751F023E0298328
:1030E0009B838A830084F185E02DCE0101960995AA
:1030F0002396E2E00C94AE23A3E0B0E0E2E8F8E12E
:103100000C9492232091890230918A022817390762
:10311000A1F090938A0280938902E0918D02F09150
:103120008E02309751F024E029839B838A830084A8
:10313000F185E02DCE01019609952396E2E00C94ED
:10314000AE23CF93DF93C0910201D0910301229669
:103150000E94131A813081F48091980287FF0CC07D
:10316000C0910001D091010122969EE180E0915032
:1031700028F4DF91CF91089596E0F8CF299122238A
:10318000B1F38F5FF4CFCF93C82F811102C080E0DD
:1031900024C00E94131A813011F58091980287FF94
:1031A0001EC0EC2FE695E695E695EE3180F780910E
:1031B000000190910101E80FF92FF11D228130E00B
:1031C000C77081E090E002C0880F991FCA95E2F7AE
:1031D0002823392381E0232BD1F2CF9108958091C8
:1031E000020190910301FC013296089621912C175F
:1031F00021F0E817F907D1F7CACF81E0EECF9C01A3
:10320000FC0132969FEF80E04191461751F09F3FBD
:1032100019F4411101C0982F8F5F8630A9F79F3FA5
:1032200009F40895290F311D97FD3A95F90162833C
:103230000895FC01329608962191261303C0DF0100
:1032400011971C92E817F907B9F70895E62FE6954C
:10325000E695E695EE3168F4E80FF92FF11D6770F9
:1032600021E030E001C0220F6A95EAF78281822BCB
:1032700082830895E62FE695E695E695EE3170F4A3
:10328000E80FF92FF11D677021E030E001C0220F37
:103290006A95EAF720958281282322830895CF93A7
:1032A000C82F0E94131A6C2F813061F4809198020C
:1032B00087FF08C080910001909101010E942619AA
:1032C000CF91089580910201909103010E94FF180F
:1032D000F7CFCF93C82F0E94131A6C2F813061F45F
:1032E0008091980287FF08C08091000190910101B0
:1032F0000E943A19CF9108958091020190910301A3
:103300000E941919F7CF0E94131A813079F4809125
:10331000980287FF0BC0E0910001F0910101329605
:103320008EE1DF011D928A95E9F70895E09102018F
:10333000F0910301329686E0F4CFDC01FB01119697
:103340009C9111978181981322C012968C911297AB
:10335000882319F0928189131AC013968C911397C0
:10336000882319F09381891312C015968C911597B3
:10337000882319F0958189130AC014969C9199238A
:1033800021F081E02481291303C080E001C081E0A5
:103390008170089508950E94CA19089581110EC080
:1033A00081E080930F0160910C0170910D0180917B
:1033B0000E0190910F010E94CB19089582E0F1CF88
:1033C00083E080930F0160910C0170910D01809159
:1033D0000E0190910F010E94CB1908950E94CE1901
:1033E000089581E080930F0160910C0170910D01AF
:1033F00080910E0190910F010E94CB1908950E94B7
:10340000F119089591E0811101C090E090930E01AF
:1034100060910C0170910D0180910E0190910F014E
:103420000E94CB19089580910E01089580930D019B
:1034300060910C0170910D0180910E0190910F012E
:103440000E94CB19089580910D01089580930C017D
:1034500060910C0170910D0180910E0190910F010E
:103460000E94CB19089580910C0108950895089544
:103470000E94371A0895089508950E94361A0895F3
:10348000CF930E943B1A0E945F130E943C1AC0E037
:103490008C2F0E944113892B31F4CF5FC630C1F7C6
:1034A00080E0CF91089581E0FCCF85B7806885BF2B
:1034B00085B7806885BF08951F921FB61F9211249B
:1034C0008F939F93AF93BF9380918F02811113C00D
:1034D0008091B2029091B302A091B402B091B50272
:1034E0004196A11DB11D8093B2029093B302A093A7
:1034F000B402B093B502BF91AF919F918F911F908D
:103500001FBE1F9018958091BA02843031F10E943D
:10351000220610928F0288E190E020E40FB6F89422
:10352000A895809360000FBE2093600083B7817FD1
:10353000846083BF83B7816083BF7894889583B7A5
:103540008E7F83BF0FB6F894A89580916000886144
:1035500080936000109260000FBE08950E94C4091D
:103560000E942706089582E084BD93E095BD9AEFFE
:1035700097BD80936E0008952FB7F8948091B202A2
:103580009091B302A091B402B091B5022FBF0895FB
:103590002FB7F8946091B2027091B3028091B40297
:1035A0009091B5022FBF08959C014FB7F894809178
:1035B000B2029091B302A091B402B091B5024FBF94
:1035C000821B930B089578941F921FB61F921124AB
:1035D0008F939F93AF93BF938091B2029091B30268
:1035E000A091B402B091B5020196A11DB11D8093C6
:1035F000B2029093B302A093B402B093B502BF910C
:10360000AF919F918F911F901FBE1F90189587E7D4
:1036100097E7909301088093000888E19AE00FB63D
:10362000F894A895809360000FBE90936000FFCF40
:1036300088E19AE00FB6F894A895809360000FBED9
:1036400090936000FFCFEF92FF920F931F93CF9361
:10365000DF93182FEB011092BC0084EA8093BC002A
:103660000E94BC1A7C018091BC0087FF27C080911A
:10367000B900887F883029F08091B900887F803137
:1036800089F51093BB0084E88093BC000E94BC1AAB
:103690008C018091BC0087FF1EC02091B900287F5B
:1036A00090E080E0283191F081E090E0203411F446
:1036B00090E080E091958195910908C0C7010E9432
:1036C000D41AC817D90778F68EEF9FEFCDB7DEB7BB
:1036D000E6E00C94AA23C8010E94D41AC817D9079F
:1036E000C0F6F2CF8FEF9FEFF1CF1092B9008CE0D0
:1036F0008093B80008950F931F93CF93DF93EB014E
:103700008093BB0084E88093BC000E94BC1A8C01AB
:103710008091BC0087FF11C02091B900287F81E013
:1037200090E0283211F490E080E091958195910924
:10373000DF91CF911F910F910895CF3FDC0741F3A7
:10374000C8010E94D41AC817D90710F78EEF9FEF4F
:10375000EFCF0F931F93CF93DF93EC0184EC809313
:10376000BC000E94BC1A8C018091BC0087FF08C07D
:103770008091BB0090E0DF91CF911F910F91089550
:10378000CF3FDC0789F3C8010E94D41AC817D907B4
:1037900058F78EEF9FEFEFCF0F931F93CF93DF93E9
:1037A000EC0184E88093BC000E94BC1A8C018091DB
:1037B000BC0087FF08C08091BB0090E0DF91CF91F3
:1037C0001F910F910895CF3FDC0789F3C8010E9434
:1037D000D41AC817D90758F78EEF9FEFEFCFB0E094
:1037E000A0E0E5EFFBE10C948623682E762E5A01CB
:1037F00069010E94BC1A4C01C1E0D0E004311105FE
:1038000058F0C5E0D0E00F3F100731F0C80164E187
:1038100070E00E945423EB01BE01862D0E94231B01
:103820007C0197FF1DC00F3F1007B1F3C4010E9438
:10383000D41A0817190780F784E98093BC00C701E0
:10384000CDB7DEB7EEE00C94A223B80189910E94B7
:103850007B1B7C01CC16DD0679F3F7FEF6CFECCFAF
:10386000B801872D0E947B1B7C01E501CA0CDB1C83
:10387000F1CFB0E0A0E0EFE3FCE10C948623782EDA
:10388000662E6A01E9010E94BC1A5C01EE24E394F1
:10389000F12C0431110560F025E0E22EF12C0F3FF0
:1038A000100731F0C80164E170E00E9454237B01ED
:1038B000B701872D0E94231B4C0197FF23C00F3FA8
:1038C0001007B1F3C5010E94D41A0817190780F731
:1038D00084E98093BC00C4011816190614F490E022
:1038E00080E0CDB7DEB7EEE00C94A22397FCF0CFDA
:1038F000C8010E94CC1B4C0197FDEACFCC0DDD1D09
:103900008883E6CFB801862D0E947B1B4C0197FD72
:10391000DFCF689470F80E94BC1A5C01EE24E39437
:10392000F12C0431110560F085E0E82EF12C0F3FF9
:10393000100731F0C80164E170E00E9454237B015C
:10394000B701872D0E94231B4C0197FF09C00F3F31
:103950001007B1F3C5010E94D41A0817190780F7A0
:10396000F12CE12C2197EC16FD0608F0BFCF97FC57
:10397000AFCFC8010E94A91B4C0197FD04C0F601FE
:10398000EE0DFF1D80838FEFE81AF80AECCF9B0144
:10399000BA019091BA029430E9F48F708093E900F3
:1039A0009FEF8091E800915085FD06C085ED8A95D6
:1039B000F1F700009111F5CF8091E80085FF0AC072
:1039C00050E040E0C9010E94CD1E8091E8008E7752
:1039D0008093E800089543E050E0BC0182E00E943B
:1039E000C71C089546E050E0BC0182E00E94C71C5D
:1039F000089540E250E0BC0182E00E94C71C089597
:103A0000CF93DF93EC010E94131A48E050E0BE010F
:103A100081E00E94C71C88E0FE01A0E9B2E00190AD
:103A20000D928A95E1F7DF91CF9108958091B902C7
:103A3000811109C00E945D200E94BA208091E2009D
:103A400084608093E20008951092B90208950E9464
:103A5000F11981E00E94021A08956091B60281E096
:103A6000611101C080E00E94E01908959091BA02AE
:103A700081E0943009F080E06091B6020E94EE1976
:103A8000089542E061EC81E00E94D91F42E261ECBE
:103A900082E00E94D91F9091BA0281E0943009F02F
:103AA00080E06091B6020E94CE1908958091BC0218
:103AB000833009F461C030F48130D1F1823009F4EF
:103AC0009EC008958A3009F48AC08B3009F46FC013
:103AD000893009F050C08091BB02813209F04BC09F
:103AE0008091BF029091C002029708F044C080917B
:103AF000E800877F8093E8008091E80082FF37C06C
:103B00009091F3008091F200029731F48091F100DE
:103B1000813011F0863021F48091F1000E94161A54
:103B20008091E8008B778093E8000E940D2023C0ED
:103B30008091BB02813AF9F48091E800877F8093FD
:103B4000E8008091BF029091C002892B61F468E087
:103B500080E992E070E00E941C1F8091E8008B7762
:103B60008093E800089560E090E080E0F3CF8091DA
:103B7000BA028111C1CF08958091BB02813AD9F771
:103B80008091BF029091C002892BA9F78091E80033
:103B9000877F8093E8008091E80080FFFCCF0E943F
:103BA000131A8093F1008091E8008E77BCCF80914A
:103BB000BB02813201F78091BF029091C002892B34
:103BC000D1F68091E800877F8093E8000E940D2065
:103BD0008091BD020E94021A0E94C409089580913A
:103BE000BB02813241F68091E800877F8093E80034
:103BF0000E940D208091BE020E94261A0895809195
:103C0000BB02813A09F0B7CF8091E800877F8093AB
:103C1000E8008091E80080FFFCCF0E94331AC1CFFA
:103C200084B7877F84BF0FB6F894A8958091600011
:103C3000886180936000109260000FBE80E890E081
:103C40000FB6F89480936100909361000FBE0E94BC
:103C5000FF1908950E945D200E94BA20E2EEF0E074
:103C600080818460808378940E943923089580E164
:103C700091E00E941E1808958091BA02853031F4B7
:103C80008091BA02853019F00E94AE1A08950E9400
:103C9000831A0E94401A882399F38091B8028823DE
:103CA00079F30E94B71E0E94C409EACF08959A01D1
:103CB0004091C1025091C2020E945F1E0895492F97
:103CC00055274330510519F168F44130510509F485
:103CD00044C04230510509F445C090E080E050E016
:103CE00040E025C04132510549F142325105A9F762
:103CF00084E490E043E255E061157105C1F086EB84
:103D000090E04DE654E06130710589F0E6CF9927E7
:103D10008130910581F0009729F00297F1F6E4EFE8
:103D2000F3E002C0ECE1F4E0849190E0AF01F9012E
:103D3000518340830895E8E0F4E0F6CF89E090E015
:103D400042E354E06115710591F389E090E04BE4A2
:103D500054E06130710559F3C0CF82E190E04BE54A
:103D600054E0E5CF8BE390E040E254E0E0CF80E127
:103D700089BD82E189BD09B400FEFDCF8091D800E4
:103D80008F7D8093D8008091E00082608093E00076
:103D90008091E00081FDFCCF0895AF92BF92CF9259
:103DA000DF92FF920F931F93CF93DF936C01EB0190
:103DB0008A010E942C20F82E811123C001151105C3
:103DC00039F0F80180819181C81BD90BC80ED91E2A
:103DD000B12CA12C2097A9F08091E80085FD22C08C
:103DE0008091E8008E778093E80001151105A1F01D
:103DF000F80180819181A80EB91EB182A08285E070
:103E0000F82E8F2DDF91CF911F910F91FF90DF90B2
:103E1000CF90BF90AF9008950E942C208823D1F2BC
:103E2000F82EEFCFF60181916F018093F100219779
:103E3000FFEFAF1ABF0ACECFFC018091C102909173
:103E4000C20286179707A0F06115710529F49091B9
:103E5000E8009E779093E80090E06115710551F4B9
:103E6000911108C08091E80082FF34C080E008957D
:103E7000BC01F2CF8091BA028823C1F18530C1F133
:103E80008091E80083FD30C08091E80082FDEACF98
:103E90008091E80080FFE1CF8091F3002091F20053
:103EA000382F6115710519F02830310558F091E06F
:103EB0002830310509F090E02091E8002E7720931A
:103EC000E800CBCF81918093F100615071092F5FA1
:103ED0003F4FE7CF8091BA02882341F0853041F00F
:103EE0008091E80083FFBECF81E0089582E00895CD
:103EF00083E00895FC018091C1029091C20286176F
:103F00009707A0F06115710529F48091E8008E777C
:103F10008093E80090E06115710551F4911108C09B
:103F20008091E80082FF35C080E00895BC01F2CFA7
:103F30008091BA028823C9F18530C9F18091E800E7
:103F400083FD31C08091E80082FDEACF8091E800D6
:103F500080FFE1CF8091F3002091F200382F6115AE
:103F6000710519F02830310558F091E028303105FD
:103F700009F090E08091E8008E778093E800CBCF45
:103F800084918093F1003196615071092F5F3F4F0A
:103F9000E6CF8091BA02882341F0853041F08091CC
:103FA000E80083FFBDCF81E0089582E0089583E0BB
:103FB0000895982F973028F08F708093E90081E062
:103FC00008959093E900242F762F50E0981731F050
:103FD0007091EC002091ED005091F00021FD02C0A5
:103FE0009F5FE8CF3091EB003E7F3093EB00309144
:103FF000ED003D7F3093ED003091EB003160309368
:10400000EB007093EC002093ED005093F0002091B2
:10401000EE0027FDE5CF80E008958091BB0287FF89
:1040200013C08091E80082FF06C08091E8008B7782
:104030008093E80004C08091BA028111F2CF089504
:104040008091BA028823D9F38091E80080FFF8CFED
:104050008091E8008E77ECCF2091E4003091E5006C
:1040600095E6A9012091EC00822F817020FF06C007
:104070008091E80080FF06C080E008952091E8006C
:1040800022FD1AC08091BA02882389F0853089F018
:104090008091EB0085FD0FC02091E4003091E50098
:1040A00042175307F9F29150E1F684E0089582E057
:1040B000089583E0089581E008950E94CC200E9435
:1040C000D420E0EEF0E0808181608083E8EDF0E0D4
:1040D00080818F77808319BCA7EDB0E08C918E7FB3
:1040E0008C9380818F7E80831092B90208950F9304
:1040F0001F93CF93DF930E94CC200E94D420C8ED61
:10410000D0E088818F7788838881806888838881E0
:104110008F7D888319BC1092BA021092B602109259
:10412000B8021092B70200EE10E0F80180818B7F98
:10413000808388818160888342E060E080E00E9423
:10414000D91FE1EEF0E080818E7F8083E2EEF0E027
:10415000808181608083808188608083F801808194
:104160008E7F8083888180618883DF91CF911F91CA
:104170000F910895E8EDF0E080818F7E8083E7ED78
:10418000F0E080818160808384E082BF81E0809361
:10419000B9020E9477200895E8EDF0E080818E7FDB
:1041A00080831092E20008951092DA001092E100EC
:1041B00008951F920F920FB60F9211242F933F93E1
:1041C0004F935F936F937F938F939F93AF93BF931F
:1041D000EF93FF938091E10082FF0BC08091E2009A
:1041E00082FF07C08091E1008B7F8093E1000E94F5
:1041F00038238091DA0080FF19C08091D80080FFB9
:1042000015C08091DA008E7F8093DA008091D9000A
:1042100080FF96C080E189BD82E189BD09B400FEBE
:10422000FDCF81E08093BA020E94161D8091E100CB
:1042300080FF19C08091E20080FF15C08091E200EC
:104240008E7F8093E2008091E20080618093E200A3
:104250008091D80080628093D80019BC85E080935B
:10426000BA020E942D1D8091E10084FF2BC0809135
:10427000E20084FF27C080E189BD82E189BD89B564
:10428000982F917080FFFBCF8091D8008F7D809315
:10429000D8008091E1008F7E8093E1008091E20060
:1042A0008F7E8093E2008091E20081608093E20043
:1042B0008091B602882309F449C084E08093BA0251
:1042C0000E94361D8091E10083FF29C08091E200A9
:1042D00083FF25C08091E100877F8093E10082E029
:1042E0008093BA021092B6028091E1008E7F809393
:1042F000E1008091E2008E7F8093E2008091E200F5
:1043000080618093E20042E060E080E00E94D91F7B
:104310008091F00088608093F0000E94271DFF913B
:10432000EF91BF91AF919F918F917F916F915F912D
:104330004F913F912F910F900FBE0F901F901895A6
:1043400019BC1092BA020E94241D70CF8091E30024
:1043500087FD93E09093BA02B3CF1F920F920FB6EE
:104360000F9211242F933F934F935F936F937F93FB
:104370008F939F93AF93BF93CF93DF93EF93FF936D
:10438000D091E900DF708091EC00C82FC17080FDF2
:10439000C0E81092E9008091F000877F8093F000E0
:1043A00078940E94F1211092E9008091F0008860D9
:1043B0008093F000CD2BCF70C093E900FF91EF9177
:1043C000DF91CF91BF91AF919F918F917F916F912D
:1043D0005F914F913F912F910F900FBE0F901F90C3
:1043E0001895AAE2B0E0E7EFF1E20C9491238BEB91
:1043F00092E02091F100FC012193CF01F2E0833C97
:104400009F07B9F70E94561D8091E80083FF1EC1E7
:104410008091BB029091BC029A3008F017C1E92F3D
:10442000F0E0E85AFB4D0C947C23803899F08238F8
:1044300009F00CC18091BF028F70873008F006C16F
:104440008093E9008091EB0085FB882780F910922A
:10445000E90006C08091B7029091B8029111826084
:104460009091E800977F9093E8008093F10010927C
:10447000F1008091E8008E77E5C0882309F4D3C06D
:10448000823009F0E3C08091BD028111D6C08091D5
:10449000BF028F702FEF280F263008F0D7C080930F
:1044A000E9002091EB0020FFC8C0933031F48091E7
:1044B000EB0080628093EB00C0C09091EB009061B4
:1044C0009093EB0021E030E001C0220F8A95EAF7DB
:1044D0002093EA001092EA008091EB008860EACF16
:1044E0008111B4C01091BD021F778091E3008078E4
:1044F000812B8093E3008091E800877F8093E80020
:104500000E940D208091E80080FFFCCF8091E300A5
:1045100080688093E30082E0111183E08093BA0207
:1045200095C08058823008F091C08091BD02909172
:10453000BE028C3D23E09207A1F583E08A838AE2E4
:1045400089834FB7F894DE01139620E03EE051E2F4
:10455000E32FF0E050935700E49120FF03C0E29571
:10456000EF703F5FEF708E2F90E0EA30C0F0C7969B
:104570008D939D932F5F243159F74FBF8091E800B1
:10458000877F8093E8006AE270E0CE0101960E9486
:104590001C1F8091E8008B778093E80057C0C0967D
:1045A000E7CF6091BF027091C002AE014F5F5F4FD5
:1045B0000E94571EBC01892B09F448C09091E80065
:1045C000977F9093E80089819A810E947A1FE1CFBA
:1045D0008038E1F58091E800877F8093E800809142
:1045E000B6028093F10045CF811130C09091BD0299
:1045F000923060F58091E800877F8093E800909387
:10460000B6020E940D208091B602882311F084E04A
:1046100005C08091E30087FDFACF81E08093BA0264
:104620000E94411D13C08091BD02813079F481E068
:10463000933009F080E08093B8021092E9008091F5
:10464000E800877F8093E8000E940D208091E800B9
:1046500083FF0AC08091E800877F8093E800809103
:10466000EB0080628093EB00AA96E3E00C94AD230C
:104670000895CF938091BA028823A1F0C091E900F8
:10468000CF709091EC00892F817090FD80E8C82B4D
:104690001092E9008091E80083FD0E94F121CF7023
:1046A000C093E900CF910895AA1BBB1B51E107C03D
:1046B000AA1FBB1FA617B70710F0A61BB70B881FB2
:1046C000991F5A95A9F780959095BC01CD01089541
:1046D00097FB072E16F4009407D077FD09D00E94AF
:1046E000542307FC05D03EF4909581959F4F089583
:1046F000709561957F4F0895EE0FFF1F0590F4911F
:10470000E02D09942F923F924F925F926F927F9289
:104710008F929F92AF92BF92CF92DF92EF92FF92D1
:104720000F931F93CF93DF93CDB7DEB7CA1BDB0B7D
:104730000FB6F894DEBF0FBECDBF09942A88398822
:1047400048885F846E847D848C849B84AA84B98429
:10475000C884DF80EE80FD800C811B81AA81B98135
:10476000CE0FD11D0FB6F894DEBF0FBECDBFED0149
:104770000895FB01DC0104C08D910190801921F4A2
:1047800041505040C8F7881B990B0895FB01DC018C
:1047900002C001900D9241505040D8F70895F99908
:1047A000FECF92BD81BDF89A992780B50895A8E102
:1047B000B0E042E050E00C941324DC01A40FB51FDC
:1047C0004150504048F0CB01840F951F2E910E941C
:1047D000EE2341505040D0F70895262FF999FECF8F
:1047E00092BD81BDF89A019700B4021639F01FBA44
:1047F00020BD0FB6F894FA9AF99A0FBE0895039661
:10480000272F0E94EE230E94ED23252F0E94EE23E6
:10481000242F0C94EE230196272F0E94EE230C9454
:10482000ED23DC01CB01FC01F999FECF06C0F2BDFE
:10483000E1BDF89A319600B40D9241505040B8F75E
:104840000895F894FFCFC007C00710081008750836
:104850009108EF07EF0796080709160916096E1465
:10486000E2147614401444147A1448147E148A1402
:104870005414DB1458148E145C149214BA1460147B
:104880009614C11466149C14A4144C14821450146D
:1048900086146A14A014B014CA14D9143A147214E9
:1048A000E914F717FD17E617F117031809180F1881
:1048B00015223D2226233D222623702291222623E3
:0448C000E822F422D4
:1048C40034025402280850011E0A14010000010099
:1048D400231A001DF91CF21CEB1CE200E900EA009B
:1048E400B500B600B700CD008301CC008A01920167
:1048F40094012102230224022502260227022A020D
:10490400B300B4006F0070009F01CB019F02A002AE
:10491400818283E200E900EA00B500B600B700CD69
:10492400008301CC008A0192019401210223022414
:10493400022502260227022A02B300B4006F007087
:0C494400009F01CB019F02A00281828332
:00000001FF
