:100000000C94D1020C94EE020C94EE020C94EE02CD
:100010000C94EE020C94EE020C94EE020C94EE02A0
:100020000C94EE020C94EE020C94D6230C94A924AA
:100030000C94401D0C94EE020C94EE020C94EE0213
:100040000C94EE020C94EE020C94EE020C94EE0270
:100050000C94EE020C94C71D0C94EE020C94EE026C
:100060000C94EE020C94EE020C94EE020C94EE0250
:100070000C94EE020C94EE020C94EE020C94EE0240
:100080000C94EE020C94EE020C94EE020C94EE0230
:100090000C94EE020C94EE020C94EE020C94EE0220
:1000A0000C94EE020C94EE020C94EE026B746563F9
:1000B0002F6572676F646F6E652F6572676F646F0F
:1000C0006E655246204020302E32372E31332D338C
:1000D0002D673664306535372D6469727479001088
:1000E00057005701570257035704571D014F00058A
:1000F00057065707570857095761524C0014001A02
:10010000000A570B571700500050001C0018000C35
:10011000001200130031002B00040016000C570DD4
:10012000570A00000000000B000D000E000F003306
:10013000423428E1001D211B000E570F5705002DEA
:10014000002E0011001000360037003800E50035A1
:1001500041E342E10450004F0000000000000000B5
:1001600000520051002F003000C15200004D00E14C
:10017000002C004A00E000E2002B0021524B002836
:10018000002A004E000000407E3A003B003C003D4B
:10019000003E00010001003F0040004100420043DA
:1001A00000440001001E021F022F02300231020132
:1001B0000001005200240025002600250245000110
:1001C0000020022102260227023500000000005113
:1001D000002100220023002E020100010022022340
:1001E000022F00300035020100010024021E001F12
:1001F00000200031000100037C010001000100012A
:100200000000000000000000000100370027002E61
:100210000003520000010001000100010001000183
:1002200000010001000100010001000100000001C7
:1002300000DD00DE00DF000100010001000100011F
:1002400000010001003C023C00010001000100012E
:1002500000CD000100D90001004C020100010001A5
:100260000001000100010001000100CF00CE00D01C
:1002700000DA00000000000100010001000100019F
:1002800000AE00E1000100010001000100010001D9
:10029000003813010001000100AC00AB00010001B7
:1002A0000001000100D100D20000000000000000A9
:1002B00000A900AA00A8000100010000000100D26E
:1002C00000D100010001000100010001000100B6A1
:1002D00000B7000100000029001E001F00200021BF
:1002E0000022002300000023002400250026002710
:1002F0000000522B00170014001A000800150037E8
:100300000000001C0018000C00120013003100E176
:10031000000A000400160007000900000000000B9E
:10032000000D000E000F0033000000E1001D001B57
:100330000006001900050036004C001100100052A4
:1003400000370038000000E0000000E20050004FDD
:10035000000000000000000000500051004F0000AD
:1003600000000000000000E1002C00000000000080
:100370000000000000000028002A00E30000000048
:10038000000000000000002A2B28000000000000F0
:100390000000000000000000000029000000002C08
:1003A0001E3420212224342627252E362D373827A7
:1003B0001E1F202122232425263333362E37381FB3
:1003C0000405060708090A0B0C0D0E0F1011121375
:1003D0001415161718191A1B1C1D2F3130232D3513
:1003E0000405060708090A0B0C0D0E0F1011121355
:1003F0001415161718191A1B1C1D2F3130354C00F7
:1004000000000000000000000000000000000000EC
:1004100000000000000000000000000000000000DC
:100420000000007E0F00D4FFFFFFC700000078121D
:10043000034500720067006F0064006F006E006586
:1004400000000012034B002E0054002E0045002E29
:100450000043002E0000000403090409023B0002CF
:100460000100A0FA090400000103010100092111A3
:10047000010001224400070581030800010904016D
:1004800000010300000009211101000122B600074C
:100490000582032000011201000200000008091279
:1004A000282301000102000105010902A1018502C2
:1004B0000901A10005091901290815002501950860
:1004C000750181020501093009311581257F9502E9
:1004D0007508810609381581257F95017508810603
:1004E000050C0A38021581257F950175088106C023
:1004F000C005010980A101850319012AB700150172
:1005000026B700950175108100C0050C0901A101F5
:10051000850419012AA002150126A0029501751073
:100520008100C005010906A1018506050719E0291A
:10053000E7150025019508750181020507190029B5
:10054000EF1500250195F0750181020508190129B3
:1005500005950575019102950175039101C005018D
:100560000906A101050719E029E7150025019508ED
:10057000750181029501750881010507190029FFA0
:10058000150026FF00950675088100050819012948
:1005900005150025019505750191029501750391D9
:1005A00001C011241FBECFEFDAE0DEBFCDBF12E0E5
:1005B000A0E0B1E0E0EFFEE402C005900D92AA3D9C
:1005C000B107D9F724E0AAEDB2E001C01D92A53130
:1005D000B207E1F70E948A140C9424270C940000BF
:1005E0008091DC0281110EC00E945C1E2FEF83ED12
:1005F00090E3215080409040E1F700C0000081E08E
:100600008093DC020895A2E0B0E0E9E0F3E00C940E
:1006100092264983F82EFF0C81E09DE0611102C013
:1006200080E09CE09A8304E610E021E030E0AE0137
:100630004F5F5F4F682F8F2D0E94DC1E892B69F45E
:1006400021E030E0AE014F5F5F4F6A818F2D0E9445
:10065000DC1E9C0181E0232B09F080E02296E5E07E
:100660000C94AE260F931F93880F611579F063E108
:1006700004E610E021E030E00E942E1F9C0181E0A2
:10068000232B09F080E01F910F91089562E1F0CFD4
:100690008091DF0281110CC04FEF61E080E20E9487
:1006A000030391E098278091DF02890F8093DF0296
:1006B0000895CF934FEF60E080E20E940303C1E012
:1006C000982F9C278091DF02890F8093DF024FEFE4
:1006D00061E080E20E940303982F9C278091DF0253
:1006E000890F8093DF02CF91089580E20E94F0028B
:1006F0002198299822982A9884988C9885988D9882
:1007000086988E9887988F9829982A988C988D9893
:100710008E988F980E9448036E98769A52985A9AAB
:1007200053985B9A54985C9A57985F9A3E98469A69
:1007300024982C9A0E94590308952F924F926F92F9
:100740007F928F929F92AF92BF92CF92DF92EF9261
:10075000FF920F931F93CF93DF930F92CDB7DEB726
:100760007C018091DF02811571F02091DD023091D2
:10077000DE022F5F3F4F211580E2380768F4309387
:10078000DE022093DD023701CC24C394D12C10E08B
:10079000412C22242A940CC01092DE021092DD0219
:1007A0001092DF020E9448030E945903ECCF102FE1
:1007B000F301819091903F01129212927F011330C8
:1007C00009F4C2C008F0B5C0113009F4B7C0123046
:1007D00009F4B7C0849A8C9801E0010F8091DF0280
:1007E000811509F4B7C08FE891E00197F1F700C0D7
:1007F00000008091DF02A12CB12C81111EC0298242
:10080000AE014F5F5F4F60E080E20E94320391E0F3
:1008100098278091DF02890F8093DF02898180957C
:100820000E94FF06982F96959C778370892BB82E8F
:10083000B694A82EA794AA24A79469B1E9B189B166
:1008400056B149B12CB1E2FBEE27E0F931E0E327E4
:1008500090E2E902F001112463FB662760F9632747
:1008600090E46902B00111246E2B7F2B99271C990B
:1008700093959327692B829581708327E0E18E02FF
:10088000C0011124862B972B56FB552750F953276F
:10089000F8E05F9FB0011124862B972B042E000CEB
:1008A000550B4095509557FB4427552742F9842B0B
:1008B000952B26FB222720F92327022E000C330B31
:1008C000220F331F822B932B8A299B29F7019183B7
:1008D0008083133009F460C008F050C0113009F46F
:1008E00053C0123009F454C084988C988C9881E0DD
:1008F000F701208131812815390509F480E0482A63
:10090000FFEFCF1ADF0A063009F051CF842D0F9088
:10091000DF91CF911F910F91FF90EF90DF90CF90DB
:10092000BF90AF909F908F907F906F904F902F903F
:100930000895143061F4219A29984ECF859A8D98A4
:100940004BCF869A8E9848CF879A8F9845CF229A18
:100950002A9842CF41E050E00C2C01C0440F0A9489
:10096000EAF7409561E080E20E94030391E0982756
:100970008091DF02890F8093DF023BCF143081F436
:10098000219829982998B3CF85988D988D98AFCFC5
:1009900086988E988E98ABCF87988F988F98A7CF90
:1009A00022982A982A98A3CF259A2D980895269AB6
:1009B0002E980895239A2B980895559A5D9A089534
:1009C0000E94D4040E94D7040E94DA040E94DD042D
:1009D000559A5D982FEF80E792E02150804090403B
:1009E000E1F700C00000259A2D9A2FEF80E792E0F2
:1009F000215080409040E1F700C00000269A2E9AD6
:100A00002FEF80E792E0215080409040E1F700C056
:100A10000000239A2B9A2FEF80E792E0215080402C
:100A20009040E1F700C000000E94D4042FEF80E75F
:100A300092E0215080409040E1F700C000000E9409
:100A4000D7042FEF80E792E0215080409040E1F7FB
:100A500000C000000E94DA042FEF80E792E02150EE
:100A600080409040E1F700C000000E94DD040E9439
:100A7000D4040E94D7040E94DA040E94DD040E947C
:100A80002A110895FB0180349E4759F48581811114
:100A900002C080E0089560E08CEA90E00E94DA18DD
:100AA000F8CF81E00895089508958430B8F4663051
:100AB000A8F44E3098F4E42FF0E09EE0699FE00D3A
:100AC000F11D112494E5899FE00DF11D1124EE0F15
:100AD000FF1FE152FF4F85919491089581E090E0CE
:100AE00008950E945505089581E190E008958131AF
:100AF000910540F424E0880F991F2A95E1F7805072
:100B00009F4F089580E090E008959C019A9581158B
:100B10009F4118F5F32FF270EE27832F8170732F0A
:100B200074706627532F5870442734FF0CC0829589
:100B3000807FEF2B09F08062672B09F08064452BE2
:100B400069F080680895EF2B09F08260672B09F047
:100B50008460452B19F08860089580E00895CF9354
:100B6000DF93EB010E948505FE010995DF91CF918E
:100B70000895CF93DF93EC01805E9109089720F0F0
:100B80006EE77AE0209711F46DE378E0CE010E94E1
:100B9000AF058C2F0E949F07DF91CF910895CF93CF
:100BA000DF93EC010E94E707CE01805E9109089770
:100BB00020F065E87AE0209711F464E478E0CE0153
:100BC0000E94AF05DF91CF91089581E008950E94C2
:100BD000E505089581E008950E944205089508956D
:100BE0000E94EF050895A6E0B0E0E9EFF5E00C946F
:100BF000942649835A839E833091E50289819A81A4
:100C000031111AC03E81311599F0211589F00E94E9
:100C1000FA0B182F682F89819A810E94D60B69815F
:100C20007A81812F0E94F7122696E3E00C94B02679
:100C30000E94E80B182FF3CF0E94FA0B69817A818A
:100C4000F1CFFC01262F4081518162817381848123
:100C500095810E94F3050895CF93DF93D82FC92F74
:100C600061E00E9421066D2F7C2F0E94E705DF9135
:100C7000CF910895CF93DF93D82FC92F60E00E94C2
:100C800021066D2F7C2F0E94F005DF91CF910895F2
:100C900021E030E0A90102C0440F551F8A95E2F718
:100CA000CA010E94F80A0895CF93C82F81E090E00E
:100CB0000C2E02C0880F991F0A94E2F70E945D1063
:100CC0008C2F0E944806CF91089581E008950E94DC
:100CD00065060895CF93C82F0E94A20A8C2F0E9408
:100CE00067062FEF84E39CE0215080409040E1F7BD
:100CF00000C00000CF91089581E00E946A060E9422
:100D0000EB1D089580E00E946A060E94FC1D089574
:100D10000F931F93CF93DF938C0161E00E94210614
:100D2000EC01B8010E944C1A811529F061E0C8015C
:100D30000E942106EC01B801CE010E94EC0581154C
:100D400009F442C0B801CE010E94761A8115E1F182
:100D5000B801CE010E94A1198115B1F1B801CE01EF
:100D60000E94F014811581F1B801CE010E94C514D2
:100D7000811551F1B801CE010E94FA13811521F1BC
:100D8000F8018581811581F0CA35FCE7DF0739F16B
:100D900078F4C130ECE7DE07F9F0C330FCE7DF0799
:100DA000C9F0C115DC4771F0C8010E94EA050DC009
:100DB000CB35ECE7DE07B1F0CC35DC47A9F70E9474
:100DC0002F10F2CF0E947C0680E0DF91CF911F911F
:100DD0000F9108950E9440100E948206F5CF0E9454
:100DE0003810E2CF0E943C10DFCF0E941C1D0E94F1
:100DF0003A0708950E943E070E94211D089582959A
:100E0000982F990F990F9C7C869586958373982BC4
:100E1000892F880F8A7A96959575892B089581E098
:100E2000089580FF08C02D9A81FF07C02E9A82FF87
:100E300006C02B9A08952D98F7CF2E98F8CF2B98AF
:100E40000895CF93DF93D82F0E940F07C82F8115E5
:100E500019F08D2F0E9411078C2FDF91CF910895EB
:100E6000259A2D98269A2E98239A2B9808950E94B9
:100E70002107089580E00E94370708950E94041B0F
:100E80000E9437070895CF930E94041BC82F8091BA
:100E9000E0028C1779F0C093E0020E94AC1D6093D1
:100EA000E1027093E2028093E3029093E4028C2FBC
:100EB0000E943707CF910895ADE0B0E0E2E6F7E099
:100EC0000C949526488759876A877B878C879D87EE
:100ED00091110E94380F1F8286E0FE013896DE01D4
:100EE000119601900D928A95E1F78D8181110DC0C7
:100EF00029813A814B815C816D817E818F810E9445
:100F00007F0E2D96E2E00C94B126CE0101960E9450
:100F10002C068111EDCFF5CFFC018481813021F4C5
:100F2000808191810E942C0C0895611529F00E9406
:100F300056160E94171708950E949F16FACFCF9356
:100F4000C82F811599F08CEF8C0F813A88F48C2F83
:100F50000E94A81B811529F08C2F0E94511C0E9411
:100F6000D10F8C2F0E94371C0E94D10FCF91089572
:100F700080E28C0F883048F4C77081E001C0880F90
:100F8000CA95EAF70E94160FEFCF8BE58C0F8330DE
:100F900038F42C2F2452330BC9010E943A1BE6CFA0
:100FA000E8E5EC0FEB3150F4F0E0EE0FFF1FE259F3
:100FB000FD4F808191810E94601BD8CF83E38C0F0D
:100FC0008331A0F661E08C2F0E949507CFCF811569
:100FD00081F19CEF980F913A28F40E94511C0E94D5
:100FE000D10F089590E2980F983050F4877091E0F7
:100FF00001C0990F8A95EAF7892F0E941C0FEFCF45
:101000009BE5980F933028F480E090E00E943A1B13
:10101000089598E5980F9B3128F480E090E00E94B5
:10102000601B089593E3980F933118F460E00E94D9
:10103000950708950F931F93CF93C82F8B010E949C
:101040009F070115110539F48C2F0E94E707CF91F6
:101050001F910F9108958FE99FE00197F1F700C06C
:10106000000001501109EDCF60E570E0893311F007
:1010700060E070E00E941A080895811521F00E9436
:10108000160F0E94D10F0895811521F00E941C0FA8
:101090000E94D10F0895A0E0B0E0E1E5F8E00C94E3
:1010A0008F266C01D62FC72FFC0115810681029572
:1010B0000F700E940B0FE82E8115F9F0E12E11152B
:1010C000E1F08C2F807F803461F080E28D0F8830DA
:1010D000F0F08C2F807E803221F4D230C0F00115E8
:1010E000B1F08091EB0382FF12C082E00E940210F7
:1010F0000E940B0F91E0E82EE926EC2FE295EF70AD
:10110000C03CB0F5F0E0EA5DF84D0C947F26E12C90
:10111000F4CF0C2F0F70C03110F00295007F111525
:1011200099F0011559F080E28D0F883010F0D1113F
:1011300007C0802F0E94160F0E94D10F8D2F51C023
:10114000802F0E942A0FF8CF8D2F0E94E7070115EC
:1011500079F080E28D0F883010F0D11104C0802F1B
:101160000E941C0F03C0802F0E94300F0E94D10FDD
:10117000E11489F00E94070F80FD0DC0F601158271
:101180000E94010F0E94340BC6010E945B0A0E945C
:10119000010F0E94440BCDB7DEB7E8E00C94AB26FC
:1011A000FC2FFF70FF2EC07FC03219F0F29480EF49
:1011B000F822D11541F0D130D1F1111509F444C014
:1011C0000115F1F0BBCF8091EB0382FD15C0111525
:1011D00059F0F11429F08F2D0E94160F0E94D10FA3
:1011E00080E00E949F07C4CF80E00E94E707F114CF
:1011F00009F4BECF8F2DB4CF111569F0011104C0D1
:101200008F2D0E943D08B4CF013009F0B1CF8F2D52
:101210000E94530FADCF0111ABCF8F2D0E94440818
:101220008F2D0E945F0F8F2D0E94420FA1CF1115AD
:1012300021F0063008F09CCFE3CF053008F098CFBE
:101240008F2D0E94440894CF0115D1F3D93349F46E
:101250002FEF87EE93E0215080409040E1F700C0EF
:1012600000008D2F0E94E70783CF8C2F86958695EF
:101270008370811569F0813009F07ACF8D2F9C2F12
:101280009370111102C080E090E00E94601B70CF4B
:101290008D2F9C2F9370111102C080E090E00E946E
:1012A0003A1B66CF612F8D2F0E94950761CF8C2F3F
:1012B0008370811139C0111129C04D2F4295469577
:1012C0004770440F440F2D2F2F7030E0042E02C0C2
:1012D000220F331F0A94E2F780E090E0D4FF09C0A8
:1012E0008FE090E002C0880F991F4A95E2F7809541
:1012F0009095C695C695C370822B932BC23071F022
:10130000C33079F0C13039F00E94040B0E94041BF5
:101310000E9437072DCF0E94FB0AF8CF0E940D0BC9
:10132000F5CF0E94F80AF2CF111561F1C0FFEECFA0
:101330004D2F429546954770440F440F2D2F2F7027
:1013400030E0042E02C0220F331F0A94E2F780E03F
:1013500090E0D4FF09C08FE090E002C0880F991F91
:101360004A95E2F780959095C695C695C370822BF5
:10137000932BC23069F0C33071F0C13031F00E945C
:101380006F0BC4CF823010F2D3CF0E94660BBECF5A
:101390000E94780BBBCF0E941C0BB8CFCF701115E9
:1013A00039F08C2F0E94340B8D2F0E943D08AECF58
:1013B0008D2F0E9444088C2F0E94440BA7CFD23F50
:1013C00041F170F4D03FC9F0D13F91F0111509F40B
:1013D00046C0011509F440C08D2F0E949F0796CF8B
:1013E000D33FF1F0D43F91F78091EB0382FD22C00F
:1013F0008C2F8F71111501F310C0111541F00530BC
:1014000008F084CF8C2F8F710E94560B7FCF06304F
:10141000F7CF8C2F8F711111CFCF0E94340B76CF65
:10142000111529F08C2F8F710E94280B6FCF0E940D
:10143000230B6CCF111531F063E08C2F8F710E945C
:10144000E30F64CF81E00E940210023008F45ECF07
:1014500082E00E9402105ACF8C2F8F71DECF0115CF
:1014600079F0D93349F4EFEFF7EE23E0E150F040A3
:101470002040E1F700C000008D2F0E94E70746CF13
:101480008C2F8F7199CF0F931F93CF93DF93EC0124
:10149000688179818D810E94390C8C010E94810BB9
:1014A0000E94F70AB801CE010E944B08DF91CF914C
:1014B0001F910F910895CF93DF93EC018C818115DB
:1014C00099F0CE010E948806811111C00E940B0F75
:1014D000811551F08D81811539F08091EB0382FFE8
:1014E00003C082E00E940210DF91CF910895CE01E7
:1014F0000E94430ACE010E943A06F6CF811521F0E0
:101500000E942A0F0E94D10F0895811521F00E9498
:10151000300F0E94D10F089580E090E00E943A1BA6
:1015200080E090E00E94601B0E94380F0E94D10F63
:101530000E9434170E94171708950E946B1C0E9486
:101540008C0A08950E94240F0E949D0A0895282F56
:1015500092959F70963099F060F4925F9F709230F0
:1015600030F4203FB1F038F481E0283E38F080E0DC
:1015700008959A5FF3CF81E0243FC9F7089591E081
:10158000813F09F090E081E0283E08F080E0892B5F
:10159000089581E00895FC018481811539F08081EE
:1015A00091810E942C0C0E94A70A089580E0089562
:1015B000A6E0B0E0EEEDFAE00C9495262696E2E087
:1015C0000C94B126A7E0B0E0E8EEFAE00C94952682
:1015D0002796E2E00C94B12608950E94EC0A089543
:1015E0000E94ED0A909315038093140308950895C3
:1015F0000E94F00A08952091140330911503822B64
:10160000932B0E94F00A0895209114033091150342
:10161000822393230E94F00A0895209114033091AD
:101620001503822793270E94F00A08950E94EC0A6E
:1016300008950E94160B08950E94190B90931303AE
:1016400080931203089580E090E00E941C0B08959F
:1016500021E030E0A90102C0440F551F8A95E2F74E
:10166000CA010E941C0B089521E030E002C0220F45
:10167000331F8A95E2F78091120390911303822B16
:10168000932B0E941C0B089521E030E002C0220F32
:10169000331F8A95E2F7209530958091120390913F
:1016A0001303822393230E941C0B089521E030E052
:1016B00002C0220F331F8A95E2F7809112039091A6
:1016C0001303822793270E941C0B08952091120375
:1016D00030911303822B932B0E941C0B08952091B1
:1016E000120330911303822393230E941C0B08954D
:1016F0002091120330911303822793270E941C0B21
:10170000089508959B01677091E001C0990F6A9553
:10171000EAF763E0369527956A95E1F7220F331FC4
:10172000220F331FFA01E20FF31F40E050E0682F51
:1017300070E08191DF019B01042E02C03695279550
:101740000A94E2F7217021952827292328272E9330
:101750004F5F5F4F4430510561F708959C01982F0A
:10176000977083E0369527958A95E1F7220F331F0E
:10177000220F331FFB01E20FF31F40E050E080E037
:10178000219130E0092E02C0369527950A94E2F7A0
:1017900021703327042E01C0220F0A94EAF7822B0E
:1017A0004F5F5F4F4430510559F70895282F862F1A
:1017B000963068F42E3058F4622F70E02EE0929F3D
:1017C000600D711D112446EE52E00E94820B0895B7
:1017D000292F963068F48E3058F490E066EE72E06F
:1017E0003EE0239F800D911D11240E94AE0B0895B1
:1017F00080E00895A0E0B0E0E0E0FCE00C948E26EC
:101800008C01E0901203F0901303809114039091E7
:101810001503E82AF92ACFE0D0E0CC24C394D12CD8
:10182000C6010C2E02C0880F991F0A94E2F78E2180
:101830009F21892B49F4219798F7B12C8B2DCDB797
:10184000DEB7E9E00C94AA26BC2EB8018C2F0E94CA
:101850000313019781F3F2CFCF93DF93D82FC92FD2
:101860000E94FA0B6D2F7C2F0E940313DF91CF9102
:1018700008951F93CF93DF93162FD72F9091E502F2
:10188000911541F0862F972F0E942C0CDF91CF915C
:101890001F910895811581F0862F972F0E94FA0BD2
:1018A000C82F682F812F9D2F0E94D60B612F7D2F6F
:1018B0008C2F0E940313EACF862F972F0E94E80BEC
:1018C000C82FF4CF0F931F93CF93E0911603C7E077
:1018D000809117038E1304C0CF911F910F9108952B
:1018E0000E2F10E0CE9FF0011124E85EFC4F208106
:1018F0003181428153816481758186810E94E20A2F
:10190000F8013196E770E4CF2091500330915103F4
:1019100040915203509153036091540370915503C9
:10192000809156030E94E20A089580915603803107
:1019300078F480915503811559F0E09116032091B8
:101940001703309151034091500357E02E1301C00B
:1019500008956E2F70E05E9FF0011124DF01A85EF4
:10196000BC4F14968C911497811561F111968C914E
:101970001197831327C08C91841324C015968C91E2
:10198000159781111FC012968D919C91A0915203C1
:10199000B09153038A1B9B0B8F3A910598F4809169
:1019A00056038F70806180935603E25EFC4F808106
:1019B0008F708061808380E593E00E945B0A0E94C3
:1019C000620C0895FB013196E770C0CFE0911603D9
:1019D0009091170327E0E91302C080E00895AE2F2D
:1019E000B0E02E9FF0011124E85EFC4F31813613E8
:1019F00006C03081381303C03581341304C0FD01A3
:101A00003196E770E8CF81E008958F929F92AF9270
:101A1000BF92DF92EF92FF920F931F93CF93DF93CA
:101A2000CDB7DEB72D970FB6F894DEBF0FBECDBF92
:101A30008C0186E0F801DE01189601900D928A95DE
:101A4000E1F7F801F580848190E5892E93E0992EE5
:101A50009091540391111BC0811509F4FFC0F1143A
:101A600009F440C1C8010E94CB0A811509F43AC1AA
:101A700087E0F801D40101900D928A95E1F7C40145
:101A80000E948C070E94950C0E94840CE7C0E080A5
:101A9000A280B380D090550320915203309153031C
:101AA000A501421B530BD11409F4DBC04F3A510579
:101AB00008F0A6C0811509F4D1C09091510391801E
:101AC00080915603803108F06BC0991228C0909124
:101AD00050039E1124C0F1105DC08F70806180930F
:101AE00056030E94840C80E593E00E945B0A80917B
:101AF0005603F8018683F12C8F2D2D960FB6F8949E
:101B0000DEBF0FBECDBFDF91CF911F910F91FF9030
:101B1000EF90DF90BF90AF909F908F900895F1105D
:101B200039C040E0692D8E2D0E94E60C40E0692D01
:101B30008E2D0E94E60CF82E8111DDCF88859985C7
:101B40000E942C0C292F22952F70903450F49F70F6
:101B5000223080F0911599F0F8019681903178F457
:101B6000CBCF2A5F2F70223078F0C8010E945B0A29
:101B7000FD2CC2CF911519F0811509F4BDCF805EFF
:101B8000883008F4B9CFF1CF803F08F4B5CF815F3A
:101B90008330F7CF80915603816080935603ABCF9B
:101BA000991207C0909150039E1103C0F11409F4DB
:101BB00079C0C8010E94CB0A811509F493C0F114C1
:101BC00009F490C080915603803288F02091500330
:101BD000309151033A832983BC82AB8290915403A4
:101BE0009D831E828F83CE0101960E945B0A87E04F
:101BF000F801A0E5B3E001900D928A95E1F742CF9C
:101C0000909156039031A0F4488559856A857B856B
:101C10008C859D850E94D80A80E593E00E945B0A2E
:101C200087E0F40111928A95E9F70E94840C63CF52
:101C30008115A1F02091510381812813BACF8091A1
:101C400050038E11B6CFF110B4CF9683C8010E9415
:101C50005B0A87E0F40111928A95E9F7FF24F39477
:101C60004BCF4F3A510508F041C08115B9F3F1143B
:101C7000C9F190915103818198132AC0809150033A
:101C80008E1126C08091560380FD19C08031B8F0B6
:101C90008683807F803F39F08681982F907F905F88
:101CA0008F70892B8683C8010E945B0A87E0F80148
:101CB000A0E5B3E001900D928A95E1F7E5CE87E0CB
:101CC000F801A0E5B3E001900D928A95E1F7C6CF47
:101CD000C8010E94CB0A81118ACF8091560381608E
:101CE00080935603C8010E945B0AB8CF4885598586
:101CF0006A857B858C859D850E94D80A91CFAEE050
:101D0000B0E0E5E8FEE00C949426288739874A87FE
:101D10005B876C877D878E87CE0108960E94050DB4
:101D20006C858115A9F0611541F0288539854A85B2
:101D30005B857D858E850E94E20A17E080911603FF
:101D40009091170389133AC02E96E3E00C94B026C5
:101D500087E0FE013896DE01119601900D928A957A
:101D6000E1F7611551F3A09117038A2F90E00196D6
:101D700087709927209116032817190689F097E094
:101D80009A9FD0011124A85EBC4FFE0131960190AC
:101D90000D929A95E1F7809317030E94620CCDCFC4
:101DA0000E94A20A109217031092160387E0E0E542
:101DB000F3E0DF011D928A95E9F7BFCF189FC001BC
:101DC0001124885E9C4F0E94050D811509F4BCCF3B
:101DD000E09116031E9FF0011124E85EFC4F208164
:101DE0003181428153816481758186810E94E20A3A
:101DF0008091160390E001968770992780931603CF
:101E00009DCF80917F0386958695869508958091D4
:101E10007F038770089590917F03977081E09111FF
:101E200001C080E008958091AB0308959091AB03C9
:101E3000982B9093AB030895982F90958091AB03C6
:101E400089238093AB0308951092AB03089580918A
:101E5000AA0308959091AA03982B9093AA0308953A
:101E6000982F90958091AA0389238093AA030895BF
:101E70001092AA03089580918103089508950E9405
:101E80003E0F089590918003292F2823211531F0CA
:101E900080958923809380030E943F0F08950895C1
:101EA0000E944F0F089590918103292F282328170E
:101EB00029F0982B909381030E94500F08959091E0
:101EC0008103292F2823211531F0809589238093C0
:101ED00081030E94500F089580918103811529F09C
:101EE0001092810380E00E94500F0895CF93C0911B
:101EF000AB038091AA03C82B80918103811531F037
:101F0000C82B0E94861B81110E946C0F8C2FCF91D1
:101F10000895CF93DF93C0915602D09157020E944B
:101F2000760F8883C0915602D091570248E050E066
:101F300067E773E0CE010E94BC26892B59F088E048
:101F4000FE01A7E7B3E001900D928A95E1F7CE017B
:101F50000E94111BDF91CF910895CF93DF93C09121
:101F60005402D09155020E94760F8983C091540289
:101F7000D091550240E250E067E573E0CE010E9447
:101F8000BC26892B59F080E2FE01A7E5B3E0019061
:101F90000D928A95E1F7CE010E941C1BDF91CF9133
:101FA00008950E94F71C813039F48091EA0387FF7D
:101FB00003C00E94AD0F08950E94890F08950895EF
:101FC0000E94DF0F0895962F2091EB0322FF11C08E
:101FD000682F660F660F660F692B60937F030E9460
:101FE000340B80917F038695869586950E94E00F3D
:101FF00008950E94340B089510927F0380E00E94A0
:10200000E00F089590917F038095892380937F034B
:10201000282F277021110DC0891759F09091EB03DB
:1020200092FF07C08695869586950E94440B0E9474
:10203000FC0F08959091EB0392FB222720F92817BB
:1020400069F080FB92F99093EB038091EA03909101
:10205000EB030E94681082E00E94021008958091B4
:10206000EB03002482FF0394802D0E941A10089530
:1020700081E00E941A10089580E00E941A100895CD
:102080006FEF7FEF80E090E00E940E27089580E0E0
:1020900090E00E94DA269C0181E0253E3E4F09F047
:1020A00080E0089582E090E00E94D226089583E0C7
:1020B00090E00E94D22690E00895682F83E090E09F
:1020C0000E94F026089584E090E00E94DA260895A8
:1020D000BC0184E090E00E940E270895AB01BC0192
:1020E0008FE090E00E9402270895AB01BC0183E1DC
:1020F00090E00E940227089560E070E0CB010E940A
:102100007510089560E070E0CB010E946E100E948F
:102110007C100895A8E0B0E0E0E9F0E10C94952689
:1021200065EE7EEF80E090E00E940E2760E082E0A6
:1021300090E00E94F02681E090E090931503809358
:1021400014030E945D1060E074E184E090E00E945E
:102150000E2760E086E090E00E94F02660E087E0D5
:1021600090E00E94F02640E050E0BA0188E090E064
:102170000E94022760E083E290E00E94F02660E087
:102180008CE090E00E94F02660E08DE090E00E94FC
:10219000F02619821A821B821C821D821E821F82D7
:1021A000188648E050E067E170E0CE0101960E9499
:1021B000E02640E050E0BA018FE190E00E94022763
:1021C0000E9482102896E2E00C94B1260E948A10A8
:1021D0000895682F8EE090E00E94F0260895A6E012
:1021E000B0E0E5EFF0E10C9493260E94A01D8C0175
:1021F0008091AC039091AD038017910779F019821B
:102200001A820E94A01DBC0149815A8180E090E0A1
:102210000E945C071093AD030093AC032696E4E0A4
:102220000C94AF260E94AC1D6093BE037093BF0355
:102230008093C0039093C1036093BA037093BB0370
:102240008093BC039093BD030895089508950E9460
:1022500025110895089588EF93E10E949F140E942C
:1022600026110E942711089581E0089581E00895C4
:102270000E9434110895089508950E943B110E9410
:102280003C1108950E944710811102C00E94E6107F
:102290000E9452108093C2030E9463109093EB033C
:1022A0008093EA030E94C2140E9457100E94F80A09
:1022B00080911203909113030E94190B08950E94BC
:1022C000971D0E941C140E9442110E9430070E9418
:1022D000E0040895A6E0B0E0E0E7F1E10C9489267F
:1022E0000E94361181110CC00E94EF100E94DD1A6D
:1022F0000E9455170E9443072696EEE00C94A526EF
:102300000E9432142EEA822E23E0922E540110E015
:10231000F501619071905F01812F0E9412146C0190
:102320001F5F163009F44AC06816790689F3809158
:10233000C20381FD0E941B140E943811782E10E008
:1023400066246394812F0E9412147C01F401A190F1
:10235000B1904F018A159B0559F1A826BF2400E0D2
:10236000CC24C394D12CC5018C219D21892BC1F093
:102370007114B1F009831A830E94A01D9C838B8382
:102380006D8221E0C7018C219D21892B09F420E079
:1023900049815A816B817C818D81922F0E945C07DB
:1023A0000F5FCC0CDD1C0E30F1F6F401F292E292DC
:1023B0001F5F163039F60E94121198CF6816790601
:1023C00009F0B5CF91CF1F93CF93DF930E940813ED
:1023D000EC01811522E5920708F05DC0811540E50A
:1023E000940708F0DBC0803E910528F58D3C9105EF
:1023F00008F0ACC0883A910578F4853A910508F068
:10240000A2C08130910509F441C00497813A910539
:10241000E8F1C0E0D0E03AC0885A91094B97C8F77C
:10242000C85AD0E0CC0FDD1FCC55DD4F0990D881C4
:10243000C02DD4642BC0811550E49507F8F4C11564
:1024400080E2D80708F0C0C0C83ED105F8F0CE0140
:102450009A9581159F41E8F68D2F0E94A913182F98
:10246000CE0199270E940813212F30E0322F222716
:10247000E901CC27DF71C82BD92B08C099270E940E
:102480000813CC27DF70C82BD92BD06ACE01DF917F
:10249000CF911F910895803842E59407C8F58036A2
:1024A00052E5950708F05BC0C03482E5D807D0F448
:1024B000C03292E5D90708F04BC08C2F86958695DF
:1024C00020E2829FC0011124C37021E030E0A90105
:1024D00002C0440F551FCA95E2F7EA01C82BD92B59
:1024E000DD68D4CF8C2F86958695877050E2859FC6
:1024F000C0011124C37021E030E0A90102C0440FE3
:10250000551FCA95E2F7EA01C82BD92BDC68BECF6C
:10251000803C52E5950758F48F71C03AD245A0F53A
:1025200090E0982F8827EC01C46FD06AAFCF805C11
:102530009245809708F06DCFDC2FCC27CC27DF7138
:10254000C06FD06AA3CFA497D064A0CFD0659ECF30
:10255000CF71D0E0DC2FCC27C16FD06A97CF8695A2
:102560008695877020E2829FC0011124C37021E00C
:1025700030E0A90102C0440F551FCA95E2F7EA01F5
:10258000C82BD92BDA6882CF0E94A913C82FD0E0BC
:10259000DC2FCC27CC27DF71D06278CF8F710E94DF
:1025A000A91353E0CC0FDD1F5A95E1F7CC27DF705C
:1025B000282F30E084FF04C050E1859F9001112452
:1025C000C22BD32BD06962CF8D2F8F710E94A9139C
:1025D000182FCE0199270E940813212F30E0322FA7
:1025E000222722273F71282B392BE901D5CF462FEF
:1025F000672F763028F44E3018F40E947105089544
:1026000080E090E008950E94F7120E94E31108957F
:102610009C01803E910509F448C0D8F481339105AE
:1026200009F47DC048F48932910509F46DC08A9798
:1026300009F47CC0C90108958933910551F18238AC
:10264000910539F1C597B1F78091EA0385FFF2CF83
:1026500029C0843E910509F447C048F4823E9105A3
:1026600099F1833E9105A9F121EE30E0E3CF863E5A
:10267000910509F444C0873E9105E1F68091EA0393
:1026800083FD61C09091EB0391FF2BC024EE30E0FD
:10269000D1CF8091EA038370811152C08091EB0306
:1026A00083FFC8CF29E230E0C5CF8091EA0380FDE7
:1026B00033C09091EB0390FFBDCF23EE30E084FF59
:1026C000B9CF20E030E0B6CF8091EA0382FDF5CFAC
:1026D000B1CF8091EA0382FD30C09091EB0390FD71
:1026E0002FC084FFA7CFEDCF8091EB0381FFA2CF56
:1026F0008091EA0327EE30E084FDE3CF9BCF809109
:10270000EA0383FDF7CF96CF8091EA0385FD1EC0D3
:102710008091EB0383FF8ECF29E330E08BCF809154
:10272000EA0386FF87CF2AE230E084CF8091EA0374
:1027300086FF80CF21E330E07DCF22EE30E07ACFFC
:1027400020EE30E077CF26EE30E074CF25E330E0A6
:1027500071CF9091EA0392FF10C041E0282F2471BD
:10276000243009F040E031E0282F2871283009F0AA
:1027700030E0431711F02CE0822793FF10C041E0B6
:10278000282F2471243109F040E031E0282F2871EE
:10279000283109F030E0431711F02CE08227309106
:1027A000EB0330FF10C051E0282F2171213009F0D8
:1027B00050E041E0282F2871283009F040E05417FC
:1027C00011F029E0822731FF10C041E0282F21714C
:1027D000213109F040E031E0282F2871283109F03B
:1027E00030E0431711F029E0822794FD877E089599
:1027F00080E00895CF939C01FB01805E9245C1E08B
:10280000809738F4C581C11104C0822F8F710E9456
:1028100054068C2FCF9108950E94530508950E946D
:1028200054050895E82FF0E0EE0FFF1FE850FC4F2D
:1028300080819181089508950E9475038CE0ECEEEB
:10284000F3E0DF01982F1D929A95E9F7E8EFF3E0A6
:10285000DF011D928A95E9F786E00E9445140E94E7
:102860000C140895CF938CEE93E00E949D03282FC3
:1028700046E068EF73E08CEE93E00E944614C82FA8
:102880000E940F148C2FCF9108950895A0E0B0E01E
:10289000ECE4F4E10C948F26D82EE92EF62ED72FF7
:1028A000042FC22F211579F081E08093C5030E9487
:1028B000A01D9093C4038093C30380E0CDB7DEB71F
:1028C000E8E00C94AB26C090C503C114B1F380912D
:1028D000C3039091C4030E94B81D059770F310E0E4
:1028E000000F111FA8016D2D7E2D8F2D9D2F0E9491
:1028F000BC26892B41F0A8016D2D7E2D8F2D9D2F9B
:102900000E94C926CC2D1092C5038C2FD7CF0E94D0
:102910006A1108950E94391D0E9414210E942B11F2
:102920000E942E210E945F110E943B210E944021A3
:102930000E9487140E945A210E943D11F7CF909364
:10294000DB028093DA0208950E944010089580E02F
:102950000E941214817008950E9432142FEF86E7AE
:1029600091E0215080409040E1F700C000000E94BB
:1029700032140E94A714811521F00E94A4140E9411
:10298000EB1D08950E94AC140895CF93DF93EB01E3
:1029900086319C4719F50E94130F9D819115A1F076
:1029A0008A7A91E0811101C090E09093C60381156D
:1029B00049F085E30E94371C0E94D10F80E0DF912F
:1029C000CF91089589E2F6CF8091C603811521F059
:1029D00085E30E94511CF0CF89E2FBCF81E0EFCF6D
:1029E000CF93DF93EC01FB018581811509F4CFC002
:1029F0009E0130572332310508F0AFC00E946310AA
:102A00009093EB038093EA03FE01E150F047E2323A
:102A1000F10520F4EE5CF84D0C947F268091EA03DA
:102A200081608093EA0390C08091EB03886080937B
:102A3000EB038AC08091EA038260F3CF8091EA03BE
:102A40008460EFCF8091EA038860EBCF8091EB0345
:102A50008160EDCF8091EB038260E9CF8091EA0342
:102A60008061DFCF8091EA038062DBCF8091EA034F
:102A70008064D7CF0E94A20A8091EA038068D1CFF8
:102A80008091EA038C60CDCF8091EB038360CFCF40
:102A90008091EA038E7FC5CF8091EB03877FC7CFFC
:102AA0008091EA038D7FBDCF8091EA038B7FB9CF00
:102AB0008091EA03877FB5CF8091EB038E7FB7CFFC
:102AC0008091EB038D7FB3CF8091EA038F7EA9CFF6
:102AD0008091EA038F7DA5CF8091EA038F7BA1CF00
:102AE0000E94A20A8091EA038F779BCF8091EA032C
:102AF000837F97CF8091EB038C7F99CF8091EA03FE
:102B0000992782FF939590FB82F990FB83F989CFF7
:102B10008091EB03982F909590FB80F990FB81F9C1
:102B200086CF9091EA03892F8F7B96FF806479CFBF
:102B30000E94A20A9091EA03892F97FB87F9805897
:102B400070CF81E00E94E9108091EA039091EB033D
:102B50000E9468100E94A20A80E0DF91CF91089540
:102B600080E0F0CF9091EA03892F8F7E94FF8061FF
:102B700058CF9091EA03892F8E7F90FF816051CFCB
:102B80009091EB03892F877F93FF886050CF81E07E
:102B9000E4CF282F35EB2303C001112497FF04C095
:102BA00080589109892F089580589F4FFBCF8091BD
:102BB000CD0380FF0DC060915D0270E0660F771F4E
:102BC00060387105B0F561157105A9F1862F08957A
:102BD00081FF07C060915D0284E0689FB00111240D
:102BE000EFCF82FF04C060915D0288E0F6CF909144
:102BF000CC039115D9F020915C0280915D02682F81
:102C000070E0921730F043E0660F771F4A95E1F7C6
:102C1000D7CF899FC001112433E0880F991F3A95BF
:102C2000E1F7622F70E00E946B26CACF68E070E087
:102C3000CDCF8FE7089581E008958091CD0380FF87
:102C40000CC06091590270E0759567957595679510
:102C50006115710549F1862F089581FF06C06091C5
:102C6000590270E075956795F3CF6091590282FD26
:102C70000BC09091CB039115A1F060915802809107
:102C80005902961738F0682F70E06038710500F32C
:102C90008FE70895899FC001112470E00E946B2680
:102CA000F4CF61E070E0D7CF81E00895E3E3E80F6F
:102CB000E331E0F5F0E0EC5AF84D0C947F260E94E9
:102CC000D71581958093D10308950E94D715FACF27
:102CD0000E94D71581958093D00308950E94D7153F
:102CE000FACF0E941D168093D20308950E941D16EC
:102CF0008195F9CF0E941D1681958093D303089585
:102D00000E941D16FACF815D990B21E030E001C0D1
:102D1000220F8A95EAF78091CF03822B8093CF030D
:102D200008958091CD0381608093CD0308958091B3
:102D3000CD038260F9CF8091CD038460F5CF4091BF
:102D4000D0038D3C59F48091D10387FF0DC01092C0
:102D5000D103411559F41092CC0308C08E3C81F484
:102D60008091D10318169CF3411581F08091D20314
:102D70009091D303892B811159C01092CB030895F0
:102D80008F3C41F447FFF0CF1092D0038091D103E4
:102D90008115E0CF803D19F41416B4F3E5CF90917E
:102DA000D203893D29F41916FCF61092D203DCCF28
:102DB0008A3D19F497FFD8CFF8CF9091D3038B3D7C
:102DC00029F497FFD1CF1092D303CECF8C3D19F4C5
:102DD0001916CCF3C9CF9FE2980F983090F4815D1B
:102DE000990B21E030E0B90102C0660F771F8A9588
:102DF000E2F7CB0180959091CF0389238093CF0395
:102E0000B3CF8D3D31F48091CD038E7F8093CD0380
:102E1000ABCF8E3D21F48091CD038D7FF7CF8F3DD9
:102E200009F0A2CF8091CD038B7FF0CF08950E944F
:102E3000A01D2091D0033091D103232B211521F027
:102E40008093C9039093CA032091D2033091D30396
:102E5000232B211521F08093C7039093C8038EEC98
:102E600093E00E942B1B089586E0EEECF3E0DF0177
:102E70001D928A95E9F71092CC031092CB03109221
:102E8000CD030895FC01828181110DC083818111E0
:102E90000AC08481811107C081E09581911101C030
:102EA00080E08170089581E0FCCFA6E0B0E0EBE522
:102EB000F7E10C948F2686E0EEECF3E09E012F5FA5
:102EC0003F4FD90101900D928A95E1F71092D003FE
:102ED0001092D1031092D2031092D3038B819C8164
:102EE000892B7901811589F08091C9039091CA03DA
:102EF0000E94B81D6C018091CC038115B9F19091AD
:102F00005E029C151D0408F43EC08D819E81892BB4
:102F1000811591F08091C7039091C8030E94B81D5C
:102F20008C018091CB03811509F45FC090915A0206
:102F30009017110608F467C0B7018EEC93E00E9469
:102F4000851C811105C08EEC93E00E94421781110F
:102F50000E94171786E0F701AEECB3E001900D92E6
:102F60008A95E1F72696E8E00C94AB2620915F0263
:102F70009AE0299F900111242C153D0530F68F5FB2
:102F80008093CC0302C08F3FD1F7DB80D11459F07E
:102F90000E94D71591E01D140CF09FEF899F802DA2
:102FA00011248093D003DC80D11459F00E94D715EE
:102FB00091E01D140CF09FEF899F802D11248093C8
:102FC000D1038091D003811509F49FCFD090D10314
:102FD000D11409F49ACF0E94C9158093D0038D2D86
:102FE0000E94C9158093D10390CF20915B029AE093
:102FF000299F900111242017310708F09DCF8F5F82
:103000008093CB0302C08F3FD1F71D81111559F07A
:103010000E941D1691E011160CF09FEF899F802DE4
:1030200011248093D2031E81111559F00E941D16A0
:1030300091E011160CF09FEF899F802D1124809351
:10304000D3038091D203811509F476CF1091D30375
:10305000111509F471CF0E94C9158093D203812FF5
:103060000E94C9158093D30367CFA0E0B0E0EBE3E3
:10307000F8E10C948E26E82FF0E0E158FC4FB49074
:10308000282F26952695269530E0F901E15EFB4F25
:103090000491877010E0082E02C0159507950A94D8
:1030A000E2F701701127F901E15FFB4FE490F12C89
:1030B000082E02C0F594E7940A94E2F7E0FAEE24B1
:1030C000FF24E0F8F901E150FC4FC491D0E002C0C8
:1030D000D595C7958A95E2F7C170DD27C62ED12C0C
:1030E0000115110549F5E114F10431F086EE0E9455
:1030F0009F07C601009771F5B6018B2D0E941A0833
:10310000C601009779F5E114F104A1F50115110547
:1031100031F081EE0E94E707C6010097C9F5CD2B7B
:1031200031F08CE20E943408C114D104C9F5CDB746
:10313000DEB7E9E00C94AA2681EE0E949F07C60143
:10314000009789F2EFE9FFE03197F1F700C0000046
:103150000197F6CFEFE9FFE03197F1F700C00000EB
:103160000197C8CFEFE9FFE03197F1F700C0000009
:103170000197C7CF86EE0E94E707C601009731F29C
:10318000EFE9FFE03197F1F700C000000197F6CFBB
:10319000EFE9FFE03197F1F700C000000197BDCFE4
:1031A0008FE99FE00197F1F700C0000091E0C91A94
:1031B000D108BACFFF920F931F93CF93DF938C0167
:1031C000F62EF8018491811509F450C0813009F080
:1031D00048C0E8012196FE018491813049F421968E
:1031E000FE0184910E9434088E010F5F1F4FE9CFCA
:1031F000823039F4E8012296FE0184910E949F07F3
:10320000F3CF833039F4E8012296FE0184910E94C5
:10321000E707EACF843041F7E8012296FE01849166
:1032200020E030E04AE0FE0131968053990B8A306D
:10323000910560F021153105B9F28FE99FE0019702
:10324000F1F700C0000021503109F4CF429FB001D6
:10325000439F700D11249C01260F371F8491EF01AD
:10326000E2CF6F2D0E943518E801BECFCDB7DEB793
:10327000E5E00C94AE260F931F93CF93DF93C42FFA
:10328000D22FFC0185818115C9F04093D6030E949D
:10329000A01D9093D5038093D40380E28C0F8830D7
:1032A00040F4C77081E001C0880FCA95EAF70E9418
:1032B0003D08DF91CF911F910F9108951091D60392
:1032C000141333C08091D4039091D5030E94B81D8C
:1032D0008F3A910550F5C0E2CD0F1D17C1F080E285
:1032E000810F883040F4177081E001C0880F1A9573
:1032F000EAF70E944408C83050F491E08D2F87709F
:1033000001C0990F8A95EAF7892F0E943D08802F06
:103310000E943408C83068F6D77081E001C0880F79
:10332000DA95EAF70E944408C4CF80E28C0F883017
:1033300008F0BFCFC77081E001C0880FCA95EAF7D7
:10334000F1CF0F93DB01FC01E851FC47E730F105B9
:1033500098F5E959F84D0C947F2606E221EE41EEEE
:103360006AE17CE7CD010E943B1980E00F9108954E
:1033700007E225EE45EE6BE17CE7F4CF06E221EEB5
:1033800040EE68E17CE7EECF07E225EE44EE69E12E
:103390007CE7E8CF06E221EE42EE6CE17CE7E2CF8B
:1033A00007E225EE46EE6DE17CE7DCCF08E221E0A6
:1033B00045EE6EE17CE7D6CF15968C918111109287
:1033C000D60381E0D3CFFA01309709F0099508952B
:1033D000CF93DF93EC014A855B856E857F850E94E4
:1033E000E3198B810E94300F8C810E941C0F0E9478
:1033F000D10F86E0FE0111928A95E9F7DF91CF9116
:103400000895CF93DF93EC018D8181FD11C082601F
:103410008D838B810E942A0F8C810E94160F0E943F
:10342000D10F488559856E857F85CE010E94E319AD
:103430001092DA031092D9038D8180FD03C0CE0172
:103440000E94E819DF91CF910895CF93DF93EC01AB
:10345000FB018A81823039F4828193810E94B9050F
:103460008D8182608D83DF91CF910895FB018081F2
:1034700091810E94B9050895FB01DC0112968C919F
:10348000813029F4808191810E94CF050895823096
:10349000E9F782819381F8CFEF92FF921F93CF9348
:1034A000DF937C01FB0115811115B9F08091D903DF
:1034B0009091DA030097C1F08E159F05A9F0992726
:1034C0000E947705EC018D8184608D83F982E8820A
:1034D000CE010E94011A0E94380F812FDF91CF91F7
:1034E0001F91FF90EF90089510E0F7CFA0E0B0E0BB
:1034F000ECE7FAE10C948F268C017B01975581153E
:10350000914030F081E0CDB7DEB7E8E00C94AB2617
:103510006801DD240E947405C816D90608F04BC066
:10352000C6010E947705EC01F70185819D8180FB32
:1035300090F99D83811529F10E94A01D9093D803D5
:103540008093D7038A818F5F8A830E94130F8B83B6
:103550000E94270F9B81982B9B830E943B0F8C839B
:103560004E815F816E857F85CE010E94E3198D813A
:1035700081FF02C000E010E01093DA030093D9034A
:10358000C1CF4C855D856E857F85CE010E94E31994
:103590008D8181FFB7CFCE010E94E8198091D903B8
:1035A0009091DA038017910709F0ACCF1092DA03FB
:1035B0001092D903A7CF80E0A6CFCF93DF9380915D
:1035C000D9039091DA03892BB9F08091D7039091B8
:1035D000D8030E94B81D803B910570F08091D903FB
:1035E0009091DA0399270E947705EC018D8182FD85
:1035F00003C0CE010E94011ADF91CF9108959093EC
:10360000E0038093DF030895E091DF03F091E0038E
:10361000309729F00190F081E02D0995089580E020
:103620000895E091DF03F091E003309721F00280EC
:10363000F381E02D09950895DC01E091DF03F0911D
:10364000E003309739F086E08C930480F581E02D1B
:10365000CD0109950895DC01E091DF03F091E003CD
:10366000309739F082E08C930680F781E02DCD0110
:1036700009950895A3E0B0E0E0E4FBE10C94952601
:103680009C018091DD039091DE0382179307A1F0E6
:103690003093DE032093DD03E091DF03F091E0033C
:1036A000309751F083E089833B832A830084F1853E
:1036B000E02DCE01019609952396E2E00C94B12607
:1036C000A3E0B0E0E6E6FBE10C9495269C01809136
:1036D000DB039091DC0382179307A1F03093DC03A6
:1036E0002093DB03E091DF03F091E003309751F08A
:1036F00084E089833B832A830084F185E02DCE0119
:10370000019609952396E2E00C94B126CF93DF93BE
:10371000C0915602D091570222960E94F71C813028
:1037200081F48091EA0387FF0CC0C0915402D091CC
:10373000550222969EE180E0915028F4DF91CF91CE
:10374000089596E0F8CF29912115B1F38F5FF4CF5A
:10375000CF93C82F811102C080E031C00E94F71CB6
:10376000813021F48091EA0387FD0EC080915602DA
:1037700090915702FC013296089621912C1709F17D
:10378000E817F907D1F7E8CF8C2F869586958695AF
:10379000C03F10F7E0915402F0915502E80FF11D7F
:1037A000228130E0C77081E090E002C0880F991F4D
:1037B000CA95E2F72823392381E0232B69F2CF91C0
:1037C000089581E0FCCF9C01FC0132968FEF90E0E0
:1037D0004191461751F08F3F19F4411101C0892FD3
:1037E0009F5F9630A9F78F3F09F40895280F311D88
:1037F00087FD3A95F901628308959C01FC01329698
:10380000285F3F4F8191861302C0DF011E92E217AD
:10381000F307C1F70895FC01862F86958695869556
:10382000603F60F4E80FF11D677021E030E001C0F7
:10383000220F6A95EAF78281822B82830895FC0128
:10384000862F869586958695603F80F4E80FF11D5A
:10385000677081E090E09C0102C0220F331F6A95DF
:10386000E2F7B90160958281682362830895CF935E
:10387000C82F0E94F71C6C2F813061F48091EA03FD
:1038800087FF08C080915402909155020E940B1C42
:10389000CF91089580915602909157020E94E31BA8
:1038A000F7CFCF93C82F0E94F71C6C2F813061F4A3
:1038B0008091EA0387FF08C08091540290915502DD
:1038C0000E941F1CCF91089580915602909157023B
:1038D0000E94FD1BF7CF0E94F71C813079F4809184
:1038E000EA0387FF0BC0E0915402F0915502329633
:1038F0008EE1DF011D928A95E9F70895E091560265
:10390000F0915702329686E0F4CFDC01FB0111966C
:103910009C9111978181981322C012968C911297D5
:10392000811519F0928189131AC013968C911397FF
:10393000811519F09381891312C015968C911597F2
:10394000811519F0958189130AC014969C919115DF
:1039500021F081E02481291303C080E001C081E0CF
:103960008170089508950E94B21C08958F5F80931E
:103970006302609160027091610280916202909195
:1039800063020E94B31C089583E0809363026091F8
:1039900060027091610280916202909163020E94C4
:1039A000B31C08950E94B61C089581E080936302C1
:1039B0006091600270916102809162029091630255
:1039C0000E94B31C08950E94D51C089591E08111B6
:1039D00001C090E090936202609160027091610278
:1039E00080916202909163020E94B31C08958091BD
:1039F0006202089580936102609160027091610299
:103A000080916202909163020E94B31C089580919C
:103A1000610208958093600260916002709161027A
:103A200080916202909163020E94B31C089580917C
:103A300060020895089508950E941B1D0895089539
:103A400008950E941A1D0895CF930E941F1D0E9481
:103A500032140E94201DC0E08C2F0E941214892B6A
:103A600031F4CF5FC630C1F780E0CF91089581E097
:103A7000FCCF85B7806885BF85B7806885BF08950E
:103A80001F921FB61F9211248F939F93AF93BF93E2
:103A90008091E103811113C0809104049091050489
:103AA000A0910604B09107044196A11DB11D809319
:103AB000040490930504A0930604B0930704BF91F7
:103AC000AF919F918F911F901FBE1F90189580916D
:103AD0000C04843031F10E94F5061092E10388E174
:103AE00090E020E40FB6F894A895809360000FBE94
:103AF0002093600083B7817F846083BF83B7816038
:103B000083BF7894889583B78E7F83BF0FB6F89470
:103B1000A895809160008861809360001092600099
:103B20000FBE08950E94A20A0E94FA06089582E03C
:103B300084BD93E095BD9AEF97BD80936E00089584
:103B40002FB7F8948091040490910504A091060485
:103B5000B09107042FBF08952FB7F8946091040423
:103B60007091050480910604909107042FBF089579
:103B70009C014FB7F8948091040490910504A091A2
:103B80000604B09107044FBF821B930B08957894ED
:103B90001F921FB61F9211248F939F93AF93BF93D1
:103BA0008091040490910504A0910604B09107044B
:103BB0000196A11DB11D8093040490930504A09368
:103BC0000604B0930704BF91AF919F918F911F900E
:103BD0001FBE1F90189587E797E790930108809381
:103BE000000888E19AE00FB6F894A89580936000E9
:103BF0000FBE90936000FFCF88E19AE00FB6F89473
:103C0000A895809360000FBE90936000FFCFFF9255
:103C10000F931F93CF93DF93182FEB011092BC00EB
:103C200084EA8093BC000E94A01D082FF92E809189
:103C3000BC0087FF28C08091B900887F883029F0B8
:103C40008091B900887F8031A1F51093BB0084E892
:103C50008093BC000E94A01D182F092F8091BC00EA
:103C600087FF1FC02091B900287F80E090E02831B5
:103C700099F081E090E0203411F480E090E091959B
:103C80008195910909C0802F9F2D0E94B81DC817EA
:103C9000D90768F68EEF9FEFCDB7DEB7E5E00C945D
:103CA000AE26812F902F0E94B81DC817D907B0F6F5
:103CB000F1CF8FEF9FEFF0CF1092B9008CE080939F
:103CC000B80008950F931F93CF93DF93EB01809378
:103CD000BB0084E88093BC000E94A01D182F092F10
:103CE0008091BC0087FF11C02091B900287F81E03E
:103CF00090E0283211F480E090E09195819591094F
:103D0000DF91CF911F910F910895CF3FDC0741F3D1
:103D1000812F902F0E94B81DC817D90708F78EEF82
:103D20009FEFEECF0F931F93CF93DF93EC0184ECC3
:103D30008093BC000E94A01D182F092F8091BC0009
:103D400087FF08C08091BB0090E0DF91CF911F9169
:103D50000F910895CF3FDC0789F3812F902F0E94A8
:103D6000B81DC817D90750F78EEF9FEFEECF0F930E
:103D70001F93CF93DF93EC0184E88093BC000E94F3
:103D8000A01D182F092F8091BC0087FF08C08091CB
:103D9000BB0090E0DF91CF911F910F910895CF3F2D
:103DA000DC0789F3812F902F0E94B81DC817D9070F
:103DB00050F78EEF9FEFEECFA0E0B0E0E2EEFEE135
:103DC0000C948926682E962E5A01690178010E946A
:103DD000A01D782E892E0431110530F10F3F1007F8
:103DE00031F1C80164E170E00E945726162F072FB9
:103DF000612F702F862D0E94071EEC01892BC9F0C0
:103E0000FFEFEF16FF06A1F3872D982D0E94B81D36
:103E1000E816F90668F784E98093BC00CE01CDB7B7
:103E2000DEB7EEE00C94A52611E000E0E1CF15E04E
:103E3000FCCFB701892D0E94621EEC018501CA0CDE
:103E4000DB1C0C151D0539F3209729F7B701F80184
:103E500081918F010E94621EEC01F3CFA0E0B0E0DF
:103E6000E4E3FFE10C948926982E862E6A0159011D
:103E700078010E94A01D3C010431110550F10F3F53
:103E8000100751F1C80164E170E00E945726162F17
:103E9000072F612F702F892D0E94071EEC01892B9F
:103EA000E9F0FFEFEF16FF06A1F3C3010E94B81D72
:103EB000E816F90670F784E98093BC00CE011C1661
:103EC0001D0614F480E090E0CDB7DEB7EEE00C9470
:103ED000A52611E000E0DDCF15E0FCCFB701882D6D
:103EE0000E94621EEC01892B31F7689490F80E94C1
:103EF000A01D782E892E84E1E816F10450F1EFEF31
:103F0000EE16FE0649F1C70164E170E00E945726F3
:103F1000162F072F612F702F892D0E94071EEC018D
:103F2000892BE1F400E010E0F1E0AF1AB1080A15C6
:103F30001B0500F5D7FDBFCFC7010E94921EEC0103
:103F400097FD04C0F601E00FF11F80830F5F1F4F44
:103F5000EECF11E000E0DECF15E0FCCF8FEFE816EA
:103F6000F806C1F2872D982D0E94B81DE816F906B3
:103F700088F6D8CFD7FD9FCFC7010E94B71EEC01AE
:103F800097FD05C0CA0CDB1CF601808394CFCEEFF1
:103F9000DFEF91CF282FCB01BA0130910C043430E0
:103FA000D9F42F702093E9002FEF3091E80035FD10
:103FB00006C035ED3A95F1F700002A95B1F720914A
:103FC000E80025FF09C040E050E00E94D121809127
:103FD000E8008E778093E8000895BC0143E050E04C
:103FE00082E00E94CA1F0895BC0146E050E082E0D2
:103FF0000E94CA1F0895BC0140E250E082E00E9486
:10400000CA1F0895CF93DF93D82FC92F0E94F71CA2
:1040100048E050E06D2F7C2F81E00E94CA1F88E0AD
:10402000ED2FFC2FA2EEB3E001900D928A95E1F7FF
:10403000DF91CF91089580910B04811109C00E94F6
:104040005A230E94B7238091E20084608093E200AB
:10405000089510920B0408950E94D51C81E00E94DF
:10406000E61C08956091080481E0611101C080E0C0
:104070000E94C41C089590910C0481E0943009F0D2
:1040800080E0609108040E94D21C089542E061EC37
:1040900081E00E94D62242E261EC82E00E94D622B8
:1040A00090910C0481E0943009F080E06091080464
:1040B0000E94B61C089580910E04893089F148F45D
:1040C000823009F4A0C0833009F45AC0813041F035
:1040D00008958A3009F487C08B3009F46CC00895C4
:1040E00080910D04813A09F04AC08091E800877FF1
:1040F0008093E8008091110490911204892B61F063
:1041000060E080E090E070E00E9421228091E80071
:104110008B778093E800089568E082EE93E0F3CF18
:1041200080910D04813259F580911104909112040F
:10413000029728F58091E800877F8093E8008091BE
:10414000E80082FF18C09091F3008091F20002977E
:1041500031F48091F100813011F0863021F48091AA
:10416000F1000E94FA1C8091E8008B778093E800B0
:104170000E940A23089580910C048111E0CF0895D4
:1041800080910D04813AD9F7809111049091120425
:10419000892BA9F78091E800877F8093E8008091C0
:1041A000E80080FFFCCF0E94F71C8093F100809113
:1041B000E8008E77DBCF80910D04813201F780918A
:1041C000110490911204892BD1F68091E800877F29
:1041D0008093E8000E940A2380910F040E94E61C4D
:1041E0000E94A20A089580910D04813241F68091C7
:1041F000E800877F8093E8000E940A2380911004E2
:104200000E940A1D089580910D04813A09F0B7CFEC
:104210008091E800877F8093E8008091E80080FF2C
:10422000FCCF0E94171DC1CF84B7877F84BF0FB614
:10423000F894A89580916000886180936000109246
:1042400060000FBE80E890E00FB6F89480936100A4
:10425000909361000FBE0E94E31C08950E945A23B0
:104260000E94B723E2EEF0E080818460808378943E
:104270000E943D26089584E692E00E94FF1A089568
:1042800080910C04853031F480910C04853019F054
:104290000E94921D08950E94671D0E94241D811591
:1042A00099F380910A04811579F30E94BB210E9441
:1042B000A20AEACF08959A01409113045091140480
:1042C0000E9463210895FC01D9018F2F9927833023
:1042D0009105C1F068F48130910509F447C0029757
:1042E00061F48BE390E02BE534E02D933C9308954B
:1042F00081329105E1F0829749F180E090E020E081
:1043000030E0F3CFCF019927E13059F082309105A9
:1043100059F0E7E5F4E0892B81F7849190E09F0163
:10432000E4CFE3E4F4E0F9CFEFE2F4E0F6CF89E0A4
:1043300090E02DE634E061157105B9F289E090E076
:1043400026E834E06130710581F2D7CF84E490E053
:104350002EE535E06115710541F286EB90E028EA23
:1043600034E06130710509F4C0CFC7CF82E190E03D
:1043700026E934E0BACF80E189BD82E189BD09B484
:1043800000FEFDCF8091D8008F7D8093D800809172
:10439000E00082608093E0008091E00081FDFCCF2E
:1043A0000895AF92BF92CF92DF92EF92FF920F9358
:1043B0001F93CF936C018B017A010E942923C82F90
:1043C000811123C0E114F10439F0F701808191815A
:1043D000081B190BC80ED91EA12CB12C01151105F3
:1043E000A1F08091E80085FD21C08091E8008E77E2
:1043F0008093E800E114F10499F0F7018081918144
:104400008A0D9B1D91838083C5E08C2FCF911F91D6
:104410000F91FF90EF90DF90CF90BF90AF900895F5
:104420000E9429238115E9F2C82FEFCFF60181916F
:104430006F018093F10001501109FFEFAF1ABF0A1D
:10444000CDCFFC019B018091130490911404861739
:10445000970718F0672B61F0C90140E0009771F4ED
:1044600041110CC08091E80082FF35C080E00895C2
:104470008091E8008E778093E800EECF20910C04C5
:104480002115A9F12530A9F12091E80023FD2DC0C7
:104490002091E80022FDE6CF2091E80020FFDECF4A
:1044A0003091F3002091F200009719F02830310587
:1044B00058F041E02830310509F040E02091E80053
:1044C0002E772093E800CACF41914093F1000197E5
:1044D0002F5F3F4FE9CF80910C04811541F085306B
:1044E00041F08091E80083FFBDCF81E0089582E034
:1044F000089583E00895FC019B018091130490913D
:1045000014048617970718F0672B61F0C90140E083
:10451000009771F441110CC08091E80082FF36C011
:1045200080E008958091E8008E778093E800EECFD8
:1045300020910C042115B1F12530B1F12091E80052
:1045400023FD2EC02091E80022FDE6CF2091E80057
:1045500020FFDECF3091F3002091F200009719F098
:104560002830310558F041E02830310509F040E0AD
:104570002091E8002E772093E800CACF4491409321
:10458000F100319601972F5F3F4FE8CF80910C04E7
:10459000811541F0853041F08091E80083FFBCCF68
:1045A00081E0089582E0089583E00895982F973080
:1045B00028F08F708093E90081E008959093E900DE
:1045C000242F762F50E0981731F07091EC00209155
:1045D000ED005091F00021FD02C09F5FE8CF3091C7
:1045E000EB003E7F3093EB003091ED003D7F309348
:1045F000ED003091EB0031603093EB007093EC00F4
:104600002093ED005093F0002091EE0027FDE5CFC0
:1046100080E0089580910D0487FF13C08091E80029
:1046200082FF06C08091E8008B778093E8000895B0
:1046300080910C048111F2CF089580910C048115B2
:10464000D9F38091E80080FFF8CF8091E8008E7761
:10465000ECCF2091E4003091E50095E6A90120918E
:10466000EC00822F817020FF06C08091E80080FF5F
:1046700006C080E008952091E80022FD1AC08091D4
:104680000C04811589F0853089F08091EB0085FD5F
:104690000FC02091E4003091E50042175307F9F272
:1046A0009A95E1F684E0089582E0089583E0089504
:1046B00081E008950E94C9230E94D123E0EEF0E03A
:1046C000808181608083E8EDF0E080818F77808356
:1046D00019BCA7EDB0E08C918E7F8C9380818F7E8A
:1046E000808310920B0408950F931F93CF93DF9351
:1046F0000E94C9230E94D123C8EDD0E088818F7722
:10470000888388818068888388818F7D888319BCAD
:1047100010920C041092080410920A0410920904DA
:1047200000EE10E0F80180818B7F808388818160BA
:10473000888342E060E080E00E94D622E1EEF0E073
:1047400080818E7F8083E2EEF0E0808181608083D3
:10475000808188608083F80180818E7F808388815A
:1047600080618883DF91CF911F910F910895E8EDCB
:10477000F0E080818F7E8083E7EDF0E080818160D2
:10478000808384E082BF81E080930B040E947423C5
:104790000895E8EDF0E080818E7F80831092E20042
:1047A00008951092DA001092E10008951F920F927E
:1047B0000FB60F9211242F933F934F935F936F93F4
:1047C0007F938F939F93AF93BF93EF93FF938091CA
:1047D000E10082FF0BC08091E20082FF07C0809160
:1047E000E1008B7F8093E1000E943C268091DA00FB
:1047F00080FF19C08091D80080FF15C08091DA0039
:104800008E7F8093DA008091D90080FF94C080E190
:1048100089BD82E189BD09B400FEFDCF81E08093AE
:104820000C040E941B208091E10080FF19C0809140
:10483000E20080FF15C08091E2008E7F8093E2004D
:104840008091E20080618093E2008091D8008062D4
:104850008093D80019BC85E080930C040E9432201C
:104860008091E10084FF29C08091E20084FF25C08F
:1048700080E189BD82E189BD09B400FEFDCF809150
:10488000D8008F7D8093D8008091E1008F7E809347
:10489000E1008091E2008F7E8093E2008091E2004F
:1048A00081608093E20080910804811509F449C079
:1048B00084E080930C040E943B208091E10083FF00
:1048C00029C08091E20083FF25C08091E100877FAD
:1048D0008093E10082E080930C04109208048091A0
:1048E000E1008E7F8093E1008091E2008E7F8093D3
:1048F000E2008091E20080618093E20042E060E0AB
:1049000080E00E94D6228091F00088608093F000C1
:104910000E942C20FF91EF91BF91AF919F918F91B9
:104920007F916F915F914F913F912F910F900FBEAB
:104930000F901F90189519BC10920C040E9429200A
:1049400072CF8091E30087FF02C083E0B2CF81E0A5
:10495000B0CF1F920F920FB60F921124EF92FF92D9
:104960000F931F932F933F934F935F936F937F9377
:104970008F939F93AF93BF93CF93EF93FF9309EEE2
:1049800010E0F8018081C091EC008F70C795CC27B2
:10499000C795C82B108280EFE82EF12CF70180819B
:1049A000877F808378940E94F424F8011082F701B5
:1049B000808188608083CF70F801C083FF91EF9180
:1049C000CF91BF91AF919F918F917F916F915F91A7
:1049D0004F913F912F911F910F91FF90EF900F906A
:1049E0000FBE0F901F901895AAE2B0E0EAEFF4E234
:1049F0000C9493268DE094E0FC0101962091F10047
:104A0000208324E085319207B9F70E945B208091D2
:104A1000E80083FF38C080910D0490910E049A3015
:104A200090F5E92FF0E0E259F84D0C947F2680389C
:104A300089F0823841F5809111048F70873018F524
:104A40008093E9008091EB0085FB882780F9109224
:104A5000E90006C080910A04880F90910904892B0F
:104A60009091E800977F9093E8008093F100109276
:104A7000F1008091E8008E7723C0811116C08091EB
:104A80000F04813011F18091E80083FF0AC080910A
:104A9000E800877F8093E8008091EB00806280933C
:104AA000EB00AA96E4E00C94AF26823061F7809187
:104AB0000F04811589F01092E9008091E800877F4A
:104AC0008093E8000E940A23DECF81E0933009F052
:104AD00080E080930A04EFCF809111048F702FEF54
:104AE000280F263080F68093E9002091EB0020FF0C
:104AF000E2CF933031F48091EB0080628093EB0041
:104B0000DACF9091EB0090619093EB0021E030E0E0
:104B1000A90102C0440F551F8A95E2F74093EA00AD
:104B20001092EA008091EB008860E8CF8111ABCF52
:104B300010910F041F778091E3008078812B809380
:104B4000E3008091E800877F8093E8000E940A23B9
:104B50008091E80080FFFCCF8091E3008068809323
:104B6000E30083E0111101C082E080930C048BCF3D
:104B70008058823008F087CF80910F049091100404
:104B80008C3D53E0950799F583E08A838AE2898317
:104B90004FB7F894DE01139620E03EE051E2E32F98
:104BA000F0E050935700849120FF03C082958F70EE
:104BB0003F5F8F708A30C8F0895C90E08D939D9341
:104BC0002F5F243161F74FBF8091E800877F80938A
:104BD000E8006AE270E0CE0101960E9421228091F5
:104BE000E8008B778093E8004ECF805DE6CF609140
:104BF000110470911204AE014F5F5F4F0E945B2160
:104C00008C01892B09F43FCF8091E800877F809346
:104C1000E800B80189819A810E947B22E0CF803828
:104C200009F031CF8091E800877F8093E800809180
:104C300008048093F1001DCF811125CF90910F04BE
:104C4000923008F020CF8091E800877F8093E800C1
:104C5000909308040E940A2380910804811531F082
:104C600084E080930C040E9446200DCF8091E300E5
:104C700087FDF6CF81E0F5CF0895CF9380910C04A6
:104C8000811599F08091E900C091EC008F70C79573
:104C9000CC27C795C82B1092E9008091E80083FDCE
:104CA0000E94F424CF70C093E900CF910895AA1B0D
:104CB000BB1B51E107C0AA1FBB1FA617B70710F007
:104CC000A61BB70B881F991F5A95A9F78095909539
:104CD000BC01CD01089597FB072E16F4009407D070
:104CE00077FD09D00E94572607FC05D03EF4909529
:104CF00081959F4F0895709561957F4F0895EE0FB0
:104D0000FF1F0590F491E02D09942F923F924F924E
:104D10005F926F927F928F929F92AF92BF92CF924B
:104D2000DF92EF92FF920F931F93CF93DF93CDB754
:104D3000DEB7CA1BDB0B0FB6F894DEBF0FBECDBFCC
:104D400009942A88398848885F846E847D848C849D
:104D50009B84AA84B984C884DF80EE80FD800C81A6
:104D60001B81AA81B981CE0FD11D0FB6F894DEBF89
:104D70000FBECDBFED010895FB01DC0104C08D9194
:104D80000190801921F441505040C8F7881B990BBD
:104D90000895FB01DC0102C001900D92415050408A
:104DA000D8F70895F999FECF92BD81BDF89A992759
:104DB00080B50895A8E1B0E042E050E00C941627D9
:104DC000DC01A40FB51F4150504048F0CB01840FC7
:104DD000951F2E910E94F12641505040D0F7089522
:104DE000262FF999FECF92BD81BDF89A019700B4A4
:104DF000021639F01FBA20BD0FB6F894FA9AF99A44
:104E00000FBE08950396272F0E94F1260E94F026D8
:104E1000252F0E94F126242F0C94F1260196272F8E
:104E20000E94F1260C94F026DC01CB01FC01F999DB
:104E3000FECF06C0F2BDE1BDF89A319600B40D92E6
:104E400041505040B8F70895F894FFCF8908890879
:104E5000D008D00835095209B808B8085709CE0952
:104E6000DF09DF094815B91550151A151E15541517
:104E70002215581564152E15B215321568153615FC
:104E80006C1591153A1570159815401576157E1507
:104E900026155C152A15601544157A158815A11577
:104EA000B01514154C15C0155F16651668166E16EC
:104EB000831683168316831683168316831683162A
:104EC000711676167A168016911697169B16BE19CD
:104ED000C419AD19B819CA19D019D61917253D2505
:104EE00043253D2543259625B82543250F261C2619
:104EF000000000000000251A361A3C1A000050027B
:104F0000000000000000251A361A3C1A00004C026E
:104F1000000000000000251A361A3C1A0000480262
:104F2000000000000000251A361A3C1A0000440256
:104F3000000000000000251A361A3C1A000040024A
:104F4000000000000000251A361A3C1A00003C023E
:104F5000000000000000251A361A3C1A0000380232
:104F6000000000000000251A361A3C1A0000340226
:104F7000000000000000251A361A3C1A000030021A
:104F8000000000000000251A361A3C1A00002C020E
:104F9000000000000000251A361A3C1A0000280202
:104FA000000000000000251A361A3C1A00002402F6
:104FB000000000000000251A361A3C1A00002002EA
:104FC000000000000000251A361A3C1A00001C02DE
:104FD000000000000000251A361A3C1A00001802D2
:104FE000000000000000251A361A3C1A00001402C6
:104FF000000000000000251A361A3C1A00001002BA
:10500000290039001900300006002F00090027028E
:10501000070026021500300208002F022700270291
:105020002600260225002502240024022300230254
:105030002200220221002102200020021F001F0264
:105040001E001E028203A203280850011E0A14013A
:1050500000000100071D0220FB1FF41FED1FE200EE
:10506000E900EA00B500B600B700CD008301CC002E
:105070008A019201940121022302240225022602C0
:1050800027022A02B300B4006F0070009F01CB0119
:105090009F02A002E200E900EA00B500B600B700F6
:1050A000CD008301CC008A019201940121022302E8
:1050B00024022502260227022A02B300B4006F0050
:0A50C00070009F01CB019F02A002C7
:00000001FF
