:100000000C9424030C9441030C9441030C9441037D
:100010000C9441030C9441030C9441030C94410350
:100020000C9441030C9441030C9474220C944723C8
:100030000C94DE1B0C9441030C9441030C9441037B
:100040000C9441030C9441030C9441030C94410320
:100050000C9441030C94651C0C9441030C944103D3
:100060000C9441030C9441030C9441030C94410300
:100070000C9441030C9441030C9441030C944103F0
:100080000C9441030C9441030C9441030C944103E0
:100090000C9441030C9441030C9441030C944103D0
:1000A0000C9441030C9441030C9441036B746563FD
:1000B0002F6572676F646F6E652F64656661756C1E
:1000C00074204020302E32372E31332D332D6736B9
:1000D00064306535372D64697274790029001E22F9
:1000E0001F222022212222221D011C012322242240
:1000F00025222622272261524C0014001A000843B0
:100100001543170050004F001C0018000C0012008F
:10011000130031002B0004001600074309430A00B6
:10012000000000000B000D000E000F0033423428C9
:10013000E1001D211B000643194305002D002E0080
:1001400011001000360037003800E5003541E34269
:10015000E10450004F0000000000000000005200C9
:1001600051002F003000C15200004D00E1002C0072
:100170004A00E000E2002B0021524B0028002A0038
:100180004E00000000000000000000000000000021
:10019000000000000000000000000000000000005F
:1001A000000000000000000000000000000000004F
:1001B000000000000000000000000000000000003F
:1001C000000000000000000000000000000000002F
:1001D000000000000000000000000000000000001F
:1001E000000000000000000000000000000000000F
:1001F00000000000000000000000000000000000FF
:1002000000000000000000000000000000000000EE
:1002100000000000000000000000000000000000DE
:100220000000000000000000000000000100DD00F0
:10023000DE00DF00010001000100010001000100FB
:1002400001003C023C000100010001000100CD0062
:100250000100D90001004C02010001000100010071
:100260000100010001000100CF00CE00D000DA0043
:100270000000000001000100010001000100AE00CB
:10028000E10001000100010001000100010038133C
:10029000010001000100AC00AB0001000100010001
:1002A0000100D100D2000000000000000000A90001
:1002B000AA00A8000100010000000100D200D10046
:1002C000010001000100010001000100B600B700BB
:1002D0000100000000001E021F0220022102220273
:1002E000000000002302240225022602270200004B
:1002F0000000000000002F0230020000000000009B
:1003000000000000000000000000000000000000ED
:10031000000026022702000000000000000000008C
:1003200000000000000000000000000000002F009E
:10033000300000000000000000000000000000008D
:1003400000000000000000000000000000000000AD
:10035000000000000000000000000000000000009D
:10036000000000000000000000000000000000008D
:1003700000000000000000000000000029001E0036
:100380001F00200021002200230000002300240081
:1003900025002600270000522B00170014001A0029
:1003A00008001500370000001C0018000C001200A7
:1003B00013003100E1000A000400160007000900E4
:1003C000000000000B000D000E000F0033000000C5
:1003D000E1001D001B0006001900050036004C005E
:1003E000110010005200370038000000E00000004B
:1003F000E20050004F00000000000000000050002C
:1004000051004F000000000000000000E1002C003F
:1004100000000000000000000000000028002A008A
:10042000E300000000000000000000002A2B28006C
:100430000000000000000000000000000000002993
:10044000000000002C1E3420212224342627252ED3
:10045000362D3738271E1F2021222324252633330B
:10046000362E37381F0405060708090A0B0C0D0E37
:100470000F101112131415161718191A1B1C1D2F03
:100480003130232D350405060708090A0B0C0D0E23
:100490000F101112131415161718191A1B1C1D2FE3
:1004A0003130354C0000000000000000000000006A
:1004B000000000000000000000000000000000003C
:1004C00000000000000000007E0F00D4FFFFFFC707
:1004D0000000007812034500720067006F0064009E
:1004E0006F006E006500000012034B002E005400E8
:1004F0002E0045002E0043002E00000004030904D6
:1005000009023B00020100A0FA09040000010301F6
:10051000010009211101000122440007058103089F
:10052000000109040100010300000009211101007C
:100530000122B6000705820320000112010002001B
:100540000000080912282301000102000105010929
:1005500002A10185020901A1000509190129081557
:100560000025019508750181020501093009311541
:1005700081257F95027508810609381581257F95AB
:100580000175088106050C0A38021581257F950141
:1005900075088106C0C005010980A1018503190104
:1005A0002AB700150126B700950175108100C00516
:1005B0000C0901A101850419012AA002150126A038
:1005C00002950175108100C005010906A10185068B
:1005D000050719E029E71500250195087501810235
:1005E0000507190029EF1500250195F07501810215
:1005F00005081901290595057501910295017503F5
:100600009101C005010906A101050719E029E715B7
:100610000025019508750181029501750881010584
:1006200007190029FF150026FF00950675088100AF
:100630000508190129051500250195057501910287
:10064000950175039101C00011241FBECFEFDAE0C0
:10065000DEBFCDBF11E0A0E0B1E0ECE2FCE402C0FF
:1006600005900D92A638B107D9F722E0A6E8B1E0CF
:1006700001C01D92AD3BB207E1F70E9444140C94F7
:10068000C2250C9400008091880181110EC00E9447
:10069000FA1C2FEF83ED90E3215080409040E1F76A
:1006A00000C0000081E0809388010895A2E0B0E0DE
:1006B000ECE5F3E00C9430254983F82EFF0C81E043
:1006C0009DE0611102C080E09CE09A8304E610E0A6
:1006D00021E030E0AE014F5F5F4F682F8F2D0E9409
:1006E0007A1D892B69F421E030E0AE014F5F5F4F46
:1006F0006A818F2D0E947A1D9C0181E0232B09F0D5
:1007000080E02296E5E00C944C250F931F93880F10
:10071000611579F063E104E610E021E030E00E9429
:10072000CC1D9C0181E0232B09F080E01F910F91EB
:10073000089562E1F0CF80918B0181110CC04FEFE1
:1007400061E080E20E94560391E0982780918B013E
:10075000890F80938B010895CF934FEF60E080E283
:100760000E945603C1E0982F9C2780918B01890F2E
:1007700080938B014FEF61E080E20E945603982F37
:100780009C2780918B01890F80938B01CF910895D5
:1007900080E20E9443032198299822982A988498FD
:1007A0008C9885988D9886988E9887988F98299898
:1007B0002A988C988D988E988F980E949B036E989B
:1007C000769A52985A9A53985B9A54985C9A57988A
:1007D0005F9A3E98469A24982C9A0E94AC030895FA
:1007E0002F924F926F927F928F929F92AF92BF9271
:1007F000CF92DF92EF92FF920F931F93CF93DF93ED
:100800000F92CDB7DEB77C0180918B01811571F01D
:100810002091890130918A012F5F3F4F211580E29D
:10082000380768F430938A01209389013701CC247A
:10083000C394D12C10E0412C22242A940CC0109295
:100840008A011092890110928B010E949B030E94E1
:10085000AC03ECCF102FF301819091903F011292E5
:1008600012927F01133009F4C2C008F0B5C01130F4
:1008700009F4B7C0123009F4B7C0849A8C9801E02B
:10088000010F80918B01811509F4B7C08FE891E0C9
:100890000197F1F700C0000080918B01A12CB12CD1
:1008A00081111EC02982AE014F5F5F4F60E080E280
:1008B0000E94850391E0982780918B01890F809396
:1008C0008B01898180950E94CF06982F96959C7701
:1008D0008370892BB82EB694A82EA794AA24A79427
:1008E00069B1E9B189B156B149B12CB1E2FBEE274A
:1008F000E0F931E0E32790E2E902F001112463FB23
:10090000662760F9632790E46902B00111246E2B19
:100910007F2B99271C9993959327692B829581703A
:100920008327E0E18E02C0011124862B972B56FB12
:10093000552750F95327F8E05F9FB0011124862B0B
:10094000972B042E000C550B4095509557FB4427D0
:10095000552742F9842B952B26FB222720F92327A4
:10096000022E000C330B220F331F822B932B8A296C
:100970009B29F70191838083133009F460C008F04C
:1009800050C0113009F453C0123009F454C0849897
:100990008C988C9881E0F7012081318128153905E8
:1009A00009F480E0482AFFEFCF1ADF0A063009F089
:1009B00051CF842D0F90DF91CF911F910F91FF9018
:1009C000EF90DF90CF90BF90AF909F908F907F90EF
:1009D0006F904F902F900895143061F4219A2998C8
:1009E0004ECF859A8D984BCF869A8E9848CF879A0E
:1009F0008F9845CF229A2A9842CF41E050E00C2CA4
:100A000001C0440F0A94EAF7409561E080E20E9439
:100A1000560391E0982780918B01890F80938B0179
:100A20003BCF143081F4219829982998B3CF859829
:100A30008D988D98AFCF86988E988E98ABCF8798EB
:100A40008F988F98A7CF22982A982A98A3CF259A73
:100A50002D980895269A2E980895239A2B980895F4
:100A6000559A5D9A08950E9427050E942A050E94C2
:100A70002D050E943005559A5D982FEF80E792E092
:100A8000215080409040E1F700C00000259A2D9A47
:100A90002FEF80E792E0215080409040E1F700C0C6
:100AA0000000269A2E9A2FEF80E792E02150804096
:100AB0009040E1F700C00000239A2B9A2FEF80E7C7
:100AC00092E0215080409040E1F700C000000E9479
:100AD00027052FEF80E792E0215080409040E1F71A
:100AE00000C000000E942A052FEF80E792E021500D
:100AF00080409040E1F700C000000E942D052FEFDC
:100B000080E792E0215080409040E1F700C0000073
:100B10000E9430050E9427050E942A050E942D058B
:100B20000E9430050E94E6100895FB0180349E4724
:100B300059F48581811102C080E0089560E08CEA5B
:100B400090E00E949418F8CF81E0089508950895E8
:100B50008530B8F46630A8F44E3098F4E42FF0E015
:100B60009EE0699FE00DF11D112494E5899FE00D41
:100B7000F11D1124EE0FFF1FE452FF4F8591949158
:100B8000089581E090E008950E94A805089581E00D
:100B900008950E94C705089581E008950E94950573
:100BA000089508950E94D1050895A6E0B0E0EBED08
:100BB000F5E00C94322549835A839E83309191014C
:100BC00089819A8131111AC03E81311599F0211520
:100BD00089F00E94BC0B182F682F89819A810E948E
:100BE000980B69817A81812F0E94B1122696E3E0E9
:100BF0000C944E250E94AA0B182FF3CF0E94BC0B19
:100C000069817A81F1CFFC01262F40815181628177
:100C10007381848195810E94D5050895CF93DF93D8
:100C2000D82FC92F61E00E9403066D2F7C2F0E94F0
:100C3000C905DF91CF910895CF93DF93D82FC92FA6
:100C400060E00E9403066D2F7C2F0E94D205DF9189
:100C5000CF91089521E030E0A90102C0440F551F53
:100C60008A95E2F7CA010E94BA0A0895CF93C82F65
:100C700081E090E00C2E02C0880F991F0A94E2F7E1
:100C80000E9419108C2F0E942A06CF91089581E0AE
:100C900008950E9447060895CF93C82F0E94640AC2
:100CA0008C2F0E9449062FEF84E39CE02150804066
:100CB0009040E1F700C00000CF91089581E00E94CC
:100CC0004C060E94891C089580E00E944C060E94F8
:100CD0009A1C08950F931F93CF93DF938C0161E0CB
:100CE0000E940306EC01B8010E94CE058115E1F1D6
:100CF000B801CE010E945B198115B1F1B801CE0196
:100D00000E94AA14811581F1B801CE010E947F14BE
:100D1000811551F1B801CE010E94B413811521F162
:100D2000F8018581811581F0CA35FCE7DF0739F1CB
:100D300078F4C130ECE7DE07F9F0C330FCE7DF07F9
:100D4000C9F0C115DC4771F0C8010E94CC050DC087
:100D5000CB35ECE7DE07B1F0CC35DC47A9F70E94D4
:100D6000EB0FF2CF0E945E0680E0DF91CF911F91E2
:100D70000F9108950E94FC0F0E946406F5CF0E9417
:100D8000F40FE2CF0E94F80FDFCF0E94BA1B0E943F
:100D90000A0708950E940E070E94BF1B08958295BE
:100DA000982F990F990F9C7C869586958373982B25
:100DB000892F880F8A7A96959575892B089581E0F9
:100DC000089580FF08C02D9A81FF07C02E9A82FFE8
:100DD00006C02B9A08952D98F7CF2E98F8CF2B9810
:100DE0000895CF93DF93D82F0E94DF06C82F811577
:100DF00019F08D2F0E94E1068C2FDF91CF9108957D
:100E0000259A2D98269A2E98239A2B9808950E9419
:100E1000F106089580E00E94070708950E94A21934
:100E20000E9407070895CF930E94A219C82F8091AE
:100E30008C018C1779F0C0938C010E944A1C60933E
:100E40008D0170938E0180938F01909390018C2F70
:100E50000E940707CF910895ADE0B0E0E2E3F7E02C
:100E60000C943325488759876A877B878C879D87B1
:100E700091110E94F70E1F8286E0FE013896DE0176
:100E8000119601900D928A95E1F78D8181110DC027
:100E900029813A814B815C816D817E818F810E94A5
:100EA000410E2D96E2E00C944F25CE0101960E9452
:100EB0000E068111EDCFF5CFFC018481813021F444
:100EC000808191810E94EE0B0895611529F00E94A6
:100ED00010160E94D11608950E945916FACFCF938A
:100EE000C82F811599F08CEF8C0F813A88F48C2FE4
:100EF0000E94461A811529F08C2F0E94EF1A0E9439
:100F00008D0F8C2F0E94D51A0E948D0FCF910895BE
:100F100080E28C0F883048F4C77081E001C0880FF0
:100F2000CA95EAF70E94D80EEFCF8BE58C0F83307D
:100F300038F42C2F2452330BC9010E94D819E6CF64
:100F4000E8E5EC0FEB3150F4F0E0EE0FFF1FE65E4A
:100F5000FE4F808191810E94FE19D8CF83E38C0FD0
:100F60008331A0F661E08C2F0E946507CFCF8115F9
:100F700081F19CEF980F913A28F40E94EF1A0E9499
:100F80008D0F089590E2980F983050F4877091E09B
:100F900001C0990F8A95EAF7892F0E94DE0EEFCFE4
:100FA0009BE5980F933028F480E090E00E94D819D8
:100FB000089598E5980F9B3128F480E090E00E9416
:100FC000FE19089593E3980F933118F460E00E949E
:100FD000650708950F931F93CF93C82F8B010E942D
:100FE0006F070115110539F48C2F0E94B707CF91B7
:100FF0001F910F9108958FE99FE00197F1F700C0CD
:10100000000001501109EDCF60E570E0893311F067
:1010100060E070E00E94EA070895811521F00E94C7
:10102000D80E0E948D0F0895811521F00E94DE0ECA
:101030000E948D0F0895A0E0B0E0E1E2F8E00C948A
:101040002D256C01D62FC72FFC0115810681029535
:101050000F700E94CD0EE82E8115F9F0E12E1115CA
:10106000E1F08C2F807F803461F080E28D0F88303A
:10107000F0F08C2F807E803221F4D230C0F0011548
:10108000B1F08091930282FF12C082E00E94BE0FF5
:101090000E94CD0E91E0E82EE926EC2FE295EF704C
:1010A000C03CB0F5F0E0EC53FA4D0C941D25E12C5A
:1010B000F4CF0C2F0F70C03110F00295007F111586
:1010C00099F0011559F080E28D0F883010F0D111A0
:1010D00007C0802F0E94D80E0E948D0F8D2F51C007
:1010E000802F0E94E90EF8CF8D2F0E94B7070115BF
:1010F00079F080E28D0F883010F0D11104C0802F7C
:101100000E94DE0E03C0802F0E94EF0E0E948D0F02
:10111000E11489F00E94C90E80FD0DC0F601158210
:101120000E94C30E0E94F60AC6010E942B0A0E946A
:10113000C30E0E94060BCDB7DEB7E8E00C9449253C
:10114000FC2FFF70FF2EC07FC03219F0F29480EFA9
:10115000F822D11541F0D130D1F1111509F444C074
:101160000115F1F0BBCF8091930282FD15C01115DE
:1011700059F0F11429F08F2D0E94D80E0E948D0F86
:1011800080E00E946F07C4CF80E00E94B707F1148F
:1011900009F4BECF8F2DB4CF111569F0011104C031
:1011A0008F2D0E940D08B4CF013009F0B1CF8F2DE3
:1011B0000E940F0FADCF0111ABCF8F2D0E941408ED
:1011C0008F2D0E941B0F8F2D0E94FE0EA1CF111597
:1011D00021F0063008F09CCFE3CF053008F098CF1F
:1011E0008F2D0E94140894CF0115D1F3D93349F4FF
:1011F0002FEF87EE93E0215080409040E1F700C050
:1012000000008D2F0E94B70783CF8C2F869586957F
:101210008370811569F0813009F07ACF8D2F9C2F72
:101220009370111102C080E090E00E94FE1970CF0F
:101230008D2F9C2F9370111102C080E090E00E94CE
:10124000D81966CF612F8D2F0E94650761CF8C2F33
:101250008370811139C0111129C04D2F42954695D7
:101260004770440F440F2D2F2F7030E0042E02C022
:10127000220F331F0A94E2F780E090E0D4FF09C008
:101280008FE090E002C0880F991F4A95E2F78095A1
:101290009095C695C695C370822B932BC23071F082
:1012A000C33079F0C13039F00E94C60A0E94A219F9
:1012B0000E9407072DCF0E94BD0AF8CF0E94CF0AD7
:1012C000F5CF0E94BA0AF2CF111561F1C0FFEECF3F
:1012D0004D2F429546954770440F440F2D2F2F7088
:1012E00030E0042E02C0220F331F0A94E2F780E0A0
:1012F00090E0D4FF09C08FE090E002C0880F991FF2
:101300004A95E2F780959095C695C695C370822B55
:10131000932BC23069F0C33071F0C13031F00E94BC
:10132000310BC4CF823010F2D3CF0E94280BBECF36
:101330000E943A0BBBCF0E94DE0AB8CFCF701115C6
:1013400039F08C2F0E94F60A8D2F0E940D08AECF27
:101350008D2F0E9414088C2F0E94060BA7CFD23F1E
:1013600041F170F4D03FC9F0D13F91F0111509F46B
:1013700046C0011509F440C08D2F0E946F0796CF1B
:10138000D33FF1F0D43F91F78091930282FD22C0C8
:101390008C2F8F71111501F310C0111541F005301C
:1013A00008F084CF8C2F8F710E94180B7FCF0630EE
:1013B000F7CF8C2F8F711111CFCF0E94F60A76CF05
:1013C000111529F08C2F8F710E94EA0A6FCF0E94AD
:1013D000E50A6CCF111531F063E08C2F8F710E94FC
:1013E0009F0F64CF81E00E94BE0F023008F45ECFF1
:1013F00082E00E94BE0F5ACF8C2F8F71DECF011575
:1014000079F0D93349F4EFEFF7EE23E0E150F04003
:101410002040E1F700C000008D2F0E94B70746CFA3
:101420008C2F8F7199CF0F931F93CF93DF93EC0184
:10143000688179818D810E94FB0B8C010E94430B96
:101440000E94B90AB801CE010E941B08DF91CF911A
:101450001F910F910895CF93DF93EC018C8181153B
:1014600099F0CE010E946A06811111C00E94CD0E32
:10147000811551F08D81811539F08091930282FFA1
:1014800003C082E00E94BE0FDF91CF910895CE018C
:101490000E94130ACE010E941C06F6CF80E090E065
:1014A0000E94D81980E090E00E94FE190E94F70E79
:1014B0000E948D0F0E94EE160E94D11608950E9480
:1014C000091B0E944E0A08950E94E60E0E945F0AC0
:1014D0000895282F92959F70963099F060F4925F4E
:1014E0009F70923030F4203FB1F038F481E0283E14
:1014F00038F080E008959A5FF3CF81E0243FC9F788
:10150000089591E0813F09F090E081E0283E08F0E5
:1015100080E0892B089581E00895FC018481811584
:1015200039F0808191810E94EE0B0E94690A089532
:1015300080E00895A6E0B0E0E0EAFAE00C943325FC
:101540002696E2E00C944F25A7E0B0E0EAEAFAE044
:101550000C9433252796E2E00C944F2508950E94C1
:10156000AE0A08950E94AF0A9093C1018093C00112
:10157000089508950E94B20A08952091C001309103
:10158000C101822B932B0E94B20A08952091C001C1
:101590003091C101822393230E94B20A08952091C1
:1015A000C0013091C101822793270E94B20A089599
:1015B0000E94AE0A08950E94D80A08950E94DB0A8C
:1015C0009093BF018093BE01089580E090E00E9457
:1015D000DE0A089521E030E0A90102C0440F551F42
:1015E0008A95E2F7CA010E94DE0A089521E030E000
:1015F00002C0220F331F8A95E2F78091BE019091BD
:10160000BF01822B932B0E94DE0A089521E030E077
:1016100002C0220F331F8A95E2F720953095809102
:10162000BE019091BF01822393230E94DE0A089598
:1016300021E030E002C0220F331F8A95E2F780914B
:10164000BE019091BF01822793270E94DE0A089570
:101650002091BE013091BF01822B932B0E94DE0AA4
:1016600008952091BE013091BF01822393230E94EF
:10167000DE0A08952091BE013091BF018227932791
:101680000E94DE0A089508959B01677091E001C0F1
:10169000990F6A95EAF763E0369527956A95E1F721
:1016A000220F331F220F331FFA01E20FF31F40E016
:1016B00050E0682F70E08191DF019B01042E02C091
:1016C000369527950A94E2F721702195282729233A
:1016D00028272E934F5F5F4F4430510561F70895DF
:1016E0009C01982F977083E0369527958A95E1F7AE
:1016F000220F331F220F331FFB01E20FF31F40E0C5
:1017000050E080E0219130E0092E02C03695279507
:101710000A94E2F721703327042E01C0220F0A94A5
:10172000EAF7822B4F5F5F4F4430510559F7089518
:10173000282F862F963068F42E3058F4622F70E0F0
:101740002EE0929F600D711D112442E951E00E942C
:10175000440B0895292F963068F48E3058F490E0A9
:1017600062E971E03EE0239F800D911D11240E94EB
:10177000700B089580E00895A0E0B0E0E2ECFBE09B
:101780000C942C258C01E090BE01F090BF0180915B
:10179000C0019091C101E82AF92ACFE0D0E0CC2421
:1017A000C394D12CC6010C2E02C0880F991F0A9435
:1017B000E2F78E219F21892B49F4219798F7B12CCC
:1017C0008B2DCDB7DEB7E9E00C944825BC2EB801CF
:1017D0008C2F0E94BD12019781F3F2CFCF93DF933C
:1017E000D82FC92F0E94BC0B6D2F7C2F0E94BD12D9
:1017F000DF91CF9108951F93CF93DF93162FD72FAB
:1018000090919101911541F0862F972F0E94EE0B38
:10181000DF91CF911F910895811581F0862F972F29
:101820000E94BC0BC82F682F812F9D2F0E94980B00
:10183000612F7D2F8C2F0E94BD12EACF862F972F0C
:101840000E94AA0BC82FF4CF0F931F93CF93E09160
:10185000C201C7E08091C3018E1304C0CF911F91D4
:101860000F9108950E2F10E0CE9FF0011124EC533C
:10187000FE4F20813181428153816481758186814F
:101880000E94A40AF8013196E770E4CF2091FC0190
:101890003091FD014091FE015091FF0160910002E5
:1018A00070910102809102020E94A40A0895809121
:1018B0000202803178F480910102811559F0E091A3
:1018C000C2012091C3013091FD014091FC0157E01C
:1018D0002E1301C008956E2F70E05E9FF001112459
:1018E000DF01AC53BE4F14968C911497811561F1B2
:1018F00011968C911197831327C08C91841324C067
:1019000015968C91159781111FC012968D919C91FF
:10191000A091FE01B091FF018A1B9B0B883C9105B1
:1019200098F4809102028F70806180930202E653E6
:10193000FE4F80818F70806180838CEF91E00E94E8
:101940002B0A0E94240C0895FB013196E770C0CF4A
:10195000E091C2019091C30127E0E91302C080E049
:101960000895AE2FB0E02E9FF0011124EC53FE4FEE
:101970003181361306C03081381303C035813413EA
:1019800004C0FD013196E770E8CF81E008958F92A1
:101990009F92AF92BF92DF92EF92FF920F931F93AD
:1019A000CF93DF93CDB7DEB72D970FB6F894DEBF98
:1019B0000FBECDBF8C0186E0F801DE0118960190C4
:1019C0000D928A95E1F7F801F58084819CEF892ECC
:1019D00091E0992E9091000291111BC0811509F49C
:1019E000FFC0F11409F440C1C8010E948D0A81159D
:1019F00009F43AC187E0F801D40101900D928A956B
:101A0000E1F7C4010E945C070E94570C0E94460C3B
:101A1000E7C0E080A280B380D09001022091FE0157
:101A20003091FF01A501421B530BD11409F4DBC017
:101A3000483C510508F0A6C0811509F4D1C0909129
:101A4000FD01918080910202803108F06BC09912F3
:101A500028C09091FC019E1124C0F1105DC08F70D0
:101A60008061809302020E94460C8CEF91E00E94FC
:101A70002B0A80910202F8018683F12C8F2D2D967E
:101A80000FB6F894DEBF0FBECDBFDF91CF911F918F
:101A90000F91FF90EF90DF90BF90AF909F908F904D
:101AA0000895F11039C040E0692D8E2D0E94A80CD8
:101AB00040E0692D8E2D0E94A80CF82E8111DDCFFB
:101AC000888599850E94EE0B292F22952F709034DE
:101AD00050F49F70223080F0911599F0F8019681B2
:101AE000903178F4CBCF2A5F2F70223078F0C80184
:101AF0000E942B0AFD2CC2CF911519F0811509F413
:101B0000BDCF805E883008F4B9CFF1CF803F08F4B4
:101B1000B5CF815F8330F7CF8091020281608093DF
:101B20000202ABCF991207C09091FC019E1103C035
:101B3000F11409F479C0C8010E948D0A811509F4D5
:101B400093C0F11409F490C080910202803288F0B1
:101B50002091FC013091FD013A832983BC82AB8244
:101B6000909100029D831E828F83CE0101960E9478
:101B70002B0A87E0F801ACEFB1E001900D928A9555
:101B8000E1F742CF909102029031A0F44885598547
:101B90006A857B858C859D850E949A0A8CEF91E0F1
:101BA0000E942B0A87E0F40111928A95E9F70E94BE
:101BB000460C63CF8115A1F02091FD01818128138E
:101BC000BACF8091FC018E11B6CFF110B4CF9683BD
:101BD000C8010E942B0A87E0F40111928A95E9F767
:101BE000FF24F3944BCF483C510508F041C08115C8
:101BF000B9F3F114C9F19091FD01818198132AC0C4
:101C00008091FC018E1126C08091020280FD19C0D6
:101C10008031B8F08683807F803F39F08681982FAD
:101C2000907F905F8F70892B8683C8010E942B0A5A
:101C300087E0F801ACEFB1E001900D928A95E1F7F1
:101C4000E5CE87E0F801ACEFB1E001900D928A9506
:101C5000E1F7C6CFC8010E948D0A81118ACF809119
:101C60000202816080930202C8010E942B0AB8CF51
:101C7000488559856A857B858C859D850E949A0A51
:101C800091CFAEE0B0E0E7E4FEE00C943225288787
:101C900039874A875B876C877D878E87CE01089658
:101CA0000E94C70C6C858115A9F0611541F028854B
:101CB00039854A855B857D858E850E94A40A17E05B
:101CC0008091C2019091C30189133AC02E96E3E03E
:101CD0000C944E2587E0FE013896DE0111960190A6
:101CE0000D928A95E1F7611551F3A091C3018A2FF6
:101CF00090E00196877099272091C2012817190654
:101D000089F097E09A9FD0011124AC53BE4FFE0199
:101D1000319601900D929A95E1F78093C3010E944C
:101D2000240CCDCF0E94640A1092C3011092C2010C
:101D300087E0ECEFF1E0DF011D928A95E9F7BFCF74
:101D4000189FC00111248C539E4F0E94C70C81150F
:101D500009F4BCCFE091C2011E9FF0011124EC53A5
:101D6000FE4F20813181428153816481758186815A
:101D70000E94A40A8091C20190E001968770992781
:101D80008093C2019DCF80912B0286958695869582
:101D9000089580912B028770089590912B0297707F
:101DA00081E0911101C080E008958091570208956B
:101DB00090915702982B909357020895982F9095E1
:101DC00080915702892380935702089510925702F9
:101DD000089590915602982B909356020895982F4B
:101DE000909580915602892380935602089510920F
:101DF0005602089508950E94FA0E089590912C02BB
:101E0000292F2823211531F08095892380932C02D6
:101E10000E94FB0E089508950E940B0F0895909163
:101E20002D02292F2823281729F0982B90932D0273
:101E30000E940C0F089590912D02292F282321151F
:101E400031F08095892380932D020E940C0F089514
:101E500080912D02811529F010922D0280E00E94C0
:101E60000C0F0895CF93C091570280915602C82B52
:101E700080912D02811531F0C82B0E94241A811106
:101E80000E94280F8C2FCF910895CF93DF93C0919C
:101E90000201D09103010E94320F8883C091020198
:101EA000D091030148E050E063E272E0CE010E946D
:101EB0005A25892B59F088E0FE01A3E2B2E0019097
:101EC0000D928A95E1F7CE010E94AF19DF91CF9173
:101ED0000895CF93DF93C0910001D09101010E943A
:101EE000320F8983C0910001D091010140E250E09E
:101EF00063E072E0CE010E945A25892B59F080E2FE
:101F0000FE01A3E0B2E001900D928A95E1F7CE01C7
:101F10000E94BA19DF91CF9108950E94951B8130DC
:101F200039F48091920287FF03C00E94690F0895DF
:101F30000E94450F089508950E949B0F0895962FC3
:101F40002091930222FF11C0682F660F660F660F63
:101F5000692B60932B020E94F60A80912B028695D2
:101F6000869586950E949C0F08950E94F60A089512
:101F700010922B0280E00E949C0F089590912B02FA
:101F80008095892380932B02282F277021110DC063
:101F9000891759F09091930292FF07C08695869514
:101FA00086950E94060B0E94B80F089590919302A7
:101FB00092FB222720F9281769F080FB92F9909371
:101FC000930280919202909193020E94241082E0E9
:101FD0000E94BE0F089580919302002482FF039413
:101FE000802D0E94D60F089581E00E94D60F08959B
:101FF00080E00E94D60F08956FEF7FEF80E090E0C1
:102000000E94AC25089580E090E00E9478259C0114
:1020100081E0253E3E4F09F080E0089582E090E0A7
:102020000E947025089583E090E00E94702590E062
:102030000895682F83E090E00E948E25089584E043
:1020400090E00E9478250895BC0184E090E00E9411
:10205000AC250895AB01BC018FE090E00E94A02563
:102060000895AB01BC0183E190E00E94A025089592
:1020700060E070E0CB010E943110089560E070E0F4
:10208000CB010E942A100E9438100895A8E0B0E009
:10209000ECE4F0E10C94332565EE7EEF80E090E017
:1020A0000E94AC2560E082E090E00E948E2581E0F5
:1020B00090E09093C1018093C0010E94191060E0EC
:1020C00074E184E090E00E94AC2560E086E090E05E
:1020D0000E948E2560E087E090E00E948E2540E01F
:1020E00050E0BA0188E090E00E94A02560E083E221
:1020F00090E00E948E2560E08CE090E00E948E25AA
:1021000060E08DE090E00E948E2519821A821B8289
:102110001C821D821E821F82188648E050E067E103
:1021200070E0CE0101960E947E2540E050E0BA01A9
:102130008FE190E00E94A0250E943E102896E2E0E8
:102140000C944F250E9446100895682F8EE090E071
:102150000E948E250895A6E0B0E0E1EBF0E10C943A
:1021600031250E943E1C8C018091580290915902A9
:102170008017910779F019821A820E943E1CBC01D7
:1021800049815A8180E090E00E942C071093590207
:10219000009358022696E4E00C944D250E944A1CB8
:1021A00060936A0270936B0280936C0290936D024D
:1021B000609366027093670280936802909369024D
:1021C0000895089508950E94E1100895089582EBFE
:1021D00093E10E9459140E94E2100E94E3100895B6
:1021E00081E0089581E008950E94F0100895089517
:1021F00008950E94F7100E94F81008950E9403109D
:10220000811102C00E94A2100E940E1080936E02E3
:102210000E941F1090939302809392020E947C145C
:102220000E9413100E94BA0A8091BE019091BF01D2
:102230000E94DB0A08950E94351C0E94D6130E945A
:10224000FE100E9400070E9433050895A6E0B0E04A
:10225000ECE2F1E10C9427250E94F21081110AC0F2
:102260000E94AB100E940F170E9413072696EEE003
:102270000C9443250E94EC132AE5822E22E0922E34
:10228000540110E0F501619071905F01812F0E946F
:10229000CC136C011F5F163009F44AC0681679062A
:1022A00089F380916E0281FD0E94D5130E94F41083
:1022B000782E10E066246394812F0E94CC137C0159
:1022C000F401A190B1904F018A159B0559F1A82600
:1022D000BF2400E0CC24C394D12CC5018C219D21C6
:1022E000892BC1F07114B1F009831A830E943E1C3E
:1022F0009C838B836D8221E0C7018C219D21892BDA
:1023000009F420E049815A816B817C818D81922F73
:102310000E942C070F5FCC0CDD1C0E30F1F6F4018F
:10232000F292E2921F5F163039F60E94CE109ACFD9
:102330006816790609F0B5CF93CF1F93CF93DF933B
:102340000E94C212EC01811522E5920708F05DC0DF
:10235000811540E5940708F0DBC0803E910528F523
:102360008D3C910508F0ACC0883A910578F4853A27
:10237000910508F0A2C08130910509F441C004978D
:10238000813A9105E8F1C0E0D0E03AC0885A91095D
:102390004B97C8F7C85AD0E0CC0FDD1FC05BDE4FAB
:1023A0000990D881C02DD4642BC0811550E49507C5
:1023B000F8F4C11580E2D80708F0C0C0C83ED105C6
:1023C000F8F0CE019A9581159F41E8F68D2F0E9475
:1023D0006313182FCE0199270E94C212212F30E0DB
:1023E000322F2227E901CC27DF71C82BD92B08C057
:1023F00099270E94C212CC27DF70C82BD92BD06A34
:10240000CE01DF91CF911F910895803842E5940766
:10241000C8F5803652E5950708F05BC0C03482E508
:10242000D807D0F4C03292E5D90708F04BC08C2F02
:102430008695869520E2829FC0011124C37021E019
:1024400030E0A90102C0440F551FCA95E2F7EA0126
:10245000C82BD92BDD68D4CF8C2F869586958770B5
:1024600050E2859FC0011124C37021E030E0A90132
:1024700002C0440F551FCA95E2F7EA01C82BD92BB9
:10248000DC68BECF803C52E5950758F48F71C03AA6
:10249000D245A0F590E0982F8827EC01C46FD06A50
:1024A000AFCF805C9245809708F06DCFDC2FCC27B2
:1024B000CC27DF71C06FD06AA3CFA497D064A0CF20
:1024C000D0659ECFCF71D0E0DC2FCC27C16FD06A12
:1024D00097CF86958695877020E2829FC001112450
:1024E000C37021E030E0A90102C0440F551FCA9516
:1024F000E2F7EA01C82BD92BDA6882CF0E94631376
:10250000C82FD0E0DC2FCC27CC27DF71D06278CF6A
:102510008F710E94631353E0CC0FDD1F5A95E1F7D2
:10252000CC27DF70282F30E084FF04C050E1859F66
:1025300090011124C22BD32BD06962CF8D2F8F71C4
:102540000E946313182FCE0199270E94C212212FD7
:1025500030E0322F222722273F71282B392BE90127
:10256000D5CF462F672F763028F44E3018F40E94CE
:10257000C405089580E090E008950E94B1120E9481
:102580009D1108959C01803E910509F448C0D8F43E
:102590008133910509F47DC048F48932910509F42D
:1025A0006DC08A9709F47CC0C901089589339105EB
:1025B00051F18238910539F1C597B1F780919202B6
:1025C00085FFF2CF29C0843E910509F447C048F445
:1025D000823E910599F1833E9105A9F121EE30E00B
:1025E000E3CF863E910509F444C0873E9105E1F6AC
:1025F0008091920283FD61C09091930291FF2BC064
:1026000024EE30E0D1CF809192028370811152C0CC
:102610008091930283FFC8CF29E230E0C5CF80913B
:10262000920280FD33C09091930290FFBDCF23EEC4
:1026300030E084FFB9CF20E030E0B6CF8091920245
:1026400082FDF5CFB1CF8091920282FD30C0909192
:10265000930290FD2FC084FFA7CFEDCF809193020E
:1026600081FFA2CF8091920227EE30E084FDE3CF7C
:102670009BCF8091920283FDF7CF96CF80919202FB
:1026800085FD1EC08091930283FF8ECF29E330E049
:102690008BCF8091920286FF87CF2AE230E084CFF1
:1026A0008091920286FF80CF21E330E07DCF22EE41
:1026B00030E07ACF20EE30E077CF26EE30E074CFF6
:1026C00025E330E071CF9091920292FF10C041E07B
:1026D000282F2471243009F040E031E0282F2871A0
:1026E000283009F030E0431711F02CE0822793FFE7
:1026F00010C041E0282F2471243109F040E031E07E
:10270000282F2871283109F030E0431711F02CE010
:1027100082273091930230FF10C051E0282F2171A1
:10272000213009F050E041E0282F2871283009F0CD
:1027300040E0541711F029E0822731FF10C041E03A
:10274000282F2171213109F040E031E0282F287134
:10275000283109F030E0431711F029E0822794FD79
:10276000877E089580E00895CF939C01FB01805EF1
:102770009245C1E0809738F4C581C11104C0822F11
:102780008F710E9436068C2FCF9108950E94A60566
:1027900008950E94A7050895E82FF0E0EE0FFF1FAF
:1027A000E056FD4F80819181089508950E94C803ED
:1027B0008CE0E4E9F2E0DF01982F1D929A95E9F7A9
:1027C000E0EAF2E0DF011D928A95E9F786E00E94D7
:1027D000FF130E94C6130895CF9384E992E00E94EC
:1027E000F003282F46E060EA72E084E992E00E945C
:1027F0000014C82F0E94C9138C2FCF9108950895FB
:10280000A0E0B0E0E6E0F4E10C942D25D82EE92E0E
:10281000F62ED72F042FC22F211579F081E0809357
:1028200071020E943E1C9093700280936F0280E0C0
:10283000CDB7DEB7E8E00C944925C0907102C11411
:10284000B1F380916F02909170020E94561C05971F
:1028500070F310E0000F111FA8016D2D7E2D8F2D3C
:102860009D2F0E945A25892B41F0A8016D2D7E2DA8
:102870008F2D9D2F0E946725CC2D109271028C2FD9
:10288000D7CF0E94261108950E94D71B0E94B21F25
:102890000E94E7100E94CC1F0E941B110E94D91FAA
:1028A0000E94DE1F0E9441140E94F81F0E94F9102E
:1028B000F7CF909387018093860108950E94FC0FC3
:1028C000089580E00E94CC13817008950E94EC135B
:1028D0002FEF86E791E0215080409040E1F700C063
:1028E00000000E94EC130E946114811521F00E94E7
:1028F0005E140E94891C08950E9466140895CF9367
:10290000DF93EB0186319C4719F50E94D50E9D811E
:102910009115A1F08A7A91E0811101C090E0909325
:102920007202811549F085E30E94D51A0E948D0F2D
:1029300080E0DF91CF91089589E2F6CF8091720215
:10294000811521F085E30E94EF1AF0CF89E2FBCFD9
:1029500081E0EFCFCF93DF93EC01FB0185818115FF
:1029600009F4CFC09E0130572332310508F0AFC0C3
:102970000E941F109093930280939202FE01E150F7
:10298000F047E232F10520F4E053FA4D0C941D2596
:102990008091920281608093920290C08091930214
:1029A0008860809393028AC0809192028260F3CF04
:1029B000809192028460EFCF809192028860EBCF89
:1029C000809193028160EDCF809193028260E9CF84
:1029D000809192028061DFCF809192028062DBCF92
:1029E000809192028064D7CF0E94640A8091920203
:1029F0008068D1CF809192028C60CDCF809193027C
:102A00008360CFCF809192028E7FC5CF8091930259
:102A1000877FC7CF809192028D7FBDCF8091920238
:102A20008B7FB9CF80919202877FB5CF809193023F
:102A30008E7FB7CF809193028D7FB3CF809192022A
:102A40008F7EA9CF809192028F7DA5CF8091920237
:102A50008F7BA1CF0E94640A809192028F779BCFD7
:102A600080919202837F97CF809193028C7F99CF40
:102A700080919202992782FF939590FB82F990FBB7
:102A800083F989CF80919302982F909590FB80F9DC
:102A900090FB81F986CF90919202892F8F7B96FFD0
:102AA000806479CF0E94640A90919202892F97FBEB
:102AB00087F9805870CF81E00E94A5108091920222
:102AC000909193020E9424100E94640A80E0DF919A
:102AD000CF91089580E0F0CF90919202892F8F7E60
:102AE00094FF806158CF90919202892F8E7F90FF42
:102AF000816051CF90919302892F877F93FF8860E7
:102B000050CF81E0E4CF282F35EB2303C0011124FF
:102B100097FF04C080589109892F089580589F4FCE
:102B2000FBCF8091790280FF0DC06091090170E0B8
:102B3000660F771F60387105B0F561157105A9F151
:102B4000862F089581FF07C06091090184E0689F86
:102B5000B0011124EFCF82FF04C06091090188E029
:102B6000F6CF909178029115D9F0209108018091CB
:102B70000901682F70E0921730F043E0660F771F6D
:102B80004A95E1F7D7CF899FC001112433E0880F20
:102B9000991F3A95E1F7622F70E00E940925CACF8C
:102BA00068E070E0CDCF8FE7089581E008958091CF
:102BB000790280FF0CC06091050170E07595679502
:102BC000759567956115710549F1862F089581FF07
:102BD00006C06091050170E075956795F3CF60912F
:102BE000050182FD0BC0909177029115A1F06091D3
:102BF000040180910501961738F0682F70E0603865
:102C0000710500F38FE70895899FC001112470E0DA
:102C10000E940925F4CF61E070E0D7CF81E00895EC
:102C2000E3E3E80FE331E0F5F0E0EE50FA4D0C9409
:102C30001D250E949115819580937D0208950E9423
:102C40009115FACF0E949115819580937C02089589
:102C50000E949115FACF0E94D71580937E020895A5
:102C60000E94D7158195F9CF0E94D7158195809341
:102C70007F0208950E94D715FACF815D990B21E05C
:102C800030E001C0220F8A95EAF780917B02822B07
:102C900080937B020895809179028160809379020C
:102CA0000895809179028260F9CF809179028460E1
:102CB000F5CF40917C028D3C59F480917D0287FFD5
:102CC0000DC010927D02411559F41092780208C08F
:102CD0008E3C81F480917D0218169CF3411581F0A1
:102CE00080917E0290917F02892B811159C01092B0
:102CF000770208958F3C41F447FFF0CF10927C0299
:102D000080917D028115E0CF803D19F41416B4F353
:102D1000E5CF90917E02893D29F41916FCF61092B8
:102D20007E02DCCF8A3D19F497FFD8CFF8CF90917F
:102D30007F028B3D29F497FFD1CF10927F02CECF37
:102D40008C3D19F41916CCF3C9CF9FE2980F983037
:102D500090F4815D990B21E030E0B90102C0660F6B
:102D6000771F8A95E2F7CB01809590917B028923AA
:102D700080937B02B3CF8D3D31F4809179028E7FB9
:102D800080937902ABCF8E3D21F4809179028D7FC3
:102D9000F7CF8F3D09F0A2CF809179028B7FF0CFE2
:102DA00008950E943E1C20917C0230917D02232BCD
:102DB000211521F0809375029093760220917E0276
:102DC00030917F02232B211521F080937302909381
:102DD00074028AE792E00E94C919089586E0EAE742
:102DE000F2E0DF011D928A95E9F7109278021092C5
:102DF0007702109279020895FC01828181110DC041
:102E0000838181110AC08481811107C081E095818D
:102E1000911101C080E08170089581E0FCCFA6E0AF
:102E2000B0E0E5E1F7E10C942D2586E0EAE7F2E079
:102E30009E012F5F3F4FD90101900D928A95E1F7D6
:102E400010927C0210927D0210927E0210927F02FC
:102E50008B819C81892B7901811589F08091750284
:102E6000909176020E94561C6C0180917802811527
:102E7000B9F190910A019C151D0408F43EC08D81A2
:102E80009E81892B811591F080917302909174023B
:102E90000E94561C8C0180917702811509F45FC055
:102EA000909106019017110608F467C0B7018AE7F0
:102EB00092E00E94231B811105C08AE792E00E94E4
:102EC000FC1681110E94D11686E0F701AAE7B2E054
:102ED00001900D928A95E1F72696E8E00C94492539
:102EE00020910B019AE0299F900111242C153D059A
:102EF00030F68F5F8093780202C08F3FD1F7DB807E
:102F0000D11459F00E94911591E01D140CF09FEF1F
:102F1000899F802D112480937C02DC80D11459F08C
:102F20000E94911591E01D140CF09FEF899F802D58
:102F3000112480937D0280917C02811509F49FCF3A
:102F4000D0907D02D11409F49ACF0E94831580930A
:102F50007C028D2D0E94831580937D0290CF20915D
:102F600007019AE0299F900111242017310708F0EA
:102F70009DCF8F5F8093770202C08F3FD1F71D8175
:102F8000111559F00E94D71591E011160CF09FEF22
:102F9000899F802D112480937E021E81111559F086
:102FA0000E94D71591E011160CF09FEF899F802D9C
:102FB000112480937F0280917E02811509F476CFDF
:102FC00010917F02111509F471CF0E94831580932F
:102FD0007E02812F0E94831580937F0267CFA0E03D
:102FE000B0E0E5EFF7E10C942C25E82FF0E0EC5D84
:102FF000FB4FB490282F26952695269530E0F901B1
:10300000EC53FB4F0491877010E0082E02C0159519
:1030100007950A94E2F701701127F901EC54FB4F70
:10302000E490F12C082E02C0F594E7940A94E2F79C
:10303000E0FAEE24FF24E0F8F901EC55FB4FC491CF
:10304000D0E002C0D595C7958A95E2F7C170DD271B
:10305000C62ED12C0115110549F5E114F10431F00A
:1030600086EE0E946F07C601009771F5B6018B2DA1
:103070000E94EA07C601009779F5E114F104A1F571
:103080000115110531F081EE0E94B707C6010097C6
:10309000C9F5CD2B31F08CE20E940408C114D10493
:1030A000C9F5CDB7DEB7E9E00C94482581EE0E9462
:1030B0006F07C601009789F2EFE9FFE03197F1F75A
:1030C00000C000000197F6CFEFE9FFE03197F1F77C
:1030D00000C000000197C8CFEFE9FFE03197F1F79A
:1030E00000C000000197C7CF86EE0E94B707C60157
:1030F000009731F2EFE9FFE03197F1F700C00000EF
:103100000197F6CFEFE9FFE03197F1F700C000003B
:103110000197BDCF8FE99FE00197F1F700C0000054
:1031200091E0C91AD108BACFFF920F931F93CF93A2
:10313000DF938C01F62EF8018491811509F450C0BB
:10314000813009F048C0E8012196FE018491813068
:1031500049F42196FE0184910E9404088E010F5FBC
:103160001F4FE9CF823039F4E8012296FE018491A5
:103170000E946F07F3CF833039F4E8012296FE01F5
:1031800084910E94B707EACF843041F7E801229684
:10319000FE01849120E030E04AE0FE013196805348
:1031A000990B8A30910560F021153105B9F28FE94C
:1031B0009FE00197F1F700C0000021503109F4CFE2
:1031C000429FB001439F700D11249C01260F371FB1
:1031D0008491EF01E2CF6F2D0E94EF17E801BECF7F
:1031E000CDB7DEB7E5E00C944C250F931F93CF933A
:1031F000DF93C42FD22FFC0185818115C9F0409344
:1032000082020E943E1C909381028093800280E2A1
:103210008C0F883040F4C77081E001C0880FCA95D8
:10322000EAF70E940D08DF91CF911F910F91089549
:1032300010918202141333C0809180029091810218
:103240000E94561C883C910550F5C0E2CD0F1D1719
:10325000C1F080E2810F883040F4177081E001C036
:10326000880F1A95EAF70E941408C83050F491E0CC
:103270008D2F877001C0990F8A95EAF7892F0E94D8
:103280000D08802F0E940408C83068F6D77081E0CE
:1032900001C0880FDA95EAF70E941408C4CF80E2D3
:1032A0008C0F883008F0BFCFC77081E001C0880F55
:1032B000CA95EAF7F1CF0F93DB01FC01E851FC4717
:1032C000E730F10598F5EB5FF94D0C941D2506E20A
:1032D00021EE41EE6AE17CE7CD010E94F51880E025
:1032E0000F91089507E225EE45EE6BE17CE7F4CF00
:1032F00006E221EE40EE68E17CE7EECF07E225EE44
:1033000044EE69E17CE7E8CF06E221EE42EE6CE1B3
:103310007CE7E2CF07E225EE46EE6DE17CE7DCCF0D
:1033200008E221E045EE6EE17CE7D6CF15968C9160
:1033300081111092820281E0D3CF90938802809312
:1033400087020895E0918702F0918802309729F072
:103350000190F081E02D0995089580E00895E091B5
:103360008702F0918802309721F00280F381E02DEE
:1033700009950895DC01E0918702F0918802309769
:1033800039F086E08C930480F581E02DCD0109951C
:103390000895DC01E0918702F0918802309739F0BE
:1033A00082E08C930680F781E02DCD010995089588
:1033B000A3E0B0E0EEEDF9E10C9433259C0180919F
:1033C00085029091860282179307A1F030938602BE
:1033D00020938502E0918702F0918802309751F0A6
:1033E00083E089833B832A830084F185E02DCE012D
:1033F000019609952396E2E00C944F25A3E0B0E0F6
:10340000E4E0FAE10C9433259C01809183029091D1
:10341000840282179307A1F03093840220938302E1
:10342000E0918702F0918802309751F084E089831F
:103430003B832A830084F185E02DCE010196099516
:103440002396E2E00C944F25CF93DF93C0910201C5
:10345000D091030122960E94951B813081F48091C6
:10346000920287FF0CC0C0910001D0910101229609
:103470009EE180E0915028F4DF91CF91089596E08D
:10348000F8CF29912115B1F38F5FF4CFCF93C82FD7
:10349000811102C080E031C00E94951B813021F46F
:1034A0008091920287FD0EC08091020190910301EC
:1034B000FC013296089621912C1709F1E817F907BB
:1034C000D1F7E8CF8C2F869586958695C03F10F76B
:1034D000E0910001F0910101E80FF11D228130E03F
:1034E000C77081E090E002C0880F991FCA95E2F78B
:1034F0002823392381E0232B69F2CF91089581E0BD
:10350000FCCF9C01FC0132968FEF90E04191461771
:1035100051F08F3F19F4411101C0892F9F5F963000
:10352000A9F78F3F09F40895280F311D87FD3A95BB
:10353000F901628308959C01FC013296285F3F4F98
:103540008191861302C0DF011E92E217F307C1F7D3
:103550000895FC01862F869586958695603F60F4D8
:10356000E80FF11D677021E030E001C0220F6A957D
:10357000EAF78281822B82830895FC01862F86954B
:1035800086958695603F80F4E80FF11D677081E0B5
:1035900090E09C0102C0220F331F6A95E2F7B90147
:1035A00060958281682362830895CF93C82F0E941B
:1035B000951B6C2F813061F48091920287FF08C0C7
:1035C00080910001909101010E94A91ACF91089564
:1035D00080910201909103010E94811AF7CFCF934D
:1035E000C82F0E94951B6C2F813061F4809192024C
:1035F00087FF08C080910001909101010E94BD1ACF
:10360000CF91089580910201909103010E949B1A2D
:10361000F7CF0E94951B813079F48091920287FF49
:103620000BC0E0910001F091010132968EE1DF01C3
:103630001D928A95E9F70895E0910201F091030146
:10364000329686E0F4CFDC01FB0111969C91119734
:103650008181981322C012968C911297811519F0CE
:10366000928189131AC013968C911397811519F0C2
:103670009381891312C015968C911597811519F0B5
:10368000958189130AC014969C91911521F081E0CF
:103690002481291303C080E001C081E08170089576
:1036A00008950E94501B08958F5F80930F016091D1
:1036B0000C0170910D0180910E0190910F010E94FB
:1036C000511B089583E080930F0160910C0170916C
:1036D0000D0180910E0190910F010E94511B0895E0
:1036E0000E94541B089581E080930F0160910C01AA
:1036F00070910D0180910E0190910F010E94511B5C
:1037000008950E94731B089591E0811101C090E01B
:1037100090930E0160910C0170910D0180910E014A
:1037200090910F010E94511B089580910E01089500
:1037300080930D0160910C0170910D0180910E013B
:1037400090910F010E94511B089580910D010895E1
:1037500080930C0160910C0170910D0180910E011C
:1037600090910F010E94511B089580910C010895C2
:10377000089508950E94B91B0895089508950E9420
:10378000B81B0895CF930E94BD1B0E94EC130E94AA
:10379000BE1BC0E08C2F0E94CC13892B31F4CF5F6D
:1037A000C630C1F780E0CF91089581E0FCCF85B7A6
:1037B000806885BF85B7806885BF08951F921FB652
:1037C0001F9211248F939F93AF93BF93809189028F
:1037D000811113C08091AC029091AD02A091AE0214
:1037E000B091AF024196A11DB11D8093AC029093A0
:1037F000AD02A093AE02B093AF02BF91AF919F9183
:103800008F911F901FBE1F9018958091B402843035
:1038100031F10E94C5061092890288E190E020E40F
:103820000FB6F894A895809360000FBE20936000B7
:1038300083B7817F846083BF83B7816083BF7894BF
:10384000889583B78E7F83BF0FB6F894A895809133
:103850006000886180936000109260000FBE089540
:103860000E94640A0E94CA06089582E084BD93E023
:1038700095BD9AEF97BD80936E0008952FB7F89489
:103880008091AC029091AD02A091AE02B091AF02D6
:103890002FBF08952FB7F8946091AC027091AD02DC
:1038A0008091AE029091AF022FBF08959C014FB757
:1038B000F8948091AC029091AD02A091AE02B091CB
:1038C000AF024FBF821B930B089578941F921FB6CF
:1038D0001F9211248F939F93AF93BF938091AC025B
:1038E0009091AD02A091AE02B091AF020196A11DE0
:1038F000B11D8093AC029093AD02A093AE02B09341
:10390000AF02BF91AF919F918F911F901FBE1F90EB
:10391000189587E797E7909301088093000888E15E
:103920009AE00FB6F894A895809360000FBE90932C
:103930006000FFCF88E19AE00FB6F894A8958093D5
:1039400060000FBE90936000FFCFFF920F931F9314
:10395000CF93DF93182FEB011092BC0084EA809381
:10396000BC000E943E1C082FF92E8091BC0087FFEE
:1039700028C08091B900887F883029F08091B900F3
:10398000887F8031A1F51093BB0084E88093BC0050
:103990000E943E1C182F092F8091BC0087FF1FC07A
:1039A0002091B900287F80E090E0283199F081E0F3
:1039B00090E0203411F480E090E091958195910998
:1039C00009C0802F9F2D0E94561CC817D90768F682
:1039D0008EEF9FEFCDB7DEB7E5E00C944C25812F3D
:1039E000902F0E94561CC817D907B0F6F1CF8FEF61
:1039F0009FEFF0CF1092B9008CE08093B80008954B
:103A00000F931F93CF93DF93EB018093BB0084E868
:103A10008093BC000E943E1C182F092F8091BC008F
:103A200087FF11C02091B900287F81E090E0283203
:103A300011F480E090E0919581959109DF91CF910B
:103A40001F910F910895CF3FDC0741F3812F902FF5
:103A50000E94561CC817D90708F78EEF9FEFEECFCC
:103A60000F931F93CF93DF93EC0184EC8093BC0002
:103A70000E943E1C182F092F8091BC0087FF08C0B0
:103A80008091BB0090E0DF91CF911F910F9108953D
:103A9000CF3FDC0789F3812F902F0E94561CC81757
:103AA000D90750F78EEF9FEFEECF0F931F93CF9371
:103AB000DF93EC0184E88093BC000E943E1C182F29
:103AC000092F8091BC0087FF08C08091BB0090E067
:103AD000DF91CF911F910F910895CF3FDC0789F3BC
:103AE000812F902F0E94561CC817D90750F78EEFD0
:103AF0009FEFEECFA0E0B0E0E0E8FDE10C942725D9
:103B0000682E962E5A01690178010E943E1C782E7B
:103B1000892E0431110530F10F3F100731F1C80132
:103B200064E170E00E94F524162F072F612F702F9B
:103B3000862D0E94A51CEC01892BC9F0FFEFEF1622
:103B4000FF06A1F3872D982D0E94561CE816F90652
:103B500068F784E98093BC00CE01CDB7DEB7EEE014
:103B60000C94432511E000E0E1CF15E0FCCFB70154
:103B7000892D0E94001DEC018501CA0CDB1C0C156F
:103B80001D0539F3209729F7B701F80181918F01BD
:103B90000E94001DEC01F3CFA0E0B0E0E2EDFDE1FA
:103BA0000C942725982E862E6A01590178010E94CF
:103BB0003E1C3C010431110550F10F3F100751F13B
:103BC000C80164E170E00E94F524162F072F612FD1
:103BD000702F892D0E94A51CEC01892BE9F0FFEFC5
:103BE000EF16FF06A1F3C3010E94561CE816F90662
:103BF00070F784E98093BC00CE011C161D0614F4F6
:103C000080E090E0CDB7DEB7EEE00C94432511E004
:103C100000E0DDCF15E0FCCFB701882D0E94001D2C
:103C2000EC01892B31F7689490F80E943E1C782EA5
:103C3000892E84E1E816F10450F1EFEFEE16FE064E
:103C400049F1C70164E170E00E94F524162F072FA7
:103C5000612F702F892D0E94A51CEC01892BE1F4A6
:103C600000E010E0F1E0AF1AB1080A151B0500F5FD
:103C7000D7FDBFCFC7010E94301DEC0197FD04C0E6
:103C8000F601E00FF11F80830F5F1F4FEECF11E0B1
:103C900000E0DECF15E0FCCF8FEFE816F806C1F2AA
:103CA000872D982D0E94561CE816F90688F6D8CF65
:103CB000D7FD9FCFC7010E94551DEC0197FD05C0A0
:103CC000CA0CDB1CF601808394CFCEEFDFEF91CFDF
:103CD000282FCB01BA013091B4023430D9F42F70BF
:103CE0002093E9002FEF3091E80035FD06C035ED57
:103CF0003A95F1F700002A95B1F72091E80025FFE9
:103D000009C040E050E00E946F208091E8008E776B
:103D10008093E8000895BC0143E050E082E00E94F7
:103D2000681E0895BC0146E050E082E00E94681ED3
:103D30000895BC0140E250E082E00E94681E0895B0
:103D4000CF93DF93D82FC92F0E94951B48E050E0F6
:103D50006D2F7C2F81E00E94681E88E0ED2FFC2FE4
:103D6000AAE8B2E001900D928A95E1F7DF91CF9138
:103D700008958091B302811109C00E94F8210E9428
:103D800055228091E20084608093E20008951092B1
:103D9000B30208950E94731B81E00E94841B089562
:103DA0006091B00281E0611101C080E00E94621B5D
:103DB00008959091B40281E0943009F080E0609120
:103DC000B0020E94701B089542E061EC81E00E9405
:103DD000742142E261EC82E00E9474219091B4026D
:103DE00081E0943009F080E06091B0020E94541BA1
:103DF00008958091B602893089F148F4823009F43F
:103E0000A0C0833009F45AC0813041F008958A304F
:103E100009F487C08B3009F46CC008958091B50215
:103E2000813A09F04AC08091E800877F8093E800DA
:103E30008091B9029091BA02892B61F060E080E034
:103E400090E070E00E94BF208091E8008B77809323
:103E5000E800089568E08AE892E0F3CF8091B50227
:103E6000813259F58091B9029091BA02029728F5F2
:103E70008091E800877F8093E8008091E80082FFCE
:103E800018C09091F3008091F200029731F4809174
:103E9000F100813011F0863021F48091F1000E9410
:103EA000981B8091E8008B778093E8000E94A821FE
:103EB00008958091B4028111E0CF08958091B502F8
:103EC000813AD9F78091B9029091BA02892BA9F76A
:103ED0008091E800877F8093E8008091E80080FF70
:103EE000FCCF0E94951B8093F1008091E8008E77B3
:103EF000DBCF8091B502813201F78091B9029091B8
:103F0000BA02892BD1F68091E800877F8093E80080
:103F10000E94A8218091B7020E94841B0E94640A1B
:103F200008958091B502813241F68091E800877F43
:103F30008093E8000E94A8218091B8020E94A81BEB
:103F400008958091B502813A09F0B7CF8091E800D9
:103F5000877F8093E8008091E80080FFFCCF0E947B
:103F6000B51BC1CF84B7877F84BF0FB6F894A895DF
:103F700080916000886180936000109260000FBEA5
:103F800080E890E00FB6F894809361009093610010
:103F90000FBE0E94811B08950E94F8210E945522A5
:103FA000E2EEF0E080818460808378940E94DB24DC
:103FB000089580E191E00E949D1908958091B402D6
:103FC000853031F48091B402853019F00E94301CA4
:103FD00008950E94051C0E94C21B811599F38091CF
:103FE000B202811579F30E9459200E94640AEACF37
:103FF00008959A014091BB025091BC020E94012099
:104000000895FC01D9018F2F992783309105C1F0C4
:1040100068F48130910509F447C0029761F48BE39D
:1040200090E020E035E02D933C9308958132910596
:10403000E1F0829749F180E090E020E030E0F3CFBA
:10404000CF019927E13059F08230910559F0ECEF1A
:10405000F4E0892B81F7849190E09F01E4CFE8EEB2
:10406000F4E0F9CFE4EDF4E0F6CF89E090E022E16E
:1040700035E061157105B9F289E090E02BE235E099
:104080006130710581F2D7CF84E490E023E036E01F
:104090006115710541F286EB90E02DE435E0613069
:1040A000710509F4C0CFC7CF82E190E02BE335E082
:1040B000BACF80E189BD82E189BD09B400FEFDCFA0
:1040C0008091D8008F7D8093D8008091E00082603D
:1040D0008093E0008091E00081FDFCCF0895AF92D5
:1040E000BF92CF92DF92EF92FF920F931F93CF93E5
:1040F0006C018B017A010E94C721C82F811123C056
:10410000E114F10439F0F70180819181081B190B4A
:10411000C80ED91EA12CB12C01151105A1F080915A
:10412000E80085FD21C08091E8008E778093E8004B
:10413000E114F10499F0F701808191818A0D9B1DB2
:1041400091838083C5E08C2FCF911F910F91FF90B9
:10415000EF90DF90CF90BF90AF9008950E94C7215D
:104160008115E9F2C82FEFCFF60181916F0180939D
:10417000F10001501109FFEFAF1ABF0ACDCFFC01CA
:104180009B018091BB029091BC028617970718F0A3
:10419000672B61F0C90140E0009771F441110CC038
:1041A0008091E80082FF35C080E008958091E800AA
:1041B0008E778093E800EECF2091B4022115A9F10B
:1041C0002530A9F12091E80023FD2DC02091E800C1
:1041D00022FDE6CF2091E80020FFDECF3091F300F2
:1041E0002091F200009719F02830310558F041E095
:1041F0002830310509F040E02091E8002E77209327
:10420000E800CACF41914093F10001972F5F3F4FE3
:10421000E9CF8091B402811541F0853041F0809161
:10422000E80083FFBDCF81E0089582E0089583E038
:104230000895FC019B018091BB029091BC028617FE
:10424000970718F0672B61F0C90140E0009771F4FF
:1042500041110CC08091E80082FF36C080E00895D3
:104260008091E8008E778093E800EECF2091B40231
:104270002115B1F12530B1F12091E80023FD2EC0C8
:104280002091E80022FDE6CF2091E80020FFDECF5C
:104290003091F3002091F200009719F02830310599
:1042A00058F041E02830310509F040E02091E80065
:1042B0002E772093E800CACF44914093F1003196C5
:1042C00001972F5F3F4FE8CF8091B402811541F0F5
:1042D000853041F08091E80083FFBCCF81E00895F4
:1042E00082E0089583E00895982F973028F08F702A
:1042F0008093E90081E008959093E900242F762FC0
:1043000050E0981731F07091EC002091ED00509141
:10431000F00021FD02C09F5FE8CF3091EB003E7FAF
:104320003093EB003091ED003D7F3093ED00309104
:10433000EB0031603093EB007093EC002093ED00C4
:104340005093F0002091EE0027FDE5CF80E0089526
:104350008091B50287FF13C08091E80082FF06C0FC
:104360008091E8008B778093E80008958091B402F3
:104370008111F2CF08958091B4028115D9F3809113
:10438000E80080FFF8CF8091E8008E77ECCF209195
:10439000E4003091E50095E6A9012091EC00822F20
:1043A000817020FF06C08091E80080FF06C080E099
:1043B00008952091E80022FD1AC08091B402811571
:1043C00089F0853089F08091EB0085FD0FC0209148
:1043D000E4003091E50042175307F9F29A95E1F6AF
:1043E00084E0089582E0089583E0089581E00895CF
:1043F0000E9467220E946F22E0EEF0E080818160DF
:104400008083E8EDF0E080818F77808319BCA7ED91
:10441000B0E08C918E7F8C9380818F7E8083109210
:10442000B30208950F931F93CF93DF930E946722E7
:104430000E946F22C8EDD0E088818F7788838881C1
:104440008068888388818F7D888319BC1092B4022C
:104450001092B0021092B2021092B10200EE10E07F
:10446000F80180818B7F808388818160888342E02E
:1044700060E080E00E947421E1EEF0E080818E7FB8
:104480008083E2EEF0E080818160808380818860BB
:104490008083F80180818E7F80838881806188831A
:1044A000DF91CF911F910F910895E8EDF0E08081A9
:1044B0008F7E8083E7EDF0E080818160808384E0FF
:1044C00082BF81E08093B3020E9412220895E8ED3A
:1044D000F0E080818E7F80831092E2000895109238
:1044E000DA001092E10008951F920F920FB60F921A
:1044F00011242F933F934F935F936F937F938F93E9
:104500009F93AF93BF93EF93FF938091E10082FF5E
:104510000BC08091E20082FF07C08091E1008B7F99
:104520008093E1000E94DA248091DA0080FF19C0B4
:104530008091D80080FF15C08091DA008E7F809333
:10454000DA008091D90080FF94C080E189BD82E1CA
:1045500089BD09B400FEFDCF81E08093B4020E94C2
:10456000B91E8091E10080FF19C08091E20080FFB8
:1045700015C08091E2008E7F8093E2008091E2007E
:1045800080618093E2008091D80080628093D8009F
:1045900019BC85E08093B4020E94D01E8091E10096
:1045A00084FF29C08091E20084FF25C080E189BD9D
:1045B00082E189BD09B400FEFDCF8091D8008F7DD6
:1045C0008093D8008091E1008F7E8093E1008091FC
:1045D000E2008F7E8093E2008091E2008160809310
:1045E000E2008091B002811509F449C084E0809313
:1045F000B4020E94D91E8091E10083FF29C08091FE
:10460000E20083FF25C08091E100877F8093E10075
:1046100082E08093B4021092B0028091E1008E7F1C
:104620008093E1008091E2008E7F8093E200809190
:10463000E20080618093E20042E060E080E00E945E
:1046400074218091F00088608093F0000E94CA1E5F
:10465000FF91EF91BF91AF919F918F917F916F915A
:104660005F914F913F912F910F900FBE0F901F9030
:10467000189519BC1092B4020E94C71E72CF809187
:10468000E30087FF02C083E0B2CF81E0B0CF1F928A
:104690000F920FB60F921124EF92FF920F931F9378
:1046A0002F933F934F935F936F937F938F939F933A
:1046B000AF93BF93CF93EF93FF9309EE10E0F80110
:1046C0008081C091EC008F70C795CC27C795C82B0F
:1046D000108280EFE82EF12CF7018081877F8083A4
:1046E00078940E949223F8011082F70180818860FB
:1046F0008083CF70F801C083FF91EF91CF91BF917C
:10470000AF919F918F917F916F915F914F913F9169
:104710002F911F910F91FF90EF900F900FBE0F9070
:104720001F901895AAE2B0E0E8E9F3E20C94312575
:1047300085EB92E0FC0101962091F100208322E0BC
:104740008D3B9207B9F70E94F91E8091E80083FF24
:1047500038C08091B5029091B6029A3090F5E92F59
:10476000F0E0E45FF94D0C941D25803889F0823823
:1047700041F58091B9028F70873018F58093E90078
:104780008091EB0085FB882780F91092E90006C034
:104790008091B202880F9091B102892B9091E8002C
:1047A000977F9093E8008093F1001092F100809140
:1047B000E8008E7723C0811116C08091B702813046
:1047C00011F18091E80083FF0AC08091E800877FA3
:1047D0008093E8008091EB0080628093EB00AA96C2
:1047E000E4E00C944D25823061F78091B702811589
:1047F00089F01092E9008091E800877F8093E800BB
:104800000E94A821DECF81E0933009F080E0809300
:10481000B202EFCF8091B9028F702FEF280F2630B0
:1048200080F68093E9002091EB0020FFE2CF9330E7
:1048300031F48091EB0080628093EB00DACF9091AD
:10484000EB0090619093EB0021E030E0A90102C001
:10485000440F551F8A95E2F74093EA001092EA0050
:104860008091EB008860E8CF8111ABCF1091B70247
:104870001F778091E3008078812B8093E300809103
:10488000E800877F8093E8000E94A8218091E800DB
:1048900080FFFCCF8091E30080688093E30083E099
:1048A000111101C082E08093B4028BCF8058823016
:1048B00008F087CF8091B7029091B8028C3D53E009
:1048C000950799F583E08A838AE289834FB7F89444
:1048D000DE01139620E03EE051E2E32FF0E050933A
:1048E0005700849120FF03C082958F703F5F8F70C7
:1048F0008A30C8F0895C90E08D939D932F5F2431BE
:1049000061F74FBF8091E800877F8093E8006AE2FB
:1049100070E0CE0101960E94BF208091E8008B7765
:104920008093E8004ECF805DE6CF6091B902709130
:10493000BA02AE014F5F5F4F0E94F91F8C01892BB5
:1049400009F43FCF8091E800877F8093E800B801A9
:1049500089819A810E941921E0CF803809F031CFF6
:104960008091E800877F8093E8008091B002809377
:10497000F1001DCF811125CF9091B702923008F040
:1049800020CF8091E800877F8093E8009093B00269
:104990000E94A8218091B002811531F084E08093BB
:1049A000B4020E94E41E0DCF8091E30087FDF6CF94
:1049B00081E0F5CF0895CF938091B402811599F0ED
:1049C0008091E900C091EC008F70C795CC27C79506
:1049D000C82B1092E9008091E80083FD0E94922389
:1049E000CF70C093E900CF910895AA1BBB1B51E182
:1049F00007C0AA1FBB1FA617B70710F0A61BB70B4F
:104A0000881F991F5A95A9F780959095BC01CD01F3
:104A1000089597FB072E16F4009407D077FD09D070
:104A20000E94F52407FC05D03EF4909581959F4F98
:104A30000895709561957F4F0895EE0FFF1F0590C3
:104A4000F491E02D09942F923F924F925F926F92D2
:104A50007F928F929F92AF92BF92CF92DF92EF920E
:104A6000FF920F931F93CF93DF93CDB7DEB7CA1B8F
:104A7000DB0B0FB6F894DEBF0FBECDBF09942A88BA
:104A8000398848885F846E847D848C849B84AA8462
:104A9000B984C884DF80EE80FD800C811B81AA81EF
:104AA000B981CE0FD11D0FB6F894DEBF0FBECDBFBA
:104AB000ED010895FB01DC0104C08D910190801986
:104AC00021F441505040C8F7881B990B0895FB0111
:104AD000DC0102C001900D9241505040D8F708957A
:104AE000F999FECF92BD81BDF89A992780B50895B6
:104AF000A8E1B0E042E050E00C94B425DC01A40F42
:104B0000B51F4150504048F0CB01840F951F2E91A6
:104B10000E948F2541505040D0F70895262FF999D3
:104B2000FECF92BD81BDF89A019700B4021639F00C
:104B30001FBA20BD0FB6F894FA9AF99A0FBE0895DD
:104B40000396272F0E948F250E948E25252F0E94D5
:104B50008F25242F0C948F250196272F0E948F25B7
:104B60000C948E25DC01CB01FC01F999FECF06C027
:104B7000F2BDE1BDF89A319600B40D92415050401B
:104B8000B8F70895F894FFCF59085908A008A0086D
:104B9000050922098808880827099E09AF09AF0975
:104BA000021573150A15D414D8140E15DC14121539
:104BB0001E15E8146C15EC142215F01426154B156F
:104BC000F4142A155215FA1430153815E014161578
:104BD000E4141A15FE14341542155B156A15CE142B
:104BE00006157A1519161F16221628163D163D169B
:104BF0003D163D163D163D163D163D162B1630163C
:104C000034163A164B165116551678197E1967192F
:104C1000721984198A199019B523DB23E123DB2348
:0C4C2000E12334245624E123AD24BA24FF
:104C2C002E024E02280850011E0A14010000010039
:104C3C00A51BA01E991E921E8B1EE200E900EA0025
:104C4C00B500B600B700CD008301CC008A019201FB
:104C5C0094012102230224022502260227022A02A1
:104C6C00B300B4006F0070009F01CB019F02A00243
:104C7C00E200E900EA00B500B600B700CD00830100
:104C8C00CC008A0192019401210223022402250204
:104C9C00260227022A02B300B4006F0070009F01A5
:064CAC00CB019F02A002F3
:00000001FF
